S00F000068657861706F642E737265632C
S1130000BAC10000D7C10000D5C10000D3C10000AF
S11300109FC20000CFC10000CDC10000CBC10000D1
S1130020C9C100000C94110EC5C10000C3C1000079
S1130030C1C10000BFC10000BDC10000BBC10000C0
S1130040B9C10000B7C100000C94A70D0C942F0D8A
S11300500C9467100C948D100C94BD10ABC100006F
S1130060A9C10000A7C10000A5C10000A3C10000F0
S11300700C94C7100C94ED100C941D119BC100003E
S113008099C1000097C1000095C10000201D2A1DE0
S11300904D1D721D961DBA1DDE1D021E261E461D17
S11300A03A1D3C1D3E1D401D421D441D441D441D62
S11300B0441D441D441D441D441D441D441D441D34
S11300C0441D441D441D441D441D441D441D441D24
S11300D0441D441D441D441D441D441D441D461D12
S11300E03A1D3C1D3E1D401D421D691D5D1D5F1DC9
S11300F0611D631D651D671D671D671D671D671DE8
S1130100671D671D671D671D671D671D671D671DCB
S1130110671D671D671D671D671D671D671D671DBB
S1130120671D671D671D671D671D691D5D1D5F1DBB
S1130130611D631D651D8E1D821D841D861D881D08
S11301408A1D8C1D8C1D8C1D8C1D8C1D8C1D8C1D65
S11301508C1D8C1D8C1D8C1D8C1D8C1D8C1D8C1D53
S11301608C1D8C1D8C1D8C1D8C1D8C1D8C1D8C1D43
S11301708C1D8C1D8C1D8E1D821D841D861D881D4D
S11301808A1DB21DA61DA81DAA1DAC1DAE1DB01D45
S1130190B01DB01DB01DB01DB01DB01DB01DB01DF3
S11301A0B01DB01DB01DB01DB01DB01DB01DB01DE3
S11301B0B01DB01DB01DB01DB01DB01DB01DB01DD3
S11301C0B01DB21DA61DA81DAA1DAC1DAE1DD61DB9
S11301D0CA1DCC1DCE1DD01DD21DD41DD41DD41DB1
S11301E0D41DD41DD41DD41DD41DD41DD41DD41D83
S11301F0D41DD41DD41DD41DD41DD41DD41DD41D73
S1130200D41DD41DD41DD41DD41DD41DD41DD61D60
S1130210CA1DCC1DCE1DD01DD21DFA1DEE1DF01D14
S1130220F21DF41DF61DF81DF81DF81DF81DF81D2E
S1130230F81DF81DF81DF81DF81DF81DF81DF81D12
S1130240F81DF81DF81DF81DF81DF81DF81DF81D02
S1130250F81DF81DF81DF81DF81DFA1DEE1DF01D02
S1130260F21DF41DF61D1E1E121E141E161E181E4F
S11302701A1E1C1E1C1E1C1E1C1E1C1E1C1E1C1EAC
S11302801C1E1C1E1C1E1C1E1C1E1C1E1C1E1C1E9A
S11302901C1E1C1E1C1E1C1E1C1E1C1E1C1E1C1E8A
S11302A01C1E1C1E1C1E1E1E121E141E161E181E94
S11302B01A1E721E661E681E6A1E6C1E6E1E701E3C
S11302C0701E701E701E701E701E701E701E701EBA
S11302D0701E701E701E701E701E701E701E701EAA
S11302E0701E701E701E701E701E701E701E701E9A
S11302F0701E721E661E681E6A1E6C1E6E1E084AE2
S1130300D73B3BCE016E84BCBFFDC12F3D6C743125
S11303109ABD56833DDA3D00C77F11BED9E4BB4C7C
S11303203E916BAAAABE000000803F072C7AA5BAB2
S11303306CC590DA3B9365FC8BBC53F810FD3C56BE
S113034092834DBD879D3AB63DCBC9BF5BBE73DA80
S11303500FC93F0664EC1B3C04BC163E3BE5B93CAC
S1130360C93C37C29E5A3D660498083EEA69AAAA67
S11303703E000000803F11241FBECFEFD0E4DEBF5B
S1130380CDBF12E0A0E0B1E0ECE6F0E500E00BBF89
S113039002C007900D92AA3EB107D9F72EE0AAEE4B
S11303A0B2E001C01D92A43CB207E1F70E942711FC
S11303B00C94342825CE40E860E00C94140F089582
S11303C06031B0F421E030E0803411F420E030E01A
S11303D0C90182959295907F9827807F9827860FF0
S11303E0911D880F991F880F991F8F53924F08955D
S11303F080E090E00895262F220F220F41E050E084
S1130400803411F440E050E0002456954795079459
S1130410569547950794542F402D4F53524F66E0FD
S11304200C94640F0895CF92DF92EF92FF921F9382
S1130430CF93DF931F92CDB7DEB7182F6A017B01EC
S113044020E030E071E060E0B0E0A0E040E050E1A6
S1130450872F962F103411F48B2F9A2FFC01E295DD
S1130460F295F07FFE27E07FFE27E20FF31FEE0FE9
S1130470FF1FEE0FFF1FEF53F24F118210825383C1
S113048042832F5F3F4F2031310511F7812F93DFD6
S113049026E636E646E65FE3C701B6010E94E2239C
S11304A09B01AC0160E27CEB8EEB95E40E94D121D0
S11304B020E030E040E85FE30E94402120E030E0AB
S11304C040E05FE30E9441210E94A7226B017C016E
S11304D01982AE014F5F5F4F60E0812F0E94A50E2D
S11304E049814F76406160E0812F0E94140FC7015B
S11304F0B6010E943E22462F6EEF812F0E94140FF8
S1130500498160E0812F0E94140F81E090E00E94F5
S1130510A00D4981406A60E0812F0E94140FAE0152
S11305204F5F5F4F61E0812F0E94A50E49814460B7
S113053061E0812F0E94140F60E1812F5CDF0F9036
S1130540DF91CF911F91FF90EF90DF90CF900895AE
S11305501F920F920FB60F9211240BB60F923F9277
S11305604F925F926F927F928F929F92AF92BF92BF
S1130570CF92DF92EF92FF920F931F932F933F93AB
S11305804F935F936F937F938F939F93AF93BF9397
S1130590CF93DF93EF93FF930F2EF0E08F2EF1E0D4
S11305A09F2EF02D0F2EF1E4EF2EFEE0FF2EF02D06
S11305B00F2EFAEECF2EF2E0DF2EF02D00E010E049
S11305C00F2EFAE34F2E512C612C712CF02D6894D0
S11305D0332431F8E801F40181914F01D8D0570157
S11305E0F70181937F010E945E0DF5012081213086
S11305F0B1F4F801E650FD4F2081213009F040C0EC
S1130600F801EE0FFF1FEE0FFF1FEE50FD4F60834A
S1130610718382839383C650DD4F388231C0F801E1
S1130620EE0FFF1FEE0FFF1FEE50FD4F20813181B3
S113063042815381621B730B840B950B6035F3EC81
S11306407F078105910538F4A30192010E940925D1
S1130650F60131832083FE01E650FD4F1082FE0136
S1130660EE0FFF1FE251FD4F11821082CC0FDD1FF0
S1130670CC0FDD1FCE50DD4F188219821A821B82E7
S11306800F5F1F4FF2E0CF0ED11C0230110509F0AD
S1130690A1CFFF91EF91DF91CF91BF91AF919F9146
S11306A08F917F916F915F914F913F912F911F9106
S11306B00F91FF90EF90DF90CF90BF90AF909F90FD
S11306C08F907F906F905F904F903F900F900BBEF4
S11306D00F900FBE0F901F90189580E090E00E943D
S11306E01E2891E08F3F09F490E0892F089561E07E
S11306F080E090E00C9426280895EFDF81110BC070
S113070061E081E090E00E94262861E082E090E0D0
S11307100E942628ECDF81E008958032A8F497E057
S1130720899FF0011124ED51FE4FA281B3812C91D8
S113073081E090E0068002C0880F991F0A94E2F7D6
S1130740822B8C9381E0089580E008958032E8F450
S113075097E0899FF0011124ED51FE4FA281B381EE
S11307602C9181E090E0068002C0880F991F0A94C2
S1130770E2F78095922F98239C930190F081E02DCD
S113078090818923808381E0089580E0089527E0A3
S1130790829FC0011124FC01ED51FE4FA481B5815B
S11307A08C9190E0068002C0959587950A94E2F7B3
S11307B0817008952F923F924F925F926F927F9231
S11307C0AF92BF92CF92DF92EF92FF920F931F935B
S11307D0CF93DF93CDB7DEB729970FB6F894DEBF7A
S11307E00FBECDBF89872A013B0109831A832B835E
S11307F03C83863008F0D5C1282E312C9AE2899F9B
S1130800F0011124EF5FFC4F8381813009F0CBC1EB
S11308108AE2829DF001839DF00D1124EF5FFC4F6D
S11308208281813009F0C1C1A985A330D0F58F013F
S11308300780F085E02D60857185072E000C880BFC
S1130840990B0E946C226D837E838F83988720E0AE
S113085030E041EE54E469817A818B819C810E946D
S113086040219B01AC016D817E818F8198850E941E
S1130870412169837A838B839C83D8011996ED91F6
S1130880FC911A9760857185072E000C880B990BD3
S11308900E946C22A70196010E9440216B017C01F9
S11308A043C02AE2229DC001239D900D11248C0196
S11308B00F5F1C4FD8011796ED91FC911897648136
S11308C07581072E000C880B990B0E946C226D8396
S11308D07E838F83988729813A814B815C8160E094
S11308E070E081EE94E40E9440219B01AC016D8193
S11308F07E818F8198850E94412169837A838B83CD
S11309009C83D8011996ED91FC911A9764817581A5
S1130910072E000C880B990B0E946C22A7019601EC
S11309200E9441216B017C01B985BB2311F0B530D4
S1130930E1F48AE2829DF001839DF00D1124EF5FC2
S1130940FC4F0580F681E02D64817581072E000C33
S1130950880B990B0E946C229B01AC01C301B2016C
S11309600E9441212B013C0140C089858250823084
S1130970E0F48AE2829DF001839DF00D1124EF5F83
S1130980FC4F0580F681E02D60857185072E000CF3
S1130990880B990B0E946C229B01AC01C301B2012C
S11309A00E9441212B013C0120C0E985E13011F076
S11309B0E430D9F48AE2829DF001839DF00D112484
S11309C0EF5FFC4F0580F681E02D66817781072E6D
S11309D0000C880B990B0E946C229B01AC01C30193
S11309E0B2010E9441212B013C018AE2829DF00167
S11309F0839DF00D1124EF5FFC4F05811681D80112
S1130A0014966D917C911597072E000C880B990B09
S1130A100E946C229B01AC01C301B2010E94D72346
S1130A2088230CF4C4C0F80160857185072E000C7E
S1130A30880B990B0E946C229B01AC01C301B2018B
S1130A400E94CD2118160CF4B4C08AE2829DF001F4
S1130A50839DF00D1124EF5FFC4F07811085D801B1
S1130A6014966D917C911597072E000C880B990BA9
S1130A700E946C229B01AC0169817A818B819C81EB
S1130A800E94D72388230CF496C0F80160857185F1
S1130A90072E000C880B990B0E946C229B01AC0161
S1130AA069817A818B819C810E94CD2118160CF476
S1130AB084C08AE2829DF001839DF00D1124EF5FD2
S1130AC0FC4F21843284D10114966D917C91159749
S1130AD0072E000C880B990B0E946C229B01AC0121
S1130AE0C701B6010E94D72388230CF468C0F10122
S1130AF060857185072E000C880B990B0E946C226F
S1130B009B01AC01C701B6010E94CD2118160CF45B
S1130B1058C08985880FF985F80FFD83C301B20198
S1130B200E9445242B013C0169817A818B819C813F
S1130B300E94452469837A838B839C83C701B60111
S1130B400E9445246B017C01C301B2010E94392239
S1130B50A5018D81AFD6880F982F990F990F782E04
S1130B60790E69817A818B819C810E943922A50149
S1130B708D818F5F9FD6870D880F982F990F990FBE
S1130B80182F190FC701B6010E943922A5018D81C2
S1130B908E5F90D6912F980F81E09F3699F080E078
S1130BA011C080E00FC080E00DC080E00BC080E089
S1130BB009C080E007C080E005C080E003C080E099
S1130BC001C080E029960FB6F894DEBF0FBECDBFFA
S1130BD0DF91CF911F910F91FF90EF90DF90CF9015
S1130BE0BF90AF907F906F905F904F903F902F9009
S1130BF00895EF92FF920F931F93CF93DF9333D611
S1130C001092FC0210920103C1E0D3E010E000E076
S1130C1009831A821B821C82812F0FD79E838D83A6
S1130C20DC011C93FF24F394F10E8F2D06D79887D3
S1130C308F83FC01F0826894FF24F1F8F10E8F2D6C
S1130C40FCD69A878987DC01FC920F5FAA961D5F08
S1130C500630F1F6E1E0F3E0A581B68128E532E063
S1130C6013963C932E931297A581B6818EE591E05D
S1130C701B969C938E931A9717963C932E931697D4
S1130C80A581B68115969C938E931497A581B68100
S1130C9082E593E019969C938E931897A781B0856B
S1130CA084E190E013969C938E931297A781B0856C
S1130CB01B969C938E931A9742E55EEF17965C936E
S1130CC04E931697A781B08540E95CEF15965C9327
S1130CD04E931497A781B08519969C938E93189779
S1130CE0A185B28584E893E013969C938E93129722
S1130CF0A185B2851B969C938E931A97A185B28584
S1130D0068EC70E017967C936E931697A185B28574
S1130D104CE05EEF15965C934E931497A185B285D3
S1130D2019969C938E931897C7A5D0A9A2E3B0E017
S1130D30BB83AA83C7A5D0A9BB87AA87C7A5D0A907
S1130D40BF83AE83A7A5B0A9C8E3DFEF1596DC93F4
S1130D50CE931497A7A5B0A9CCE2D1E01996DC9361
S1130D60CE931897C1A9D2A9AEECBFEFBB83AA83D7
S1130D70C1A9D2A9BB87AA87C1A9D2A95F834E837F
S1130D80C1A9D2A90AE41CEF1D830C83C1A9D2A96D
S1130D90B987A887A3A9B4A913969C938E93129795
S1130DA0A3A9B4A91B969C938E931A97A3A9B4A93B
S1130DB017967C936E931697A3A9B4A915965C9382
S1130DC04E93149703A8F4A9E02D91878087EAE550
S1130DD0F3E0A081B181C2EFDEEF1396DC93CE93F2
S1130DE01297008111810F2EFCEEEF2EFF24FA944E
S1130DF0F02DD8011B96FC92EE921A970081118176
S1130E00D8011796DC93CE931697C081D18108EF51
S1130E101DEF1D830C830190F081E02DF186E086A7
S1130E20ECE5F3E0A081B18113961C921E92129717
S1130E30A081B1811B961C921E921A97A081B18148
S1130E40CEE3DEEF1796DC93CE931697A081B181A3
S1130E50CCE7DCEF1596DC93CE9314970190F081E8
S1130E60E02D11861086EEE5F3E0A081B1811396A2
S1130E709C938E931297A081B1811B969C938E9321
S1130E801A97A081B18117967C936E931697A081CF
S1130E90B18115965C934E9314970190F081E02DE7
S1130EA091878087E4E8F3E0A081B1814EE85EEFAA
S1130EB013965C934E931297A081B18188E89FEFBB
S1130EC01B969C938E931A97A081B18117965C937D
S1130ED04E931697A081B18144E95DEF15965C931A
S1130EE04E9314970190F081E02D91878087E6E876
S1130EF0F3E0A081B18188ED9FEF13969C938E93CC
S1130F001297A081B1811B969C938E931A97A0810E
S1130F10B1814AE951E017965C934E931697A081EC
S1130F20B18115969C938E9314970190F081E02DD6
S1130F306CE573E071876087E8E8F3E0C081D181F4
S1130F40A0EEBCEFBB83AA83C081D181BB87AA87F3
S1130F50C081D1810CE91FEF1F830E83C081D18131
S1130F60BD83AC830190F081E02D31872087EEEAC8
S1130F70F3E0A081B18120EB3FEF13963C932E93D5
S1130F801297A081B1811B963C932E931A97A0814E
S1130F90B18117963C932E931697A081B18126EBCD
S1130FA03EEF15963C932E9314970190F081E02D1B
S1130FB02AEA30E031872087E0EBF3E0A081B181B9
S1130FC022EE3FEF13963C932E931297A081B181AA
S1130FD01B963C932E931A97A081B181C4EAD1E069
S1130FE01796DC93CE931697A081B18115963C9306
S1130FF02E9314970190F081E02D26E633E031879B
S11310002087E2EBF3E0A081B18128E03DEF139665
S11310103C932E931297A081B1811B963C932E93FF
S11310201A97A081B181C4ECDFEF1796DC93CE93BD
S11310301697A081B18115963C932E931497019035
S1131040F081E02D20E832E031872087E8EDF3E0FD
S1131050C081D181AAE5B0E0BB83AA83C081D181DC
S113106020E63FEF3B872A87C081D181BF83AE83CF
S1131070A081B18115963C932E9314970190F08131
S1131080E02DA4E5B1E0B187A087EAEDF3E0A0810B
S1131090B18113969C938E931297A081B1811B9674
S11310A09C938E931A97A081B18117965C934E936B
S11310B01697A081B18115969C938E9314970190F5
S11310C0F081E02D71876087ECEDF3E0A081B181C0
S11310D084EA9CEF13969C938E931297A081B1811E
S11310E01B969C938E931A97A081B18117963C937B
S11310F02E931697A081B18115969C938E93149785
S11311000190F081E02D8CE192E09187808781E06D
S1131110DF91CF911F910F91FF90EF9008952AE2F4
S1131120829FC00111248E5F9C4F0895AF92BF929D
S1131130CF92DF92EF92FF920F931F93CF93DF939F
S1131140CDB7DEB72C970FB6F894DEBF0FBECDBF78
S1131150C982DA82EB82FC820D831E832F83388757
S113116049875A876B877C87282F30E09AE2899FCA
S1131170F0011124EF5FFC4F8481811131C08AE2B8
S1131180829F8001839F100D11240F5F1C4F898162
S11311909A81AB81BC81F801878B908FA18FB28F2C
S11311A08D819E81AF81B885838F948FA58FB68FF3
S11311B089859A85AB85BC85878F90A3A1A3B2A3AB
S11311C09FD4F80163A374A385A396A3C501A0E0EB
S11311D0B0E087A390A7A1A7B2A781E0848301C050
S11311E080E02C960FB6F894DEBF0FBECDBFDF9122
S11311F0CF911F910F91FF90EF90DF90CF90BF9010
S1131200AF9008958F929F92AF92BF92CF92DF9248
S1131210EF92FF9249015A012BED3FE049E450E47B
S11312200E94E22320E030E044E353E40E94D12111
S11312300E94AA246B017C0120E030E040EF51E4DD
S1131240C501B4010E944121A70196010E94E22335
S1131250FF90EF90DF90CF90BF90AF909F908F90D2
S113126008952F923F924F925F926F927F928F9246
S11312709F92AF92BF92CF92DF92EF92FF920F9321
S11312801F93CF93DF93CDB7DEB72A970FB6F894A9
S1131290DEBF0FBECDBF29013A01E982FA820B837A
S11312A01C83860115019A86898620E030E0A90115
S11312B00E9441216B017C0120E030E040EF51E4C9
S11312C0C301B2010E9441212B013C0120E030E026
S11312D044E352E469817A818B819C810E9441219B
S11312E069837A838B839C83A7019601C701B60126
S11312F00E94E2234B015C01A3019201C301B201EC
S11313000E94E2236D837E838F8398872D813E81A3
S11313104F815885C501B4010E9441210E9469246E
S11313204B015C01A3019201C701B6010E94D121C6
S11313300E94A5212B013C0120E030E040EF51E464
S1131340C501B4010E9440216B017C019B01AC01E9
S11313500E94E2236D837E838F83988729813A815B
S11313604B815C81CA01B9010E94E2234B015C01FB
S1131370A7019601C701B6010E94E2236B017C011B
S1131380A5019401C701B6010E9441210E9469246C
S11313906B017C019B01AC010E94E2234B015C01C7
S11313A09B01AC0160E07AE78CEB96E40E9440215B
S11313B020E038EA4CEA56E40E94D1210E9432210E
S11313C06D837E838F839887A701960169817A81D3
S11313D08B819C810E94D1210E94322169837A836E
S11313E08B839C8320E038EC41EE55E4C501B401C5
S11313F00E94412120E038E044E856E40E94402164
S11314004B015C0120E030E04AE253E4C701B6013D
S11314100E94E2239B01AC01C501B4010E94D121C9
S11314200E9432214B015C0120E030E044E353E4AC
S1131430C301B2010E94E2236B017C01A501940166
S113144069817A818B819C810E94412120E030E076
S113145044E353E40E94E2234B015C0120E030E0CA
S113146044E353E46D817E818F8198850E94E22359
S11314702B013C012BED3FE049E450E4C701B601E8
S11314800E94D12120E030E040E251E40E94E223B6
S1131490F80160837183828393832BED3FE049E4F9
S11314A050E4C501B4010E94D12120E030E040E2C3
S11314B051E40E94E223F101608371838283938368
S11314C02BED3FE049E450E4C301B2010E94D12175
S11314D020E030E040E251E40E94E223E985FA850D
S11314E0608371838283938381E02A960FB6F89494
S11314F0DEBF0FBECDBFDF91CF911F910F91FF9043
S1131500EF90DF90CF90BF90AF909F908F907F909F
S11315106F905F904F903F902F9008952F923F923D
S11315204F925F927F928F929F92AF92BF92CF928F
S1131530DF92EF92FF920F931F93CF93DF93CDB778
S1131540DEB768970FB6F894DEBF0FBECDBF8091AB
S11315500103811187C0D4D20091FD021091FE02D3
S11315602091FF0230910003DC01CB01801B910B21
S1131570A20BB30B8B3F9105A105B10508F459C12A
S11315808091FC02863008F05BC019861A861B869F
S11315901C861D821E821F82188619821A821B8253
S11315A01C829E012F5F3F4F4901CE0105965C01CD
S11315B0DE0119966D01E12CF12C8701A801970138
S11315C0C801B7014EDEC980DA80EB80FC800D8152
S11315D01E812F81388549855A856B857C850F2E20
S11315E0F8EEAF2EF3E0BF2EF02D8091FC02E2D88E
S11315F08091FC02982F990F61E0890FA3D180910B
S1131600FC02982F990F890F61E08F5F9BD1809125
S1131610FC02982F990F890F61E08E5F93D180911E
S1131620FC02EBEA8E9FE12D1124E695BAE2EB9FD2
S1131630F0011124EF5FFC4F81E08283838303C0B8
S113164081E0809301038091FC028F5F8093FC0210
S113165057D26093FD027093FE028093FF02909331
S11316600003E7C00F2EF1E02F2EF3E03F2EF02D04
S1131670712CF1018481882309F4D4C041D2D101B1
S113168093960D911D912D913C919697601B710B32
S1131690820B930B0E946A226B017C01F10167A10A
S11316A070A581A592A50E946A229B01AC01C70185
S11316B0B6010E94D1216D877E878F87988BD101D7
S11316C01B968D919D910D90BC91A02D898B9A8B29
S11316D0AB8BBC8BF101C784D088E188F288838806
S11316E09488A588B6889C01AD016789708D818D29
S11316F0928D0E9440212D853E854F8558890E94F8
S1131700E22329893A894B895C890E944121698BAA
S11317107A8B8B8B9C8BA7019601D1015B966D9183
S11317207D918D919C915E970E9440212D853E85EF
S11317304F8558890E94E223A70196010E94412106
S11317406D8B7E8B8F8B988FA5019401F101678D32
S113175070A181A192A10E9440212D853E854F85D3
S113176058890E94E223A50194010E94412119860F
S11317701A861B861C861D821E821F821886198269
S11317801A821B821C829E012F5F3F4F4901DE019A
S113179015965D01FE0139966F017B018C012D893F
S11317A03E894F89588D69897A898B899C8959DD4D
S11317B0D1019796AD90BC909897C980DA80EB8060
S11317C0FC800D811E812F81388549855A856B8562
S11317D07C85872D0E94DA0320E030E040E85FE357
S11317E06D857E858F8598890E94D7238823D4F0C0
S11317F0F10114828789908DA18DB28D838794879E
S1131800A587B687838D948DA58DB68D8787908B9C
S1131810A18BB28B878D90A1A1A1B2A1838B948B54
S1131820A58BB68B7394FAE22F0E311C26E072124C
S113183020CF97D081E068960FB6F894DEBF0FBE34
S1131840CDBFDF91CF911F910F91FF90EF90DF906B
S1131850CF90BF90AF909F908F907F905F904F906C
S11318603F902F900895EFEFF3E080E044E853E0D9
S113187028E037E080831182138212821386128655
S11318801582148257834683318720878F5F3C9665
S1131890833181F740E050E060E772E480E40E9425
S11318A0130240E050E060E772E481E40E94130216
S11318B081E008958331F0F5282F30E0F901EE0F2F
S11318C0FF1FE20FF31FEE0FFF1FEE0FFF1FE1508C
S11318D0FC4F8181813081F5F901EE0FFF1FE20F8A
S11318E0F31FEE0FFF1FEE0FFF1FE150FC4F44816B
S11318F055816417750714F1F901EE0FFF1FE20F0C
S1131900F31FEE0FFF1FEE0FFF1FE150FC4F40854A
S1131910518546175707A4F0F901EE0FFF1FE20F98
S1131920F31FEE0FFF1FEE0FFF1FE150FC4F7383F9
S11319306283089580E0089580E0089580E008952A
S113194080E0089590E0FC01EE0FFF1FE80FF91FFF
S1131950EE0FFF1FEE0FFF1FE150FC4F618381E08C
S11319600895CF92DF92EF92FF920F931F93CF933C
S113197000E014E0C0E0C12C6894DD24D4F8C93040
S113198030F46C2F81E40E94E0017C0106C067EF13
S11319906C0F80E40E94E0017C01F7011182108247
S11319A0F8018081813031F561817281072E000C4C
S11319B0880B990B0E946C2220E030E041E654E44D
S11319C00E94412120E030E84EE853E40E94E223E3
S11319D020E030E041EE54E40E94D12120E030E0E8
S11319E043E453E40E9441210E943E22F7017383A1
S11319F0628303C0F701D382C282CF5F045F1F4FAB
S1131A00C33109F0BCCF8091FE03882339F01092D2
S1131A10FE0369E081E40E94FB0107C081E080933A
S1131A20FE036AE080E40E94FB01CF911F910F91B5
S1131A30FF90EF90DF90CF900895833168F490E0A9
S1131A409C01220F331F820F931F880F991F880F49
S1131A50991F81509C4F089580E090E008951F9253
S1131A600F920FB60F9211248F938091E3048EBDD1
S1131A708F910F900FBE0F901F9018951092E40451
S1131A801092E5041092E6041092E70414BC16BC0C
S1131A9084B58E7F84BD84B58D7F84BD85B5877FF5
S1131AA085BD85B5826085BD85B58E7F85BDEEE635
S1131AB0F0E080818160808381E008953FB7F894ED
S1131AC08091E4049091E504A091E604B091E704C8
S1131AD026B5A89B05C02F3F19F00196A11DB11D85
S1131AE03FBFBA2FA92F982F8827820F911DA11DC0
S1131AF0B11DBC01CD01969587957795679508959D
S1131B00DDDF28EE33E040E050E00E940925CA0101
S1131B10B9010895CF92DF92EF92FF926B017C019D
S1131B20CDDFC60ED71EE81EF91EC8DF6C157D0575
S1131B308E059F05D0F3FF90EF90DF90CF9008952E
S1131B409C01A8EEB3E00E943425E4CF08951F92CF
S1131B500F920FB60F9211248F939F93AF93BF935D
S1131B608091E4049091E504A091E604B091E70427
S1131B700196A11DB11D8093E4049093E504A09304
S1131B80E604B093E704BF91AF919F918F910F90BA
S1131B900FBE0F901F901895E3E4FEE010821086AC
S1131BA017821092B0001092B200E1EBF0E0808155
S1131BB0816080838081846080838DE78093B3001B
S1131BC0B99AE0E7F0E080818260808381E0089543
S1131BD090E0FC01EE0FFF1FEE0FFF1FEE0FFF1F43
S1131BE08E0F9F1FFC01ED5BF14F10821282118258
S1131BF01482138282E08583108617820895E0E7B9
S1131C00F0E080818D7F80838DE78093B300109214
S1131C10470E1092460E1092B2008081826080833B
S1131C2008951F920F920FB60F9211240BB60F92C4
S1131C300F931F932F933F934F935F936F937F93D0
S1131C408F939F93AF93BF93CF93EF93FF93C091E1
S1131C50B2008091430E813069F5E3E4FEE08381B4
S1131C609481019694838383238134818181928139
S1131C7028173907F9F48091480E8230D9F014827C
S1131C801382858181110BC000914A0E10914B0E75
S1131C909FDF0115110571F0F80109950BC08091C2
S1131CA04A0E90914B0E892B29F0E0914A0EF09147
S1131CB04B0E09958091B200C458C093B300FF91B4
S1131CC0EF91CF91BF91AF919F918F917F916F9140
S1131CD05F914F913F912F911F910F910F900BBEE8
S1131CE00F900FBE0F901F9018958FEFECEBF0E064
S1131CF00EC0815061F48091E8049091E90401964A
S1131D009093E9048093E8041092BC0008959081B4
S1131D1099237CF70895CF93DF93C2E0D1E08881C3
S1131D200E948D0389810E948D038CE58093B80005
S1131D301092B90084E08093BC001092E9041092E0
S1131D40E80481E0DF91CF9108950F931F93CF931F
S1131D50DF93C82FD62F8A0184EA8093BC00C5DFA5
S1131D608091B900883029F08091B900803109F060
S1131D7049C08C2F880F8093BB0084E88093BC00FB
S1131D80B4DF8091B900883109F03EC0D093BB0024
S1131D9084E88093BC00A9DF8091B9008832B1F552
S1131DA084EA8093BC00A1DF8091B900803181F581
S1131DB0CC0FC160C093BB0084E88093BC0095DF66
S1131DC08091B900803431F584E88093BC008DDFC4
S1131DD08091B900883501F58091BB00F8018083BA
S1131DE084E98093BC008091B900883FB9F0809168
S1131DF0E8049091E90401969093E9048093E8043F
S1131E0080E00DC080E00BC080E009C080E007C026
S1131E1080E005C080E003C080E001C081E0DF9184
S1131E20CF911F910F9108951F93CF93DF93C82FE4
S1131E30D62F142F84EA8093BC0057DF8091B90019
S1131E40883021F08091B900803189F5CC0FC0939E
S1131E50BB0084E88093BC0048DF8091B9008831DE
S1131E6041F5D093BB0084E88093BC003EDF8091B1
S1131E70B900883201F51093BB0084E88093BC005C
S1131E8034DF8091B9008832C1F484E98093BC00C6
S1131E908091B900883F99F08091E8049091E90419
S1131EA001969093E9048093E80480E009C080E0FF
S1131EB007C080E005C080E003C080E001C081E08D
S1131EC0DF91CF911F9108959F92AF92BF92CF92CD
S1131ED0DF92EF92FF920F931F93CF93DF93C82F5C
S1131EE0F62E8A01D22F84EA8093BC00FEDE809114
S1131EF0B900883029F08091B900803109F051C0CF
S1131F00CC0FC093BB0084E88093BC00EEDE8091CC
S1131F10B900883109F047C0F092BB0084E880938F
S1131F20BC00E3DE8091B900883209F03EC0DD23B5
S1131F3099F17801D150CD2FD0E02196C00FD11F57
S1131F400F2EFBEBAF2EB12CF02D0F2EFCEBCF2E72
S1131F50D12CF02D0F2EF4E89F2EF02D09EB10E07C
S1131F60F70181917F01F5018083F6019082BDDE46
S1131F70F8018081883259F08091E8049091E90455
S1131F8001969093E9048093E80480E006C0CE159E
S1131F90DF0531F781E001C081E094E99093BC0052
S1131FA005C081E003C081E001C081E0DF91CF91F1
S1131FB01F910F91FF90EF90DF90CF90BF90AF9063
S1131FC09F900895CF93DF93C4E0D1E089810E946C
S1131FD08D0388810E94A60384E190E09093C5005C
S1131FE08093C400E0ECF0E0808182608083E1ECC7
S1131FF0F0E0808180618083808188608083A2ECAE
S1132000B0E08C9182608C9380818F7B808380810F
S11320108F7D808380818068808381E0DF91CF9190
S1132020089524E034E0482F429FC001439F900D5F
S1132030112486519B4FDC01AE5FBD4F2C912F5F65
S1132040820F911DFC01EC5FFD4F60832C9381E0B6
S11320500895811107C0E1ECF0E080818062808303
S113206081E0089580E00895282F30E084E094E032
S1132070289FF001299FF00D389FF00D1124E6519F
S1132080FB4F9181DF01A90FB11D12968C91408104
S1132090941769F09F5F44E054E0249FF001259F6A
S11320A0F00D349FF00D1124E651FB4F91830895F8
S11320B024E034E0482F429FC001439F900D112437
S11320C0FC01E651FB4F80819181891B08951F9289
S11320D00F920FB60F9211240BB60F928F939F930A
S11320E0AF93BF93EF93FF93AAEEB4E0EC9181E03A
S11320F08E0FF0E09091C600E651FB4F92838C93D3
S1132100FF91EF91BF91AF919F918F910F900BBE73
S11321100F900FBE0F901F9018951F920F920FB63D
S11321200F9211240BB60F928F939F93EF93FF930B
S11321309091ED068091EC06981759F081E0890F93
S1132140E82FF0E0E251F94F90819093C60080931C
S1132150ED069091EC06891305C0E1ECF0E0808176
S11321608F7D8083FF91EF919F918F910F900BBE94
S11321700F900FBE0F901F9018951F920F920FB6DD
S11321800F9211240F900FBE0F901F9018951F925D
S11321900F920FB60F9211240BB60F928F939F9349
S11321A0AF93BF93EF93FF93AAEEB4E0EC9181E079
S11321B08E0FF0E09091CE00E651FB4F92838C930A
S11321C0FF91EF91BF91AF919F918F910F900BBEB3
S11321D00F900FBE0F901F9018951F920F920FB67D
S11321E00F9211240BB60F928F939F93EF93FF934B
S11321F09091ED068091EC06981759F081E0890FD3
S1132200E82FF0E0E251F94F90819093CE00809353
S1132210ED069091EC06891305C0E9ECF0E08081AD
S11322208F7D8083FF91EF919F918F910F900BBED3
S11322300F900FBE0F901F9018951F920F920FB61C
S11322400F9211240F900FBE0F901F90189514BE7B
S113225085B7816085BF85B78D7F85BFF8949EE083
S113226088E10FB6F894A895809360000FBE909310
S1132270600078940E94DC1ED8E1CEE00FB6F8949A
S1132280A895D09360000FBEC09360000E94861F83
S1132290F5CF0F931F93ECE4FEE0108211821282BB
S11322A0138280E090E0A0E7B2E484839583A68360
S11322B0B78340E050E060EA71E440875187628769
S11322C0738700E010E024E332E40487158726874F
S11322D03787808B918BA28BB38B148A158A168ACD
S11322E0178A808F918FA28FB38F848F958FA68F3B
S11322F0B78F40A351A362A373A30E94F9051F9152
S11323000F910895AF92BF92CF92DF92EF92FF9216
S11323100F931F9303D9F4DB0091F30C1091F40C89
S11323202091F50C3091F60CDC01CB01801B910B54
S1132330A20BB30B89389341A105B10578F18091C3
S1132340F20C90E0FC01EE0FFF1FE80FF91FEE0FF7
S1132350FF1FEE0FFF1FE45BF14F0F2EF8EEAF2EC1
S1132360F3E0BF2EF02DC080D180E280F3800481A1
S1132370158126813781408551856285738580E08A
S11323800E949608882351F08091F20C8F5F83306D
S113239019F08093F20C02C01092F20C1F910F916D
S11323A0FF90EF90DF90CF90BF90AF90089580E7BB
S11323B09EE008958F929F92AF92BF92CF92DF9248
S11323C0EF92FF920F931F93CF93DF93EC01611170
S11323D050C000E71EE0F801218D328D438D548DED
S11323E065817681878190850E9440216B017C0103
S11323F020E030E040E751E4F80161897289838983
S113240094890E944121F801258936894789508D94
S11324100E944021A70196010E9402096B017C01E0
S1132420F801218D328D438D548D658176818781AC
S113243090850E9440214B015C01F8012185328581
S11324404385548561817281838194810E944121F5
S1132450F80125853685478550890E944121F80178
S1132460258D368D478D50A10E9441218B019C0101
S11324708AC1613009F042C000E71EE0F801218DF5
S1132480328D438D548D65817681878190850E943C
S113249040216B017C01F801258936894789508DDB
S11324A061897289838994890E944021A7019601D8
S11324B00E9402096B017C01F801218D328D438D4C
S11324C0548D65817681878190850E9440214B01DE
S11324D05C01F801258536854785508961817281C3
S11324E0838194810E944121F801258D368D478D89
S11324F050A10E9441218B019C0145C1623009F029
S113250054C000E71EE0F801218D328D438D548DB7
S113251065817681878190850E9440216B017C01D1
S1132520F801218932894389548960E070E080E7A9
S113253091E40E944021F801258936894789508D0C
S11325400E944121A70196010E9402096B017C01AE
S1132550F7FAF094F7F8F094F801218D328D438D59
S1132560548D65817681878190850E9440214B013D
S11325705C01F8012185328543855485618172812E
S1132580838194810E944021F80125853685478501
S113259050890E944121F801258D368D478D50A127
S11325A00E9441218B019C01EEC0633009F054C0AC
S11325B000E71EE0F801218D328D438D548D658135
S11325C07681878190850E9441216B017C01F8010D
S11325D0218932894389548960E070E080E791E47D
S11325E00E944021F801258936894789508D0E942F
S11325F04021A70196010E9402096B017C01F7FAB0
S1132600F094F7F8F094F801218D328D438D548DB8
S113261065817681878190850E9441214B015C010F
S1132620F8012185328543855485618172818381D6
S113263094810E944121F80125853685478550897A
S11326400E944021F801258D368D478D50A10E94AE
S113265041218B019C0197C0643009F042C000E71E
S11326601EE0F801218D328D438D548D6581768174
S1132670878190850E9441216B017C01F8012589A5
S113268036894789508D61897289838994890E942A
S11326904121A70196010E9402096B017C01F80106
S11326A0218D328D438D548D65817681878190850E
S11326B00E9441214B015C01F8012585368547853F
S11326C0508961817281838194810E944021F80143
S11326D0258D368D478D50A10E9441218B019C018F
S11326E052C0653009F04FC000E71EE0F801218DAB
S11326F0328D438D548D65817681878190850E94CA
S113270041216B017C0120E030E040E751E4F80115
S113271061897289838994890E944121F8012589FC
S113272036894789508D0E944121A70196010E9454
S113273002096B017C01F801218D328D438D548D8A
S113274065817681878190850E9441214B015C01DE
S1132750F8012185328543855485618172818381A5
S113276094810E944021F80125853685478550894A
S11327700E944021F801258D368D478D50A10E947D
S113278041218B019C01C882D982EA82FB828C821E
S11327909D82AE82BF82088719872A873B87CE0134
S11327A0DF91CF911F910F91FF90EF90DF90CF9029
S11327B0BF90AF909F908F900895AF92BF92CF92A9
S11327C0DF92EF92FF920F931F93CF93DF93CDB7D6
S11327D0DEB7E0E7FEE06187728783879487258709
S11327E036874787508BE18AF28A038B148BA58A3C
S11327F0B68AC78AD08E8D859E85AF85B889818F2C
S1132800928FA38FB48F89899A89AB89BC89858F6C
S1132810968FA78FB0A381E0DF91CF911F910F9185
S1132820FF90EF90DF90CF90BF90AF9008951F93EB
S1132830CF93DF93CDB7DEB72C970FB6F894DEBFF6
S11328400FBECDBF10E0612FCE010196B3DD1F5F37
S11328501630C9F781E02C960FB6F894DEBF0FBE90
S1132860CDBFDF91CF911F9108958091700E08958F
S11328708093700E823070F0823071F4E0E7FEE0F5
S11328801582168217821086118212821382148294
S113289081E0089581E0089580E008956093750EC5
S11328A07093760E8093770E9093780E81E008955E
S11328B06093710E7093720E8093730E9093740EE6
S11328C081E008950F931F93CF93DF93082F6CE358
S11328D08091F90CA6DB10E00115110559F0CFEF3A
S11328E0DCE00150134F69918091F90C9ADBC01719
S11328F0D107C9F76EE38091F90C93DB8091F90C51
S1132900A8DBDF91CF911F910F9108951F924F93F0
S11329101F926F931F928F931F921F9283EC92E0EA
S11329209F938F938FEF9CE09F938F930E944325F7
S11329302DB73EB7245F3F4F0FB6F8943EBF0FBE8E
S11329402DBF08952F923F924F925F926F927F9284
S11329508F929F92AF92BF92CF92DF92EF92FF92AB
S11329600F931F93CF93DF93CDB7DEB72E970FB698
S1132970F894DEBF0FBECDBF8091640D811145C0B8
S11329808091650D811124C08091660D811120C054
S113299042E060E0BBDF9A8389831F9281E08F93DA
S11329A01F928F9382ED92E09F938F9389819A81F6
S11329B099278150934F9F938F930E944325298198
S11329C0820F80DF0FB6F894DEBF0FBECDBF86C77F
S11329D08091650D813041F48091660D811104C0B0
S11329E081E08093FA0C7AC78091650D823041F4BE
S11329F08091660D811104C01092FA0C81E06EC7BB
S1132A0083E08093F80C80E069C78091640D813085
S1132A1009F065C38091650D811124C08091660D14
S1132A20811120C041E060E081E070DF9A838983F6
S1132A301CDF1F928F9386ED92E09F938F93898181
S1132A409A8199278150934F9F938F930E94432596
S1132A505981850F37DF0F900F900F900F900F90D3
S1132A600F903CC78091650D813049F58091660DCA
S1132A70853029F5E090680D0091690DF0906A0D9C
S1132A8010916B0D0E947E208091670D602F70E085
S1132A9090E1E99E600D711D112462957295707F1D
S1132AA07627607F76276F0D711D62957295707F12
S1132AB07627607F7627610F711DDADE0FC780915C
S1132AC0650D823009F0A8C08091660D803109F04F
S1132AD0A3C0E3E6FDE0E48015816680778020846E
S1132AE0318482856385048525852D87F684378521
S1132AF03E87808891885288438840E1849F600D96
S1132B001124062E000C770B880B990B0E946C2263
S1132B105B016C01632D50E1259E600D1124062E8E
S1132B20000C770B880B990B0E946C2269837A83C3
S1132B308B839C83672D80E1689E600D1124062E93
S1132B40000C770B880B990B0E946C226D837E839B
S1132B508F839887612F90E1E99E600D1124062EE2
S1132B60000C770B880B990B0E946C2269877A877B
S1132B708B879C87FE85E0E1FE9EF00D11246F2F6C
S1132B80FF0F770B880B990B0E946C229F938F93F6
S1132B907F936F933D8520E1029F300D1124632FB5
S1132BA0330F770B880B990B0E946C229F938F93A2
S1132BB07F936F93E980FA800B811C812D813E8184
S1132BC04F81588569857A858B859C85F6DD0E94C1
S1132BD068200FB6F894DEBF0FBECDBFFC01818123
S1132BE0823009F066C6892D90E0F0E18F9E800D59
S1132BF0911D112482959295907F9827807F982724
S1132C00850D911D82959295907F9827807F9827B6
S1132C10840D911D0CDE62C68091650D8330B1F583
S1132C208091660D8A3091F5E3E6FDE0848165814B
S1132C309681478130852185A285038574855585D4
S1132C40623019F40E947E2049C610E0E0E1AE9F94
S1132C50000D111D112402951295107F1027007F7D
S1132C601027070F111D02951295107F1027007F62
S1132C701027050F111DF0E13F9F200D112430E1B5
S1132C80939F400D11240E94A02028C68091650DB9
S1132C90843041F58091660D811124C00E94682022
S1132CA08C0141E064E081E031DE9A838983F8019C
S1132CB081811F928F9386ED92E09F938F938981F8
S1132CC09A8199278150934F9F938F930E94432514
S1132CD0F9818F0FF7DD0F900F900F900F900F90E9
S1132CE00F90FCC58091650D853009F03DC0809141
S1132CF0660D8630C9F5E3E6FDE00681178120857F
S1132D002D83318539838481658170E040E1849F1E
S1132D10600D711D1124072E000C880B990B0E9465
S1132D206C22BCDD0E946820FC018181823009F0A4
S1132D30C2C5812F90E0F0E10F9F800D911D1124F9
S1132D4082959295907F9827807F98272D81820F76
S1132D50911D82959295907F9827807F982739813D
S1132D60830F911D64DDBAC58091650D863061F5D0
S1132D708091660D811128C01ADB8C0142E066E067
S1132D8081E0C4DD9A838983F80165817681878136
S1132D9090850E943E227F936F938DEC92E09F93E7
S1132DA08F9389819A8199278150934F9F938F9311
S1132DB00E944325F9818F0F85DD0F900F900F90AE
S1132DC00F900F900F908AC58091650D873009F0A0
S1132DD03DC08091660D8630C9F5E3E6FDE00681CD
S1132DE027812983108531853D838481658170E045
S1132DF040E1849F600D711D1124072E000C880B87
S1132E00990B0E946C2254DD0E946820FC01818190
S1132E10823009F052C5F9818F2F90E020E1029FA2
S1132E20800D911D112482959295907F9827807F23
S1132E309827810F911D82959295907F9827807F86
S1132E4098273D81830F911DF2DC48C58091650D63
S1132E50883061F58091660D811128C0A8DA8C0153
S1132E6042E068E081E052DD9A838983F801618160
S1132E707281838194810E943E227F936F938DECB3
S1132E8092E09F938F9389819A8199278150934FE0
S1132E909F938F930E944325F9818F0F13DD0F9029
S1132EA00F900F900F900F900F9018C58091650DA3
S1132EB0893051F48091660D813031F48091670D31
S1132EC00E940F2081E00AC58091650D8A3041F58A
S1132ED08091660D811124C00E9412208C0141E072
S1132EE06AE081E013DD9A838983F80181811F926E
S1132EF08F9386ED92E09F938F9389819A8199278E
S1132F008150934F9F938F930E944325F9818F0F94
S1132F10D9DC0F900F900F900F900F900F90DEC49C
S1132F208091650D8B3019F58091660D8430F9F42C
S1132F30E3E6FDE0448185813681278190E050E11C
S1132F40459F800D911D112482959295907F98271D
S1132F50807F9827830F911D82959295907F982763
S1132F60807F9827820F911D0E946B20B7C48091A7
S1132F70650D8C3029F58091660D811121C044E0E6
S1132F806CE081E0C3DC9A8389830E9479209F935B
S1132F908F938BED92E09F938F9389819A819927E8
S1132FA08150934F9F938F930E9443256981860F8D
S1132FB089DC0F900F900F900F900F900F908EC49C
S1132FC08091650D8D3079F48091660D823059F4CD
S1132FD0E3E6FDE094818581E0E19E9F800D11246C
S1132FE00E9483207BC48091650D8E3049F58091C9
S1132FF0660D811125C042E06EE081E087DC9A8392
S113300089830E942221282F082E000C330B3F9322
S11330108F938DEC92E09F938F9389819A81992766
S11330208150934F9F938F930E944325F9818F0F73
S113303049DC0F900F900F900F900F900F904EC49B
S11330408091650D8F3079F48091660D823059F44A
S1133050E3E6FDE09481858120E1929F800D1124B7
S11330600E9425213BC48091650D803149F58091F2
S1133070660D811125C042E060E181E047DC9A835E
S113308089830E942F21282F082E000C330B3F9395
S11330908F938DEC92E09F938F9389819A819927E6
S11330A08150934F9F938F930E9443253981830FBF
S11330B009DC0F900F900F900F900F900F900EC49B
S11330C08091650D813131F48091660D811102C0CA
S11330D0B7D704C483E08093F80C80E0FFC38091E9
S11330E0640D823009F002C18091650D811124C004
S11330F08091660D811120C042E060E082E006DC30
S11331009A838983ADD71F928F938DEC92E09F931E
S11331108F9389819A8199278150934F9F938F939D
S11331200E9443254981840FCDDB0F900F900F90AF
S11331300F900F900F90D2C38091650D813079F478
S11331408091660D823059F4E3E6FDE09481858137
S113315050E1959F800D11247FD781E0BFC38091FA
S1133160650D823009F045C08091660D811141C022
S11331704CE062E082E0CADB9A83898374D79F9330
S11331808F930BED12E01F930F9389819A819927F6
S11331908150934F9F938F930E9443256981680FB9
S11331A0698366D79F938F931F930F93E9818E2F23
S11331B090E08150934F9F938F930E944325F98110
S11331C0F80FF9835AD79F938F931F930F932981F5
S11331D0822F90E08150934F9F938F930E944325B9
S11331E03981830F6FDB0FB6F894DEBF0FBECDBFFE
S11331F075C38091650D833021F58091660D811131
S113320020C044E063E082E081DB9A8389832BD78A
S11332109F938F938BED92E09F938F9389819A81F3
S113322099278150934F9F938F930E9443255981EF
S1133230850F48DB0F900F900F900F900F900F9019
S11332404DC38091650D843021F58091660D811107
S113325020C044E064E082E059DB9A83898308D784
S11332609F938F938BED92E09F938F9389819A81A3
S113327099278150934F9F938F930E94432569818F
S1133280860F20DB0F900F900F900F900F900F90F0
S113329025C38091650D853021F58091660D8111DE
S11332A020C044E065E082E031DB9A838983E5D67F
S11332B09F938F938BED92E09F938F9389819A8153
S11332C099278150934F9F938F930E94432599810F
S11332D0890FF8DA0F900F900F900F900F900F90C6
S11332E0FDC283E08093F80C80E0F8C28091640D05
S11332F0833009F0E2C08091650D811124C0809172
S1133300660D811120C042E060E083E0FFDA9A8319
S11333108983CBD69F938F938DEC92E09F938F9369
S113332089819A8199278150934F9F938F930E940B
S11333304325E9818E0FC6DA0F900F900F900F90FE
S11333400F900F90CBC28091650D813081F48091F4
S1133350660D823061F4E3E6FDE094818581F0E15D
S11333609F9F800D112490E0A5D681E0B7C2809183
S1133370650D8230C1F58091660D811134C044E041
S113338062E083E0C3DA9A83898380E098D6992740
S11333909F938F930DEC12E01F930F9389819A8171
S11333A099278150934F9F938F930E94432529819E
S11333B0280F298381E083D699279F938F931F93A6
S11333C00F933981832F90E08150934F9F938F9374
S11333D00E9443254981840F75DA0FB6F894DEBF45
S11333E00FBECDBF7BC28091650D833021F58091E6
S11333F0660D811120C042E063E083E087DA9A839E
S1133400898340D69F938F938DEC92E09F938F9303
S113341089819A8199278150934F9F938F930E941A
S11334204325F9818F0F4EDA0F900F900F900F9074
S11334300F900F9053C28091650D843081F4809178
S1133440660D823061F4E3E6FDE09481858120E13C
S1133450929F800D112490E01AD681E03FC28091A2
S1133460650D853029F58091660D811121C044E0F8
S113347065E083E04BDA9A83898380E00DD69F93DD
S11334808F938BED92E09F938F9389819A819927F3
S11334908150934F9F938F930E9443253981830FCB
S11334A011DA0F900F900F900F900F900F9016C29B
S11334B083E08093F80C80E011C28091640D843025
S11334C009F0ABC18091650D811133C08091660D07
S11334D0823079F5E3E6FDE08481458150E1859F02
S11334E0400D11244983433108F0E9C143E060E011
S11334F084E00CDA8C0189810E941D0DFC0181811C
S11335001F928F931F92F981FF9380EE92E09F9315
S11335108F93C80199278150934F9F938F930E9453
S11335204325800FCFD90FB6F894DEBF0FBECDBFB1
S1133530D5C18091650D8130A9F48091660D8330E9
S113354089F4E3E6FDE09481858130E1939F800D69
S11335501124833108F0B5C16091690D0E94A20C59
S113356081E0BCC18091650D823009F03FC080913B
S1133570660D8230D9F5E3E6FDE08481458150E1B2
S1133580859F400D11244983433108F09CC1842F49
S11335900E941D0D7C0144E062E084E0B7D98C01F7
S11335A0F7018281938122853385821B930B6AE024
S11335B070E00E94F624CB0199279F938F931F926A
S11335C0F981FF9389EC92E09F938F93C801992727
S11335D08150934F9F938F930E944325800F72D9FC
S11335E00FB6F894DEBF0FBECDBF78C18091650DD4
S11335F0833009F047C08091660D883009F042C0DD
S1133600E3E6FDE08481358140E1849F300D11249F
S11336103983333108F059C1832F0E941D0DE3E62D
S1133620FDE036812781A08541857285638550E060
S1133630E0E1AE9F400D511D112442955295507FFB
S11336405427407F5427470F511D42955295507F70
S11336505427407F5427460F511DF0E13F9F200D12
S11336601124FC0182859385820F911D27FD9A9573
S11336702AE0289FB001299F700D112489810E949E
S11336805A0C2CC18091650D843009F03FC08091A3
S1133690660D8230D9F5E3E6FDE08481258130E1D1
S11336A0839F200D11242983233108F010C1822F18
S11336B00E941D0D7C0144E064E084E027D98C0164
S11336C0F7018481958122853385821B930B6AE0FF
S11336D070E00E94F624CB0199279F938F931F9249
S11336E0F981FF9389EC92E09F938F93C801992706
S11336F08150934F9F938F930E944325800FE2D86C
S11337000FB6F894DEBF0FBECDBFE8C08091650D43
S1133710863009F03FC08091660D8230D9F5E3E62A
S1133720FDE08481358140E1849F300D112439838B
S1133730333108F0CEC0832F0E941D0D7C0144E07C
S113374066E084E0E3D88C01F701808591852285C9
S11337503385821B930B6AE070E00E94F624CB0150
S113376099279F938F931F92F981FF9389EC92E09D
S11337709F938F93C80199278150934F9F938F9361
S11337800E944325800F9ED80FB6F894DEBF0FBE6B
S1133790CDBFA4C08091650D8830D1F58091660DB0
S11337A0811136C046E268E084E0B0D8E82E10E02B
S11337B00F2EFAE0CF2ED12CF02D812F0E941D0D5B
S11337C0FC012281338182859385A901481B590B11
S11337D0CA01B6010E94F62477277F936F938DEC7C
S11337E092E09F938F938E2D90E08150934F9F93FF
S11337F08F930E944325E80E1F5F0F900F900F9048
S11338000F900F900F901331C1F68E2D5BD866C0C8
S113381083E08093F80C80E061C08091640D853072
S1133820D1F58091650D8130E9F48091660D813187
S1133830C9F48091670D863008F04DC0E3E6FDE0E1
S1133840858186818781808581858285838584853C
S1133850858586858785808981898289838984890C
S113386081E03CC08091650D811110C08091660D8E
S1133870813061F48091670D863078F50E948F085D
S11338804DE060E085E042D81DD828C083E08093F5
S1133890F80C80E023C08091640D863029F483E025
S11338A08093F80C80E01AC082E08093F80C80E0EA
S11338B015C081E013C081E011C081E00FC080E039
S11338C00DC080E00BC080E009C080E007C080E04C
S11338D005C080E003C080E001C080E02E960FB6F2
S11338E0F894DEBF0FBECDBFDF91CF911F910F9132
S11338F0FF90EF90DF90CF90BF90AF909F908F900C
S11339007F906F905F904F903F902F90089510920A
S1133910990DE3E6FDE010828FEF818382831382A9
S113392080E090E0FC01ED59F24F1482019682335D
S11339309105C1F781E008952F923F924F925F92D3
S11339406F927F928F929F92AF92BF92CF92DF92AB
S1133950EF92FF920F931F93CF93DF931F92CDB7F4
S1133960DEB78091F90C0E94581090E090939B0D63
S113397080939A0D80919A0D90919B0D892B09F457
S1133980C3C100E010E0812C0F2EFAE07F2EF02D51
S11339900F2EFFE02F2EF02D0F2EFEE03F2EF02DE8
S11339A00F2EFDE04F2EF02D0F2EFCE05F2EF02D9C
S11339B00F2EFBE06F2EF02D0F2EF3E6EF2EFDE021
S11339C0FF2EF02D6894992493F80F2EF7E0AF2E74
S11339D0F02D0F2EF6E0BF2EF02D0F2EF5E0CF2E9A
S11339E0F02D6894DD24D2F88091F90C0E943410F3
S11339F0898389818E33B9F48091990D883099F047
S1133A0081E08093F80CEFEFFCE08BE480838FE49B
S1133A10818381E3828383E00E9462141092990D72
S1133A201092F70C71C1E091990D8E2F90E08930BE
S1133A30910508F05FC1FC01EA5BFF4F0C942B2554
S1133A4089818C3309F056C181E08093990D80926D
S1133A50F70C50C1E98180ED8E0F8A30C0F08E2FB3
S1133A6090E0FC01E154F109E632F10568F4E15B10
S1133A70FF4FF1C7862D0BC0852D09C0842D07C0CB
S1133A80832D05C0822D03C0882D01C0872DF70129
S1133A90808382E08093990D2DC1E98180ED8E0FA2
S1133AA08A30C0F08E2F90E0FC01E154F109E63237
S1133AB0F10568F4EB58FF4FCEC7862D0BC0852D5A
S1133AC009C0842D07C0832D05C0822D03C0882D15
S1133AD001C0872D8295807FF701818383E08093E5
S1133AE0990D08C1E98180ED8E0F8A30C0F08E2FC8
S1133AF090E0FC01E154F109E632F10568F4E55681
S1133B00FF4FA9C7862D0BC0852D09C0842D07C082
S1133B10832D05C0822D03C0882D01C0872DF70198
S1133B209181890F8183D092990DE4C0E98180ED60
S1133B308E0F8A30C0F08E2F90E0FC01E154F10921
S1133B40E632F10568F4EF53FF4F85C7862D0BC0AD
S1133B50852D09C0842D07C0832D05C0822D03C087
S1133B60882D01C0872D8295807FF7018283C092C2
S1133B70990DC0C0E98180ED8E0F8A30C0F08E2F80
S1133B8090E0FC01E154F109E632F10568F4E951F1
S1133B90FF4F61C7862D0BC0852D09C0842D07C03A
S1133BA0832D05C0822D03C0882D01C0872DF70108
S1133BB09281890F8283B092990D9CC0E98180ED36
S1133BC08E0F8A30C0F08E2F90E0FC01E154F10991
S1133BD0E632F10568F4E35FFE4F3DC7862D0BC066
S1133BE0852D09C0842D07C0832D05C0822D03C0F7
S1133BF0882D01C0872D8295807FF7018383A09251
S1133C00990D78C0E98180ED8E0F8A30C0F08E2F37
S1133C1090E0FC01E154F109E632F10568F4ED5C51
S1133C20FE4F19C7862D0BC0852D09C0842D07C0F2
S1133C30832D05C0822D03C0882D01C0872DF70177
S1133C409381890F83839092990D54C089818E3317
S1133C5049F51092990D9091660D8091F70C981387
S1133C600EC00E94A214882379F0EFEFFCE08FE4E9
S1133C7080838BE4818382E00E94621445C081E0EA
S1133C808093F80C1092F70CEFEFFCE08BE4808348
S1133C908FE481838091F80C805D828383E00E94AD
S1133CA0621432C04091F70C242F30E0E98180ED9A
S1133CB08E0F8A30C0F08E2F90E0FC01E154F109A0
S1133CC0E632F10568F4E75AFE4FC5C6862D0BC0EF
S1133CD0852D09C0842D07C0832D05C0822D03C006
S1133CE0882D01C0872DF901ED59F24F84834F5F70
S1133CF04093F70C0F5F1F4F80919A0D90919B0D8D
S1133D000817190708F470CE8091FA0C813009F075
S1133D103FC08091990D81113BC00E94800D00919C
S1133D20FB0C1091FC0C2091FD0C3091FE0CDC017D
S1133D30CB01801B910BA20BB30B8B3F9105A1050B
S1133D40B10530F103E61DE084E0F801818388E0E9
S1133D50828313820E94A2140F2EF3E0FF2EF02D13
S1133D60F801F18282E0828313820E94A214F80196
S1133D70F18285E0828313820E94A2140E94800D46
S1133D806093FB0C7093FC0C8093FD0C9093FE0CE1
S1133D900F90DF91CF911F910F91FF90EF90DF90E3
S1133DA0CF90BF90AF909F908F907F906F905F90D7
S1133DB04F903F902F9008954F925F926F927F9211
S1133DC08F929F92AF92BF92CF92DF92EF92FF9227
S1133DD00F931F93CF93DF9380910A01882309F4F3
S1133DE070C0C0E0D1E00F2EF8E0CF2EF1E0DF2E5E
S1133DF0F02D0E945E0D4B015C01D13069F4D601B7
S1133E00ED91FC91B7E0CB9FE00DF11D11240180F1
S1133E10F281E02D0995D82FE7E0CE9F800111248F
S1133E20D601ED90FC90E00EF11E0E945E0DDC01C7
S1133E30CB0188199909AA09BB09F70183839483E3
S1133E40A583B683D6018D919C911197FC01E00F57
S1133E50F11FC083CF5F12968C91C81750F232C005
S1133E600E945E0D2B013C01D13039F4D60111962C
S1133E70ED91FC9112970995D82FD5011396ED91E8
S1133E80FC911497E00FF11FC0831396ED90FC9002
S1133E901497E00EF11E0E945E0DDC01CB01841923
S1133EA09509A609B709F70185839683A783B08787
S1133EB0CF5F035F1F4FFDE0CF0ED11CC23081F6F0
S1133EC011C0D1E00F2EF6E1CF2EF1E0DF2EF02D60
S1133ED000E010E0C0E00F2EF8E0AF2EF1E0BF2EBE
S1133EE0F02DBECF0E94FF0D8D2FDF91CF911F913A
S1133EF00F91FF90EF90DF90CF90BF90AF909F9085
S1133F008F907F906F905F904F9008956F927F9203
S1133F108F929F92AF92BF92CF92DF92EF92FF92D5
S1133F200F931F93CF93DF930E945E0D4B015C01AF
S1133F30C0E0D0E008E011E00E945E0D6B017C015E
S1133F40D8011396ED91FC911497EC0FFD1F03809B
S1133F50F481E02D09950E94B10CF801638074800E
S1133F606C0E7D1E0E945E0DDC01CB018C199D0937
S1133F70AE09BF09F30185839683A783B087D8016F
S1133F801396ED91FC911497EC0FFD1F458156811A
S1133F906781708581859285A385B485841795078B
S1133FA0A607B70710F4DB01CA0181879287A387AC
S1133FB0B4872D96CA31D10509F0BECF0E945E0D9B
S1133FC0DC01CB0188199909AA09BB0980930E0168
S1133FD090930F01A0931001B0931101E8E0F1E078
S1133FE00285138524853585081719072A073B0799
S1133FF010F48C019D01028713872487358781E0A3
S1134000DF91CF911F910F91FF90EF90DF90CF90B0
S1134010BF90AF909F908F907F906F900895809302
S1134020920E089581E99EE0089520919C0D22232B
S113403031F0AC0168E17CEF82E10C945A0C0895F4
S113404080919C0D882339F081E080939E0D80ED52
S113405097E0EBDF81E008958093B80D81E0089547
S11340608091B80D08958091B90D9091BA0D08957D
S11340708091BB0D9091BC0D08958091BD0D9091E0
S1134080BE0D08958091990E90919A0E0895909383
S11340909A0E8093990E0895E82FF0E0EE0FFF1F1B
S11340A0E156F14F8081918108958091970E90910E
S11340B0980E08959093980E8093970E0895E82F84
S11340C0F0E0EE0FFF1FE556F14F808191810895D6
S11340D086EA9EE008959C012A5F31092F3B3A400D
S11340E030F49093AB0E8093AA0E81E0089580E0A3
S11340F008958091AA0E9091AB0E089582E080936A
S1134100A70E81E00895CF93C82F682F880F770BEF
S113411077231CF4719561957109072E000C880BA7
S1134120990BDAD120E030E040E252E436D118169F
S113413024F0C093A80E81E001C080E0CF910895DF
S1134140FF920F931F93CF93DF93C82FD62F842F03
S1134150F22ED9DFE6EAFEE0F38281818D1305C0F9
S11341608091A60E8C1362C05CC0E6EAFEE0D183A7
S1134170158304838081C81709F45DC0C093A60E1B
S1134180C11119C08BEC91E0EEEAFEE0ACEBBEE0AD
S11341902AEB3EE0819391931D920496E217F30774
S11341A0C9F7E6EAFEE084E0858B148A82E090E0B9
S11341B0958F848F40C0C130C9F483E891E0EEEA62
S11341C0FEE0ACEBBEE02AEB3EE0819391931D92BE
S11341D00C96E217F307C9F7E6EAFEE08CE0858B5C
S11341E0148A8AE090E0958F848F25C0C23019F537
S11341F083E591E0EEEAFEE0ACEBBEE02AEB3EE0C4
S1134200819391931D920896E217F307C9F7E6EAA2
S1134210FEE088E0858B148A86E090E0958F848F99
S11342200AC01093AB0E0093AA0E05C01093AB0EF8
S11342300093AA0EA3CF81E0DF91CF911F910F913C
S1134240FF9008958091A80E08959AE5980F953BE4
S113425020F48093A90E81E0089580E00895809170
S1134260A90E08959F939F7785D10F9000203AF46B
S11342709058A2EA2AED3FE049E450E413D046C244
S11342805058BB27AA270ED041C20AD230F00FD211
S113429020F031F49F3F11F41EF4DAC10EF4E095DE
S11342A0E7FBA7C1E92F43D280F3BA17620773076C
S11342B08407950718F071F49EF572C20EF4E09528
S11342C00B2EBA2FA02D0B01B90190010C01CA01CC
S11342D0A0011124FF27591B99F0593F50F4503E77
S11342E068F11A16F040A22F232F342F4427585F69
S11342F0F3CF469537952795A795F0405395C9F781
S11343007EF41F16BA0B620B730B840BBAF0915038
S1134310A1F0FF0FBB1F661F771F881FC2F70EC0D7
S1134320BA0F621F731F841F48F4879577956795AA
S1134330B795F7959E3F08F0B3CF9395880F08F093
S11343409927EE0F979587950895DF93DD27B92F69
S1134350BF7740E85FE31616170648075B0710F4BB
S1134360D92F29D29F938F937F936F93F0D2EEEF3F
S1134370F2E071D1CBD12F913F914F915F912ED229
S1134380DD2349F09058A2EA2AED3FE049EC5FE3CF
S1134390D0785D2787DFDF91B9C107D108F481E0C8
S11343A008950CD0B3C183D140F07AD130F021F418
S11343B05F3F19F01EC15111F4C14AC1B8D198F33D
S11343C09923C9F35523B1F3951B550BBB27AA2792
S11343D062177307840738F09F5F5F4F220F331F04
S11343E0441FAA1FA9F333D00E2E3AF0E0E830D0D0
S11343F091505040E695001CCAF729D0FE2F27D0D3
S1134400660F771F881FBB1F261737074807AB07A0
S1134410B0E809F0BB0B802DBF01FF2793585F4F15
S11344202AF09E3F510568F0E4C0BBC15F3FECF346
S1134430983EDCF3869577956795B795F7959F5FDA
S1134440C9F7880F911D9695879597F90895E1E02E
S1134450660F771F881FBB1F621773078407BA078D
S113446020F0621B730B840BBA0BEE1F88F7E095E8
S1134470089504D06894B11194C1089560D188F06E
S11344809F5790F0B92F9927B751A0F0D1F0660F3C
S1134490771F881F991F1AF0BA95C9F712C0B13057
S11344A081F07ED1B1E008957BC1672F782F8827F2
S11344B0B85F39F0B93FCCF3869577956795B39596
S11344C0D9F73EF490958095709561957F4F8F4F05
S11344D09F4F0895E89409C097FB3EF4909580950A
S11344E0709561957F4F8F4F9F4F9923A9F0F92FB6
S11344F096E9BB279395F695879577956795B79534
S1134500F111F8CFFAF4BB0F11F460FF1BC06F5F19
S11345107F4F8F4F9F4F16C0882311F096E911C02B
S1134520772321F09EE8872F762F05C0662371F04C
S113453096E8862F70E060E02AF09A95660F771F60
S1134540881FDAF7880F9695879597F9089511D102
S113455080F09F3740F491110EF023C160E070E0C9
S113456080E89FEB089526F41B16611D711D811DC3
S113457046C060C0DF93CF931F930F938B01EC0170
S1134580EBE2F3E068D0C2D09801AE018B01EC01FC
S113459060E070E080E89FE373DE9BD19801AE0198
S11345A00F911F91CF91DF9119C1990F0008550FF9
S11345B0AA0BE0E8FEEF16161706E807F907C0F0A5
S11345C012161306E407F50798F0621B730B840BAD
S11345D0950B39F40A2661F0232B242B252B21F487
S11345E008950A2609F4A140A6958FEF811D811D27
S11345F0089597F99F6780E870E060E00895882344
S113460071F4772321F09850872B762F07C0662307
S113461011F499270DC09051862B70E060E02AF0C8
S11346209A95660F771F881FDAF7880F96958795F6
S113463097F908959F3F31F0915020F4879577952D
S11346406795B795880F911D9695879597F9089565
S11346509FEF80EC0895DF93CF931F930F93FF9206
S1134660EF92DF927B018C01689405C0DA2EEF0192
S1134670B5D0FE01E894A5912591359145915591C8
S1134680AEF3EF010FDEFE019701A801DA9479F78A
S1134690DF90EF90FF900F911F91CF91DF910895DC
S11346A000240A941616170618060906089500240D
S11346B00A9412161306140605060895C9CF3FD0AE
S11346C0E8F3E894E0E0BB279F57F0F02AED3FE0E1
S11346D049EC06C0EE0FBB0F661F771F881F28F03A
S11346E0B23A62077307840728F0B25A620B730B5D
S11346F0840BE3959A9572F7803830F49A95BB0F42
S1134700661F771F881FD2F7904896CF092E03940F
S1134710000C11F4882352F0BB0F40F4BF2B11F4AA
S113472060FF04C06F5F7F4F8F4F9F4F089557FD09
S11347309058440F551F59F05F3F71F04795880F0B
S113474097FB991F61F09F3F79F0879508951216A2
S113475013061406551FF2CF4695F1DF08C016164E
S113476017061806991FF1CF8695710561050894FF
S11347700895E5DFA0F0BEE7B91788F4BB279F389A
S113478060F41616B11D672F782F8827985FF7CF2E
S1134790869577956795B11D93959639C8F30895D5
S11347A0E894BB2766277727CB0197F90895FDDEA8
S11347B008F48FEF08959B01AC0160E070E080E89D
S11347C09FE3EFCD0BD0A2CF6BDF28F070DF18F0A2
S11347D0952309F00ECF3CCF1124E3CFA8DFA0F33B
S11347E0959FD1F3950F50E0551F629FF001729F82
S11347F0BB27F00DB11D639FAA27F00DB11DAA1FA1
S1134800649F6627B00DA11D661F829F2227B00DED
S1134810A11D621F739FB00DA11D621F839FA00D78
S1134820611D221F749F3327A00D611D231F849FC8
S1134830600D211D822F762F6A2F11249F5750401F
S11348408AF0E1F088234AF0EE0FFF1FBB1F661FBA
S1134850771F881F91505040A9F79E3F510570F073
S1134860C8CE9FCF5F3FECF3983EDCF386957795F7
S11348706795B795F795E7959F5FC1F7FE2B880F6E
S1134880911D9695879597F9089559DFE0F09E3725
S1134890D8F09639B8F49E3848F4672F782F8827D3
S11348A0985FF9CF86957795679593959539D0F369
S11348B0B62FB1706B0F711D811D20F4879577950C
S11348C0679593959CCEB6CE6CCF11F40EF4C0CE02
S11348D0B1CE35DFD0F39923D9F3CEF39F57550BDF
S11348E087FF58D00024A0E640EA900180585695EE
S11348F0979528F4805C660F771F881F20F0261791
S11349003707480730F4621B730B840B20293129C5
S11349104A2BA69517940794202531254A2758F742
S1134920660F771F881F20F026173707480730F4D3
S1134930620B730B840B200D311D411DA09581F773
S1134940B901842F9158880F9695879508959B01F6
S1134950AC0138CFDF93D92FB2DEE695D7952AED97
S11349603FE049E45FE3B33A6207730784079507BE
S1134970D7952AF0A2EA49EC906894DCC7DEE3E517
S1134980F3E00FD0DD0F0BF016DFDD0F0BF49058C2
S1134990DF91089591505040660F771F881FD2F71A
S11349A008959F938F937F936F93FF93EF939B014E
S11349B0AC0108DFEF91FF914EDE2F913F914F91B3
S11349C05F9100CFAA1BBB1B51E107C0AA1FBB1FED
S11349D0A617B70710F0A61BB70B881F991F5A9587
S11349E0A9F780959095BC01CD01089597FB072EFA
S11349F016F4009406D077FD08D0E4DF07FC05D058
S1134A003EF4909581959F4F0895709561957F4FE1
S1134A100895A1E21A2EAA1BBB1BFD010DC0AA1FFB
S1134A20BB1FEE1FFF1FA217B307E407F50720F013
S1134A30A21BB30BE40BF50B661F771F881F991F8E
S1134A401A9469F760957095809590959B01AC01D7
S1134A50BD01CF010895EE0FFF1F0024001C0BBE03
S1134A600790F691E02D0994A29FB001B39FC00175
S1134A70A39F700D811D1124911DB29F700D811D86
S1134A801124911D08950F931F93CF93DF93CDB7F6
S1134A90DEB72E970FB6F894DEBF0FBECDBF0D89DB
S1134AA01E8986E08C831A8309838FEF9FE79E8398
S1134AB08D83AE01475E5F4F6F89788DCE0101967D
S1134AC010D0EF81F885E00FF11F10822E960FB6FB
S1134AD0F894DEBF0FBECDBFDF91CF911F910F9130
S1134AE008952F923F924F925F926F927F928F928E
S1134AF09F92AF92BF92CF92DF92EF92FF920F9369
S1134B001F93CF93DF93CDB7DEB72B970FB6F894EF
S1134B10DEBF0FBECDBF6C017B018A01FC01178291
S1134B201682838181FFBFC1CE0101963C01F6014B
S1134B309381F70193FD859193FF81917F018823F0
S1134B4009F4ADC1853239F493FD859193FF8191C8
S1134B507F01853221F4B60190E0D6D1E8CF912CC3
S1134B60212C312CFFE1F315D8F08B3279F038F495
S1134B70803279F08332A1F4232D20611DC08D325F
S1134B8061F0803369F4232D216016C0832D826087
S1134B90382EE32DE4603E2E2AC0F32DF8601DC0AC
S1134BA037FC2DC020ED280F2A3040F08E32B9F4A6
S1134BB036FC75C1232D2064322E19C036FE06C082
S1134BC08AE0989E200D1124922E11C0EAE02E9EB8
S1134BD0200D1124222EF32DF0623F2E08C08C36B6
S1134BE021F4832D8068382E02C0883641F4F70101
S1134BF093FD859193FF81917F018111B3CF982F0C
S1134C009F7D9554933028F40C5F1F4F9FE3998345
S1134C100DC0833631F0833771F0833509F055C008
S1134C2020C0F801808189830E5F1F4F88248394FC
S1134C30912C530112C02801F2E04F0E511CF801CF
S1134C40A080B18036FE03C0692D70E002C06FEF12
S1134C507FEFC5014ED14C018201F32DFF773F2E2A
S1134C6015C0280122E0420E511CF801A080B18039
S1134C7036FE03C0692D70E002C06FEF7FEFC501FF
S1134C802DD14C01F32DF0683F2E820133FC19C065
S1134C90822D90E088169906A0F4B60180E290E097
S1134CA033D12A94F5CFF50137FC859137FE8191F4
S1134CB05F01B60190E028D121102A9421E0821AE4
S1134CC091088114910479F7E1C0843611F0893692
S1134CD039F5F80137FE07C06081718182819381C3
S1134CE00C5F1F4F08C060817181072E000C880B78
S1134CF0990B0E5F1F4FF32DFF763F2E97FF09C0D0
S1134D0090958095709561957F4F8F4F9F4FF06878
S1134D103F2E2AE030E0A30133D1882E861844C008
S1134D20853731F4232D2F7EB22E2AE030E025C0C2
S1134D30932D997FB92E8F36C1F018F4883579F008
S1134D40AEC0803719F0883721F0A9C0E92FE0619F
S1134D50BE2EB4FE0DC0FB2DF460BF2E09C034FE80
S1134D600AC0292F2660B22E06C028E030E005C014
S1134D7020E130E002C020E132E0F801B7FE07C0D4
S1134D8060817181828193810C5F1F4F06C06081B5
S1134D90718180E090E00E5F1F4FA301F1D0882E57
S1134DA08618FB2DFF773F2E36FE0DC0232D2E7F58
S1134DB0A22E891458F434FE0BC032FC09C0832D92
S1134DC08E7EA82E05C0B82CA32C03C0B82C01C01D
S1134DD0B92CA4FE0FC0FE01E80DF11D80818033C3
S1134DE021F49A2D997EA92E09C0A2FE06C0B3947F
S1134DF0B39404C08A2D867809F0B394A3FC10C040
S1134E00A0FE06C0B21480F4280C922C9B180DC08E
S1134E10B21458F4B60180E290E076D0B394F8CF9F
S1134E20B21418F42B1802C0982C212CA4FE0FC025
S1134E30B60180E390E068D0A2FE16C0A1FC03C0D6
S1134E4088E790E002C088E590E0B6010CC08A2DA6
S1134E50867851F0A1FE02C08BE201C080E2A7FC7B
S1134E608DE2B60190E050D0891430F4B60180E3AD
S1134E7090E04AD09A94F8CF8A94F301E80DF11D9A
S1134E808081B60190E040D08110F6CF222009F451
S1134E904ECEB60180E290E037D02A94F7CFF601E7
S1134EA08681978102C08FEF9FEF2B960FB6F894FF
S1134EB0DEBF0FBECDBFDF91CF911F910F91FF9049
S1134EC0EF90DF90CF90BF90AF909F908F907F90A6
S1134ED06F905F904F903F902F900895FC01059044
S1134EE0615070400110D8F7809590958E0F9F1FE8
S1134EF00895FC016150704001900110D8F780952D
S1134F0090958E0F9F1F08950F931F93CF93DF9358
S1134F10FB01238121FD03C08FEF9FEF2CC022FFF3
S1134F2016C046815781248135814217530744F4C2
S1134F30A081B1819D012F5F3F4F318320838C93EA
S1134F40268137812F5F3F4F3783268314C08B011F
S1134F50EC01FB010084F185E02D0995892BE1F634
S1134F60D80116968D919C911797019617969C934C
S1134F708E931697CE01DF91CF911F910F910895D3
S1134F80FA01AA27283051F1203181F1E8946F9376
S1134F906E7F6E5F7F4F8F4F9F4FAF4FB1E03ED01C
S1134FA0B4E03CD0670F781F891F9A1FA11D680FBA
S1134FB0791F8A1F911DA11D6A0F711D811D911DED
S1134FC0A11D20D009F468943F912AE0269F112462
S1134FD03019305D3193DEF6CF010895462F4770C6
S1134FE0405D4193B3E00FD0C9F7F6CF462F4F7021
S1134FF0405D4A3318F0495D31FD4052419302D07F
S1135000A9F7EACFB4E0A695979587957795679524
S1135010BA95C9F700976105710508959B01AC0124
S11350200A2E06945795479537952795BA95C9F74B
S1135030620F731F841F951FA01D0895F999FECF59
S113504092BD81BDF89A992780B50895262FF999C4
S1135050FECF1FBA92BD81BD20BD0FB6F894FA9A57
S10F5060F99A0FBE01960895F894FFCF52
S113506C0204101118190000300105160102000089
S113507C00000000000000871C9C1C0000000000C5
S113508C0000000149118211000000000000000022
S113509C003E0D0000000001CC0D00000000027D5C
S11350AC030000000003E20F00000000048B0E005C
S11350BC0000002F5F5F5F5F5F5F5C5F5C2F5F5F73
S11350CC5F5F5F5F5F5F5C2F5F5F5F5F5F5F5C2F46
S11350DC5F5F5F5F5F5F5F5F5C2F5F2F5F5F5F5F33
S11350EC5F5F5C2F5F5F5F5F5F5F5F5F5F5F5C5FF6
S11350FC5C2F5F5F5F5F5F5F5F5F5F5F5F5F5C2F16
S113510C5F5F5F5F5F5F5F5F5F5F5F5F5C2F5F5FD2
S113511C5F5F5F5F5F5F5F5F5F5F5C2F5F5F5F5FC2
S113512C5F5F5F5F5F5F5F5F5C2F5F2F5F5F5C5FE5
S113513C5C2F5F2F5F5F5C5F5C2F5F2F5F5F5C5F3B
S113514C5C2F5F220021002000002200210020009F
S113515C0122002100200002220021002000032251
S113516C002100200004220021002000052200213F
S113517C0020000622002100200007250024002323
S113518C0000250024002300012500240023000234
S113519C25002400230003250024002300042500FB
S11351AC24002300052500240023000625002400E8
S11351BC23000728002700260000280027002600CB
S11351CC01280027002600022800270026000328B7
S11351DC00270026000428002700260005280027A5
S11351EC00260006280027002600072B002A002989
S11351FC00002B002A002900012B002A00290002A0
S113520C2B002A002900032B002A002900042B0060
S113521C2A002900052B002A002900062B002A004D
S113522C2900072564253032582530325825303270
S113523C5800253031582530315800253034580069
S10D524C2530325825303158000097
S9030000FC
