:10000000BAC10000D7C10000D5C10000D3C10000B3
:100010009FC20000CFC10000CDC10000CBC10000D5
:10002000C9C100000C94770DC5C10000C3C1000018
:10003000C1C10000BFC10000BDC10000BBC10000C4
:10004000B9C10000B7C100000C940D0D0C94950CC3
:100050000C94CD0F0C94F30F0C942310ABC1000043
:10006000A9C10000A7C10000A5C10000A3C10000F4
:100070000C942D100C9453100C9483109BC1000011
:1000800099C1000097C1000095C10000151D1F1DFA
:10009000421D671D8B1DAF1DD31DF71D1B1E3B1D74
:1000A0002F1D311D331D351D371D391D391D391DBE
:1000B000391D391D391D391D391D391D391D391D90
:1000C000391D391D391D391D391D391D391D391D80
:1000D000391D391D391D391D391D391D391D3B1D6E
:1000E0002F1D311D331D351D371D5E1D521D541D25
:1000F000561D581D5A1D5C1D5C1D5C1D5C1D5C1D44
:100100005C1D5C1D5C1D5C1D5C1D5C1D5C1D5C1D27
:100110005C1D5C1D5C1D5C1D5C1D5C1D5C1D5C1D17
:100120005C1D5C1D5C1D5C1D5C1D5E1D521D541D17
:10013000561D581D5A1D831D771D791D7B1D7D1D64
:100140007F1D811D811D811D811D811D811D811DC1
:10015000811D811D811D811D811D811D811D811DAF
:10016000811D811D811D811D811D811D811D811D9F
:10017000811D811D811D831D771D791D7B1D7D1DA9
:100180007F1DA71D9B1D9D1D9F1DA11DA31DA51DA1
:10019000A51DA51DA51DA51DA51DA51DA51DA51D4F
:1001A000A51DA51DA51DA51DA51DA51DA51DA51D3F
:1001B000A51DA51DA51DA51DA51DA51DA51DA51D2F
:1001C000A51DA71D9B1D9D1D9F1DA11DA31DCB1D15
:1001D000BF1DC11DC31DC51DC71DC91DC91DC91D0D
:1001E000C91DC91DC91DC91DC91DC91DC91DC91DDF
:1001F000C91DC91DC91DC91DC91DC91DC91DC91DCF
:10020000C91DC91DC91DC91DC91DC91DC91DCB1DBC
:10021000BF1DC11DC31DC51DC71DEF1DE31DE51D70
:10022000E71DE91DEB1DED1DED1DED1DED1DED1D8A
:10023000ED1DED1DED1DED1DED1DED1DED1DED1D6E
:10024000ED1DED1DED1DED1DED1DED1DED1DED1D5E
:10025000ED1DED1DED1DED1DED1DEF1DE31DE51D5E
:10026000E71DE91DEB1D131E071E091E0B1E0D1EAB
:100270000F1E111E111E111E111E111E111E111E08
:10028000111E111E111E111E111E111E111E111EF6
:10029000111E111E111E111E111E111E111E111EE6
:1002A000111E111E111E131E071E091E0B1E0D1EF0
:1002B0000F1E671E5B1E5D1E5F1E611E631E651E98
:1002C000651E651E651E651E651E651E651E651E16
:1002D000651E651E651E651E651E651E651E651E06
:1002E000651E651E651E651E651E651E651E651EF6
:1002F000651E671E5B1E5D1E5F1E611E631E084A33
:10030000D73B3BCE016E84BCBFFDC12F3D6C743129
:100310009ABD56833DDA3D00C77F11BED9E4BB4C80
:100320003E916BAAAABE000000803F072C7AA5BAB6
:100330006CC590DA3B9365FC8BBC53F810FD3C56C2
:1003400092834DBD879D3AB63DCBC9BF5BBE73DA84
:100350000FC93F0664EC1B3C04BC163E3BE5B93CB0
:10036000C93C37C29E5A3D660498083EEA69AAAA6B
:100370003E000000803F11241FBECFEFD0E4DEBF5F
:10038000CDBF12E0A0E0B1E0E6E5F0E500E00BBF94
:1003900002C007900D92AA3EB107D9F72FE0AAEE4E
:1003A000B2E001C01D92A834B207E1F70E948D109F
:1003B0000C94292825CE40E860E00C947A0E08952C
:1003C0006031B0F421E030E0803411F420E030E01E
:1003D000C90182959295907F9827807F9827860FF4
:1003E000911D880F991F880F991F8350924F089570
:1003F00080E090E00895262F220F220F41E050E088
:10040000803411F440E050E000245695479507945D
:10041000569547950794542F402D4350524F66E010
:100420000C94CA0E0895CF92DF92EF92FF921F9321
:10043000CF93DF931F92CDB7DEB7182F6A017B01F0
:1004400020E030E071E060E0B0E0A0E040E050E1AA
:10045000872F962F103411F48B2F9A2FFC01E295E1
:10046000F295F07FFE27E07FFE27E20FF31FEE0FED
:10047000FF1FEE0FFF1FE350F24F118210825383D4
:1004800042832F5F3F4F2031310511F7812F93DFDA
:1004900026E636E646E65FE3C701B6010E94D723AB
:1004A0009B01AC0160E27CEB8EEB95E40E94C621DF
:1004B00020E030E040E85FE30E94352120E030E0BA
:1004C00040E05FE30E9436210E949C226B017C0188
:1004D0001982AE014F5F5F4F60E0812F0E940B0ECB
:1004E00049814F76406160E0812F0E947A0EC701FA
:1004F000B6010E943322462F6EEF812F0E947A0EA2
:10050000498160E0812F0E947A0E81E090E00E9494
:10051000060D4981406A60E0812F0E947A0EAE018B
:100520004F5F5F4F61E0812F0E940B0E4981446055
:1005300061E0812F0E947A0E60E1812F5CDF0F90D5
:10054000DF91CF911F91FF90EF90DF90CF900895B2
:100550001F920F920FB60F9211240BB60F923F927B
:100560004F925F926F927F928F929F92AF92BF92C3
:10057000CF92DF92EF92FF920F931F932F933F93AF
:100580004F935F936F937F938F939F93AF93BF939B
:10059000CF93DF93EF93FF930F2EF0E08F2EF1E0D8
:1005A0009F2EF02D0F2EFDE7EF2EFEE0FF2EF02DFB
:1005B0000F2EFAEECF2EF2E0DF2EF02D00E010E04D
:1005C0000F2EFAE34F2E512C612C712CF02D6894D4
:1005D000332431F8E801F40181914F01D8D057015B
:1005E000F70181937F010E94C40CF5012081213025
:1005F000B1F4F801E650FD4F2081213009F040C0F0
:10060000F801EE0FFF1FEE0FFF1FEE50FD4F60834E
:10061000718382839383C650DD4F388231C0F801E5
:10062000EE0FFF1FEE0FFF1FEE50FD4F20813181B7
:1006300042815381621B730B840B950B6035F3EC85
:100640007F078105910538F4A30192010E94FE24E1
:10065000F60131832083FE01E650FD4F1082FE013A
:10066000EE0FFF1FE251FD4F11821082CC0FDD1FF4
:10067000CC0FDD1FCE50DD4F188219821A821B82EB
:100680000F5F1F4FF2E0CF0ED11C0230110509F0B1
:10069000A1CFFF91EF91DF91CF91BF91AF919F914A
:1006A0008F917F916F915F914F913F912F911F910A
:1006B0000F91FF90EF90DF90CF90BF90AF909F9001
:1006C0008F907F906F905F904F903F900F900BBEF8
:1006D0000F900FBE0F901F90189580E090E00E9441
:1006E000132891E08F3F09F490E0892F089561E08D
:1006F00080E090E00C941B280895EFDF81110BC07F
:1007000061E081E090E00E941B2861E082E090E0DF
:100710000E941B28ECDF81E008958032A8F497E066
:10072000899FF0011124ED51FE4FA281B3812C91DC
:1007300081E090E0068002C0880F991F0A94E2F7DA
:10074000822B8C9381E0089580E008958032E8F454
:1007500097E0899FF0011124ED51FE4FA281B381F2
:100760002C9181E090E0068002C0880F991F0A94C6
:10077000E2F78095922F98239C930190F081E02DD1
:1007800090818923808381E0089580E0089527E0A7
:10079000829FC0011124FC01ED51FE4FA481B5815F
:1007A0008C9190E0068002C0959587950A94E2F7B7
:1007B000817008952F923F924F925F926F927F9235
:1007C0008F929F92AF92BF92CF92DF92EF92FF9261
:1007D0000F931F93CF93DF93CDB7DEB766970FB616
:1007E000F894DEBF0FBECDBFE982FA820B831C8373
:1007F0002D833E834F83588769877A878B879C87B1
:10080000860115019E8A8D8A20E030E0A901698168
:100810007A818B819C810E9436214B015C0120E012
:1008200030E048EE51E46D817E818F8198850E9491
:1008300036212B013C0120E030E040E252E46985A2
:100840007A858B859C850E9436216D877E878F8770
:10085000988BA5019401C501B4010E94D7236B01B7
:100860007C01A3019201C301B2010E94D723698BCD
:100870007A8B8B8B9C8B29893A894B895C89C70140
:10088000B6010E9436210E945E246B017C01A30107
:100890009201C501B4010E94C6210E949A212B0138
:1008A0003C0120E030E048EE51E4C701B6010E946F
:1008B00035216B017C019B01AC010E94D723698B20
:1008C0007A8B8B8B9C8B2D853E854F855889CA01F1
:1008D000B9010E94D7234B015C01A7019601C70112
:1008E000B6010E94D7236B017C01A5019401C701C9
:1008F000B6010E9436210E945E246B017C019B019F
:10090000AC010E94D7234B015C019B01AC0160E06C
:1009100074E882EB96E40E94352120E034E046EA58
:1009200056E40E94C6210E942721698B7A8B8B8B0B
:100930009C8BA70196016D857E858F8598890E9485
:10094000C6210E9427216D877E878F87988B20E0A4
:1009500038EC41EE55E4C501B4010E94362120E097
:1009600034E244E756E40E9435214B015C0120E06B
:1009700030E04AE253E4C701B6010E94D7239B014D
:10098000AC01C501B4010E94C6210E9427214B0180
:100990005C0120E030E044E353E4C301B2010E9473
:1009A000D7236B017C01A50194016D857E858F8520
:1009B00098890E94362120E030E044E353E40E940D
:1009C000D7234B015C0120E030E044E353E4698924
:1009D0007A898B899C890E94D7232B013C012BEDBE
:1009E0003FE049E450E4C701B6010E94C62120E07F
:1009F00030E040E251E40E94D723F8016083718324
:100A0000828393832BED3FE049E450E4C501B401B8
:100A10000E94C62120E030E040E251E40E94D7234A
:100A2000F10160837183828393832BED3FE049E47E
:100A300050E4C301B2010E94C62120E030E040E250
:100A400051E40E94D723ED89FE89608371838283FC
:100A5000938381E066960FB6F894DEBF0FBECDBFDC
:100A6000DF91CF911F910F91FF90EF90DF90CF908A
:100A7000BF90AF909F908F907F906F905F904F90BE
:100A80003F902F9008952F923F924F925F926F92D6
:100A90007F928F929F92AF92BF92CF92DF92EF920E
:100AA000FF920F931F93CF93DF93CDB7DEB72897B5
:100AB0000FB6F894DEBF0FBECDBF863008F0F1C090
:100AC000A82FB0E0B887AF83BAE28B9FF001112462
:100AD000EF5FFC4F9381913009F0E5C09AE2AF815E
:100AE000B8859A9FF0019B9FF00D1124EF5FFC4F9A
:100AF0009281913009F0D9C0BA82A982CB82DC827E
:100B0000ED82FE8248015901182F082F000F080FAF
:100B1000CC24C394C00E6894DD24D1F8D00ECB0150
:100B2000BA010E943A240E942E222B013C011B0193
:100B3000C501B4010E943A240E942E224B015C019F
:100B40006B817C818D819E810E943A240E942E229D
:100B50001330F8F44AE2EF81F8854E9F90014F9FE1
:100B6000300D1124D901AF5FBC4F1796ED91FC9168
:100B700018972085318528503740820E931E19968C
:100B8000ED91FC911A97208531857901E61AF70AD3
:100B900020C04AE2AF81B8854A9F90014B9F300D3B
:100BA0001124D901AF5FBC4F1796ED91FC911897B6
:100BB00024813581285F384FF901E819F9094F017F
:100BC0001996ED91FC911A97248135817901E60EF1
:100BD000F71E112311F0153099F48AE22F81388520
:100BE000829FF001839FF00D1124EF5FFC4F058081
:100BF000F681E02D848195811C01240C351C2DC0CB
:100C0000113011F0143099F48AE24F815885849F95
:100C1000F001859FF00D1124EF5FFC4F0580F681F8
:100C2000E02D848195811C01240C351C16C08EEFAB
:100C3000810F823090F48AE2AF81B8858A9FF001FB
:100C40008B9FF00D1124EF5FFC4F0580F681E02DA6
:100C5000848195811C01240C351C49815A81B10184
:100C6000802F8ED5880F982F990F990F890F8B831E
:100C700049815A81B4018C2D83D5BB818B0F880F9C
:100C8000E82FEE0FEE0FE80FEB8349815A81B70191
:100C90008D2D76D5FB81F80F81E0FF3639F080E0AD
:100CA00005C080E003C080E001C080E028960FB658
:100CB000F894DEBF0FBECDBFDF91CF911F910F9192
:100CC000FF90EF90DF90CF90BF90AF909F908F906C
:100CD0007F906F905F904F903F902F9008958F92EC
:100CE0009F92AF92BF92CF92DF92EF92FF920F93BB
:100CF0001F93CF93DF931DD51092FC021092010336
:100D0000C1E0D3E010E000E009831A821B821C825C
:100D1000812FF9D59E838D83DC011C93FF24F394EE
:100D2000F10E8F2DF0D598878F83FC01F0826894A7
:100D3000FF24F1F8F10E8F2DE6D59A878987DC0123
:100D4000FC920F5FAA961D5F0630F1F6E1E0F3E03A
:100D5000A581B6818EE591E013969C938E931297B0
:100D6000A581B6811B969C938E931A970F2EF8E55A
:100D7000AF2EF2E0BF2EF02D1796BC92AE921697D2
:100D8000A581B68115969C938E931497A581B68103
:100D900082E593E019969C938E931897A781B0856E
:100DA00020EB3FEF13963C932E931297A781B085CB
:100DB0001B963C932E931A978EEE9DEF17969C935D
:100DC0008E931697A781B0858CE29CEF15969C9325
:100DD0008E931497A781B08519963C932E931897FC
:100DE000A185B28564E873E013967C936E931297A5
:100DF000A185B2851B967C936E931A97A185B285C7
:100E000008EC10E017961C930E931697A185B285F7
:100E10000F2EFCE0EF2EFEEFFF2EF02D1596FC922C
:100E2000EE921497A185B28519967C936E931897CC
:100E3000A7A5B0A986E490E013969C938E93129791
:100E4000A7A5B0A91B969C938E931A97A7A5B0A9A6
:100E500017969C938E931697A7A5B0A94CE45FEFC5
:100E600015965C934E931497A7A5B0A940E451E062
:100E700019965C934E931897A1A9B2A94EE75FEF1C
:100E800013965C934E931297A1A9B2A91B965C93FB
:100E90004E931A97A1A9B2A9CCEBDDEF1796DC937C
:100EA000CE931697C1A8D2A80F2EFAEF8F2EFBEF84
:100EB0009F2EF02DD60115969C928E921497C1A864
:100EC000D2A8D60119965C934E931897C3A8D4A8BC
:100ED000D60113967C936E931297C3A8D4A8D6011B
:100EE0001B967C936E931A97C3A8D4A8D601179625
:100EF000FC92EE921697E3A8F4A8D70115961C93DE
:100F00000E93149703A8F4A9E02D71876087EAE592
:100F1000F3E0008111816CEE7FEFD80113967C9392
:100F20006E93129700811181D8011B967C936E936A
:100F30001A97008111810F2EF2EFEF2EFEEFFF2E98
:100F4000F02DD8011796FC92EE9216970081118130
:100F50000F2EF8EFEF2EFDEFFF2EF02DD801159696
:100F6000FC92EE9214970190F081E02D71876087DA
:100F7000ECE5F3E060817181DB0113965C934E93A5
:100F8000129760817181DB011B965C934E931A97D7
:100F900060817181DB011796DC93CE931697C08137
:100FA000D1819D828C820190F081E02D5187408714
:100FB000EEE5F3E0A081B18144ED53E013965C933C
:100FC0004E931297A081B1811B965C934E931A9712
:100FD000A081B18168E171E017967C936E931697BA
:100FE000A081B1816CE57EEF15967C936E9314978A
:100FF0000190F081E02D51874087E4E8F3E0A08183
:10100000B18148E85FEF13965C934E931297A081ED
:10101000B1811B965C934E931A97A081B1816EE8C3
:101020007EEF17967C936E931697A081B18164E949
:101030007DEF15967C936E9314970190F081E02DCF
:1010400051874087E6E8F3E0A081B1814CE350E0AE
:1010500013965C934E931297A081B1811B965C937B
:101060004E931A97C081D1810F2EFEEFCF2EDD2433
:10107000D394F02DDF82CE82C081D1815D834C83F9
:101080000190F081E02D60EC73E071876087E8E803
:10109000F3E000811181C0EEDCEFD8011396DC9300
:1010A000CE93129700811181D8011B96DC93CE93C9
:1010B0001A97008111810F2EFCE9EF2EFF24FA947C
:1010C000F02DD8011796FC92EE92169700811181AF
:1010D000D8011596DC93CE9314970190F081E02D02
:1010E000B186A086EEEAF3E0C081D1813B832A83FA
:1010F000C081D1813B872A87C081D1813F832E83E4
:10110000C081D18126EB3EEF3D832C830190F0819D
:10111000E02D2AEA30E031872087E0EBF3E0C08160
:10112000D1819B838A83C081D1819B878A87C0813B
:10113000D18128E032E03F832E83C081D1819D831D
:101140008C830190F081E02D8AEC93E09187808779
:10115000E2EBF3E0C081D18188E09DEF9B838A833D
:10116000C081D1819B878A87C081D18124EC3FEFE8
:101170003F832E83C081D1819D838C830190F08138
:10118000E02D80E892E091878087E8EDF3E0C08170
:10119000D18180E69FEF9B838A83C081D1819B8729
:1011A0008A87C081D1812AE530E03F832E83C081C8
:1011B000D1819D838C830190F081E02D24E531E085
:1011C00031872087EAEDF3E0C081D1815B834A83D8
:1011D000C081D1815B874A87C081D181DF82CE8285
:1011E000A081B18115965C934E9314970190F08184
:1011F000E02D71876087ECEDF3E0A081B18124EAF6
:101200003CEF13963C932E931297A081B1811B96CD
:101210003C932E931A97A081B18117969C938E933D
:101220001697A081B18115963C932E931497019047
:10123000F081E02D8CE192E09187808781E0DF9161
:10124000CF911F910F91FF90EF90DF90CF90BF90C3
:10125000AF909F908F9008952AE2829FC001112441
:101260008E5F9C4F0895AF92BF92CF92DF92EF9224
:10127000FF920F931F93CF93DF93CDB7DEB72C97D9
:101280000FB6F894DEBF0FBECDBFC982DA82EB8203
:10129000FC820D831E832F83388749875A876B878B
:1012A0007C87282F30E09AE2899FF0011124EF5FBC
:1012B000FC4F8481811131C08AE2829F8001839F2B
:1012C000100D11240F5F1C4F89819A81AB81BC8165
:1012D000F801878B908FA18FB28F8D819E81AF8116
:1012E000B885838F948FA58FB68F89859A85AB85B6
:1012F000BC85878F90A3A1A3B2A368D3F80163A391
:1013000074A385A396A3C501A0E0B0E087A390A72E
:10131000A1A7B2A781E0848301C080E02C960FB61C
:10132000F894DEBF0FBECDBFDF91CF911F910F911B
:10133000FF90EF90DF90CF90BF90AF9008952F92E5
:101340003F924F925F927F928F929F92AF92BF9205
:10135000CF92DF92EF92FF920F931F93CF93DF9381
:10136000CDB7DEB7A0970FB6F894DEBF0FBECDBFE6
:1013700080910103811192C029D30091FD02109147
:10138000FE022091FF0230910003DC01CB01801BA3
:10139000910BA20BB30B8B3F9105A105B10508F48E
:1013A0007FC18091FC02863008F066C019821A82E3
:1013B0001B821C821D821E821F82188619861A8635
:1013C0001B861C861D8A1E8A1F8A188E198A1A8AF5
:1013D0001B8A1C8A1D861E861F86188ACE010D96C2
:1013E0004C01DE0151965D01FE0175966F01E12C05
:1013F000FA800B811C8120E03E814F81588560E09E
:101400007A858B859C85D6D9CD84DE84EF84F88857
:1014100009891A892B893C894D895E896F89788D64
:101420000F2EF8EEAF2EF3E0BF2EF02D8091FC02D0
:101430002ADB8091FC02982F990F61E0890FE8D197
:101440008091FC02982F990F890F61E08F5FE0D1A6
:101450008091FC02982F990F890F61E08E5FD8D19F
:10146000E091FC028AE2E89FF0011124EF5FFC4F5B
:1014700081E08283838303C081E0809301038091B4
:10148000FC028F5F8093FC02A1D26093FD027093F7
:10149000FE028093FF029093000302C10F2EF1E041
:1014A0002F2EF3E03F2EF02D712CD10114968C914C
:1014B000882309F4EEC08AD2F10103A114A125A169
:1014C00036A1601B710B820B930B0E945F226B0194
:1014D0007C01D10197966D917D918D919C919A9708
:1014E0000E945F229B01AC01C701B6010E94C62188
:1014F000698F7A8F8B8F9C8FD1011B968D919D91D7
:101500000D90BC91A02D8D8F9E8FAF8FB8A3F10150
:1015100087849088A188B288C388D488E588F688B3
:10152000A5019401638D748D858D968D0E94352162
:10153000298D3A8D4B8D5C8D0E94D723A501940196
:101540000E943621B62EA72E982E892EA70196012D
:10155000D1015F966D917D918D919C9192970E94A2
:101560003521298D3A8D4B8D5C8D0E94D723A701A3
:1015700096010E943621F62ED72EC82E192F2D8DBA
:101580003E8D4F8D58A1F1016789708D818D928DAF
:101590000E943521298D3A8D4B8D5C8D0E94D72379
:1015A0002D8D3E8D4F8D58A10E943621E62E462F5F
:1015B000572F682F792F49835A836B837C832B2D78
:1015C0008B2D9A2DA92DB82D8D839E83AF83B8873F
:1015D0006F2D8F2D9D2DAC2DB12F89879A87AB87CD
:1015E000BC871D8A1E8A1F8A188E198A1A8A1B8A2E
:1015F0001C8A1D861E861F86188ACE010D964C01F8
:10160000DE0151965D01FE0175966F01FA800B8136
:101610001C813E814F8158857A858B859C85CAD8EF
:10162000D1019796AD90BC909897CD84DE84EF84DD
:10163000F88809891A892B893C894D895E896F89C7
:10164000788D872D20DA20E030E040E85FE3698D77
:101650007A8D8B8D9C8D0E94CC238823D4F0F10150
:1016600014828789908DA18DB28D83879487A587F9
:10167000B687838D948DA58DB68D8787908BA18B32
:10168000B28B878D90A1A1A1B2A1838B948BA58BE6
:10169000B68B7394FAE22F0E311C86E0781205CFD8
:1016A000C6D081E0A0960FB6F894DEBF0FBECDBFC6
:1016B000DF91CF911F910F91FF90EF90DF90CF902E
:1016C000BF90AF909F908F907F905F904F903F9092
:1016D0002F9008958F929F92AF92BF92CF92DF92F8
:1016E000EF92FF9249015A012BED3FE049E450E4AB
:1016F0000E94D72320E030E044E353E40E94C62157
:101700000E949F246B017C0120E030E048EE51E410
:10171000C501B4010E943621A70196010E94D7237A
:10172000FF90EF90DF90CF90BF90AF909F908F9001
:101730000895EFEFF3E080E044E853E028E037E07D
:10174000808311821382128213861286158214827C
:1017500057834683318720878F5F3C96833181F79B
:1017600040E050E060E772E480E40E94130240E051
:1017700050E060E772E481E40E94130281E0089582
:101780008331F0F5282F30E0F901EE0FFF1FE20F53
:10179000F31FEE0FFF1FEE0FFF1FE150FC4F818183
:1017A000813081F5F901EE0FFF1FE20FF31FEE0FFD
:1017B000FF1FEE0FFF1FE150FC4F4481558164175E
:1017C000750714F1F901EE0FFF1FE20FF31FEE0F83
:1017D000FF1FEE0FFF1FE150FC4F4085518546175C
:1017E0005707A4F0F901EE0FFF1FE20FF31FEE0FF2
:1017F000FF1FEE0FFF1FE150FC4F738362830895BC
:1018000080E0089580E0089580E0089580E00895E4
:1018100090E0FC01EE0FFF1FE80FF91FEE0FFF1F16
:10182000EE0FFF1FE150FC4F618381E00895CF92DE
:10183000DF92EF92FF920F931F93CF9300E014E09B
:10184000C0E0C12C6894DD24D4F8C93030F46C2F8A
:1018500081E40E94E0017C0106C067EF6C0F80E428
:101860000E94E0017C01F70111821082F801808161
:10187000813031F561817281072E000C880B990B44
:101880000E94612220E030E041E654E40E943621CB
:1018900020E030E84EE853E40E94D72320E030E017
:1018A00041EE54E40E94C62120E030E043E453E4DA
:1018B0000E9436210E943322F7017383628303C0A2
:1018C000F701D382C282CF5F045F1F4FC33109F09B
:1018D000BCCF8091FE03882339F01092FE0369E0AB
:1018E00081E40E94FB0107C081E08093FE036AE06F
:1018F00080E40E94FB01CF911F910F91FF90EF9028
:10190000DF90CF900895833168F490E09C01220F1E
:10191000331F820F931F880F991F880F991F8150C3
:101920009C4F089580E090E008951F920F920FB6AB
:101930000F9211248F938091E3048EBD8F910F90AD
:101940000FBE0F901F9018951092E4041092E504BA
:101950001092E6041092E70414BC16BC84B58E7F86
:1019600084BD84B58D7F84BD85B5877F85BD85B5F4
:10197000826085BD85B58E7F85BDEEE6F0E0808115
:101980008160808381E008953FB7F8948091E404FA
:101990009091E504A091E604B091E70426B5A89BD8
:1019A00005C02F3F19F00196A11DB11D3FBFBA2FF1
:1019B000A92F982F8827820F911DA11DB11DBC0151
:1019C000CD0196958795779567950895DDDF28EE8B
:1019D00033E040E050E00E94FE24CA01B9010895BE
:1019E000CF92DF92EF92FF926B017C01CDDFC60EAA
:1019F000D71EE81EF91EC8DF6C157D058E059F05F4
:101A0000D0F3FF90EF90DF90CF9008959C01A8EE67
:101A1000B3E00E942925E4CF08951F920F920FB6DC
:101A20000F9211248F939F93AF93BF938091E404FF
:101A30009091E504A091E604B091E7040196A11D00
:101A4000B11D8093E4049093E504A093E604B09361
:101A5000E704BF91AF919F918F910F900FBE0F90B0
:101A60001F901895EFE7FEE0108210861782109203
:101A7000B0001092B200E1EBF0E0808181608083E1
:101A80008081846080838DE78093B300B99AE0E71A
:101A9000F0E080818260808381E0089590E0FC0125
:101AA000EE0FFF1FEE0FFF1FEE0FFF1F8E0F9F1F8A
:101AB000FC01E158F14F10821282118214821382CC
:101AC00082E08583108617820895E0E7F0E0808148
:101AD0008D7F80838DE78093B3001092830E1092E8
:101AE000820E1092B20080818260808308951F92DE
:101AF0000F920FB60F9211240BB60F920F931F93F4
:101B00002F933F934F935F936F937F938F939F9305
:101B1000AF93BF93CF93EF93FF93C091B2008091A7
:101B20007F0E813069F5EFE7FEE0838194810196B5
:101B3000948383832381348181819281281739079B
:101B4000F9F48091840E8230D9F014821382858159
:101B500081110BC00091860E1091870E9FDF011539
:101B6000110571F0F80109950BC08091860E9091D6
:101B7000870E892B29F0E091860EF091870E09954A
:101B80008091B200C458C093B300FF91EF91CF9100
:101B9000BF91AF919F918F917F916F915F914F9185
:101BA0003F912F911F910F910F900BBE0F900FBE81
:101BB0000F901F9018958FEFECEBF0E00EC0815066
:101BC00061F48091E8049091E90401969093E9040E
:101BD0008093E8041092BC000895908199237CF7CB
:101BE0000895CF93DF93C2E0D1E088810E948D03F6
:101BF00089810E948D038CE58093B8001092B90012
:101C000084E08093BC001092E9041092E80481E023
:101C1000DF91CF9108950F931F93CF93DF93C82F38
:101C2000D62F8A0184EA8093BC00C5DF8091B90079
:101C3000883029F08091B900803109F049C08C2F9B
:101C4000880F8093BB0084E88093BC00B4DF809150
:101C5000B900883109F03EC0D093BB0084E880937E
:101C6000BC00A9DF8091B9008832B1F584EA809385
:101C7000BC00A1DF8091B900803181F5CC0FC1603B
:101C8000C093BB0084E88093BC0095DF8091B900CD
:101C9000803431F584E88093BC008DDF8091B900F9
:101CA000883501F58091BB00F801808384E9809339
:101CB000BC008091B900883FB9F08091E804909110
:101CC000E90401969093E9048093E80480E00DC054
:101CD00080E00BC080E009C080E007C080E005C064
:101CE00080E003C080E001C081E0DF91CF911F91CF
:101CF0000F9108951F93CF93DF93C82FD62F142FE2
:101D000084EA8093BC0057DF8091B900883021F0CD
:101D10008091B900803189F5CC0FC093BB0084E875
:101D20008093BC0048DF8091B900883141F5D093A1
:101D3000BB0084E88093BC003EDF8091B90088320C
:101D400001F51093BB0084E88093BC0034DF8091E0
:101D5000B9008832C1F484E98093BC008091B90055
:101D6000883F99F08091E8049091E904019690935E
:101D7000E9048093E80480E009C080E007C080E0C7
:101D800005C080E003C080E001C081E0DF91CF9119
:101D90001F9108959F92AF92BF92CF92DF92EF92E0
:101DA000FF920F931F93CF93DF93C82FF62E8A01D4
:101DB000D22F84EA8093BC00FEDE8091B900883087
:101DC00029F08091B900803109F051C0CC0FC09347
:101DD000BB0084E88093BC00EEDE8091B9008831BE
:101DE00009F047C0F092BB0084E88093BC00E3DEBA
:101DF0008091B900883209F03EC0DD2399F1780165
:101E0000D150CD2FD0E02196C00FD11F0F2EFBEB6C
:101E1000AF2EB12CF02D0F2EFCEBCF2ED12CF02DB0
:101E20000F2EF4E89F2EF02D09EB10E0F7018191C1
:101E30007F01F5018083F6019082BDDEF80180818B
:101E4000883259F08091E8049091E90401969093CA
:101E5000E9048093E80480E006C0CE15DF0531F781
:101E600081E001C081E094E99093BC0005C081E06D
:101E700003C081E001C081E0DF91CF911F910F91FC
:101E8000FF90EF90DF90CF90BF90AF909F9008951C
:101E9000CF93DF93C4E0D1E089810E948D038881D4
:101EA0000E94A60384E190E09093C5008093C40053
:101EB000E0ECF0E0808182608083E1ECF0E0808102
:101EC00080618083808188608083A2ECB0E08C9107
:101ED00082608C9380818F7B808380818F7D8083E3
:101EE00080818068808381E0DF91CF91089524E034
:101EF00034E0482F429FC001439F900D112486512A
:101F00009B4FDC01AE5FBD4F2C912F5F820F911D67
:101F1000FC01EC5FFD4F60832C9381E008958111FB
:101F200007C0E1ECF0E080818062808381E0089569
:101F300080E00895282F30E084E094E0289FF001AD
:101F4000299FF00D389FF00D1124E651FB4F918130
:101F5000DF01A90FB11D12968C914081941769F091
:101F60009F5F44E054E0249FF001259FF00D349FD3
:101F7000F00D1124E651FB4F9183089524E034E0E5
:101F8000482F429FC001439F900D1124FC01E65150
:101F9000FB4F80819181891B08951F920F920FB68C
:101FA0000F9211240BB60F928F939F93AF93BF9311
:101FB000EF93FF93AAEEB4E0EC9181E08E0FF0E096
:101FC0009091C600E651FB4F92838C93FF91EF9165
:101FD000BF91AF919F918F910F900BBE0F900FBE4D
:101FE0000F901F9018951F920F920FB60F92112409
:101FF0000BB60F928F939F93EF93FF939091ED0603
:102000008091EC06981759F081E0890FE82FF0E0F5
:10201000E251F94F90819093C6008093ED06909124
:10202000EC06891305C0E1ECF0E080818F7D8083B0
:10203000FF91EF919F918F910F900BBE0F900FBE6C
:102040000F901F9018951F920F920FB60F921124A8
:102050000F900FBE0F901F9018951F920F920FB602
:102060000F9211240BB60F928F939F93AF93BF9350
:10207000EF93FF93AAEEB4E0EC9181E08E0FF0E0D5
:102080009091CE00E651FB4F92838C93FF91EF919C
:10209000BF91AF919F918F910F900BBE0F900FBE8C
:1020A0000F901F9018951F920F920FB60F92112448
:1020B0000BB60F928F939F93EF93FF939091ED0642
:1020C0008091EC06981759F081E0890FE82FF0E035
:1020D000E251F94F90819093CE008093ED0690915C
:1020E000EC06891305C0E9ECF0E080818F7D8083E8
:1020F000FF91EF919F918F910F900BBE0F900FBEAC
:102100000F901F9018951F920F920FB60F921124E7
:102110000F900FBE0F901F90189514BE85B7816069
:1021200085BF85B78D7F85BFF8949EE088E10FB6A7
:10213000F894A895809360000FBE90936000789407
:102140000E94D11ED8E1CEE00FB6F894A895D093A6
:1021500060000FBEC09360000E947B1FF5CFCF933D
:10216000DF93E0EDFEE0108211821282138280E0A4
:1021700090E0A2E8B2E484839583A683B7831086B7
:1021800011861286138640E050E064E372E44487CF
:10219000558766877787808B918BA28BB38B40E0C6
:1021A00050E060EA71EC448B558B668B778B40E096
:1021B00050E060E772E4408F518F628F738F848F9D
:1021C000958FA68FB78F10A211A212A213A240E082
:1021D00050E060E272E440932A0D50932B0D60931F
:1021E0002C0D70932D0D40E050E066E972E44093B1
:1021F000260D5093270D6093280D7093290D809321
:10220000220D9093230DA093240DB093250D809162
:102210002A0D90912B0DA0912C0DB0912D0DB05841
:10222000CAE0DDE088839983AA83BB838091260D71
:102230009091270DA091280DB091290DE2EFFCE0BF
:1022400080839183A283B3838091220D9091230D8B
:10225000A091240DB091250DB0588C839D83AE8341
:10226000BF8314821582168217820E946F06DF9147
:10227000CF910895AF92BF92CF92DF92EF92FF92EB
:102280000F931F935CD8A2DB00912F0D1091300D9E
:102290002091310D3091320DDC01CB01801B910B6F
:1022A000A20BB30B853C9940A105B10508F470C0A1
:1022B0008DDB60932F0D7093300D8093310D9093D3
:1022C000320D80912E0D90E0FC01EE0FFF1FE80F04
:1022D000F91FEE0FFF1FEE0FFF1FE053F14F0F2E00
:1022E000F8EEAF2EF3E0BF2EF02DC080D180E2805B
:1022F000F38004811581268137814085518562856F
:10230000738580E00E94330980912E0D90E0FC01DE
:10231000EE0FFF1FE80FF91FEE0FFF1FEE0FFF1F5D
:10232000E053F14FC080D180E280F38004811581B9
:1023300026813781408551856285738581E00E94C1
:10234000330980912E0D90E0FC01EE0FFF1FE80F86
:10235000F91FEE0FFF1FEE0FFF1FE053F14FC0807C
:10236000D180E280F3800481158126813781408508
:1023700051856285738582E00E94330980912E0D1C
:102380008F5F833019F080932E0D02C010922E0DB6
:102390001F910F91FF90EF90DF90CF90BF90AF9083
:1023A000089584EF9EE008958F929F92AF92BF921E
:1023B000CF92DF92EF92FF920F931F93CF93DF9311
:1023C000EC0161114FC004EF1EE0F801218D328D48
:1023D000438D548D65817681878190850E9435215A
:1023E0006B017C0120E030E040E751E4F8016189B5
:1023F0007289838994890E943621F801258936895A
:102400004789508D0E943521A701960163D96B0140
:102410007C01F801218D328D438D548D658176814B
:10242000878190850E9435214B015C01F80121854F
:1024300032854385548561817281838194810E94B4
:102440003621F80125853685478550890E94362139
:10245000F801258D368D478D50A10E9436218B01C4
:102460009C0186C1613009F041C004EF1EE0F80113
:10247000218D328D438D548D658176818781908544
:102480000E9435216B017C01F80125893689478935
:10249000508D61897289838994890E943521A701B1
:1024A000960118D96B017C01F801218D328D438D85
:1024B000548D65817681878190850E9435214B01FD
:1024C0005C01F801258536854785508961817281D7
:1024D000838194810E943621F801258D368D478DA8
:1024E00050A10E9436218B019C0142C1623009F04B
:1024F00053C004EF1EE0F801218D328D438D548DC1
:1025000065817681878190850E9435216B017C01F0
:10251000F801218932894389548960E070E080E7BD
:1025200091E40E943521F801258936894789508D2B
:102530000E943621A7019601CDD86B017C01F7FAE4
:10254000F094F7F8F094F801218D328D438D548D7D
:1025500065817681878190850E9435214B015C01E0
:10256000F80121853285438554856181728183819B
:1025700094810E943521F80125853685478550894B
:102580000E943621F801258D368D478D50A10E947D
:1025900036218B019C01ECC0633009F053C004EF7D
:1025A0001EE0F801218D328D438D548D6581768139
:1025B000878190850E9436216B017C01F801218979
:1025C00032894389548960E070E080E791E40E9499
:1025D0003521F801258936894789508D0E9435219A
:1025E000A701960177D86B017C01F7FAF094F7F810
:1025F000F094F801218D328D438D548D6581768163
:10260000878190850E9436214B015C01F80121856C
:1026100032854385548561817281838194810E94D2
:102620003621F80125853685478550890E94352158
:10263000F801258D368D478D50A10E9436218B01E2
:102640009C0196C0643009F041C004EF1EE0F8011F
:10265000218D328D438D548D658176818781908562
:102660000E9436216B017C01F80125893689478952
:10267000508D61897289838994890E943621A701CE
:10268000960128D86B017C01F801218D328D438D94
:10269000548D65817681878190850E9436214B011A
:1026A0005C01F801258536854785508961817281F5
:1026B000838194810E943521F801258D368D478DC7
:1026C00050A10E9436218B019C0152C0653009F057
:1026D0004FC004EF1EE0F801218D328D438D548DE3
:1026E00065817681878190850E9436216B017C010E
:1026F00020E030E040E751E4F80161897289838984
:1027000094890E943621F801258936894789508DA0
:102710000E943621A70196010E946A0B6B017C0181
:10272000F801218D328D438D548D658176818781AD
:1027300090850E9436214B015C01F801218532858C
:102740004385548561817281838194810E94352102
:10275000F80125853685478550890E943521F80185
:10276000258D368D478D50A10E9436218B019C010D
:10277000C882D982EA82FB828C829D82AE82BF822D
:10278000088719872A873B87CE01DF91CF911F9158
:102790000F91FF90EF90DF90CF90BF90AF909F9000
:1027A0008F900895AF92BF92CF92DF92EF92FF92F7
:1027B0000F931F93CF93DF93CDB7DEB7E4EFFEE027
:1027C0006187728783879487258736874787508BF1
:1027D000E18AF28A038B148BA58AB68AC78AD08EC7
:1027E0008D859E85AF85B889818F928FA38FB48F99
:1027F00089899A89AB89BC89858F968FA78FB0A369
:1028000081E0DF91CF911F910F91FF90EF90DF90CA
:10281000CF90BF90AF9008951F93CF93DF93CDB724
:10282000DEB72C970FB6F894DEBF0FBECDBF10E019
:10283000612FCE010196B8DD1F5F1630C9F781E028
:102840002C960FB6F894DEBF0FBECDBFDF91CF91AF
:102850001F9108958091F40E08958093F40E8230B4
:1028600070F0823071F4E4EFFEE015821682178278
:102870001086118212821382148281E0089581E011
:10288000089580E008956093F90E7093FA0E809396
:10289000FB0E9093FC0E81E008956093F50E70930B
:1028A000F60E8093F70E9093F80E81E008950F9343
:1028B0001F93CF93DF93082F6CE38091350D17DBC7
:1028C00010E00115110559F0CBE3DDE0055C124F76
:1028D00069918091350D0BDBC017D107C9F76EE305
:1028E0008091350D04DB8091350D19DBDF91CF919F
:1028F0001F910F9108951F924F931F926F931F92F4
:102900008F931F921F9283EC92E09F938F938BE3A0
:102910009DE09F938F930E9438252DB73EB7245F8B
:102920003F4F0FB6F8943EBF0FBE2DBF08952F92B4
:102930003F924F925F926F927F928F929F92AF924F
:10294000BF92CF92DF92EF92FF920F931F93CF939C
:10295000DF93CDB7DEB72E970FB6F894DEBF0FBE6C
:10296000CDBF8091A00D811145C08091A10D811135
:1029700024C08091A20D811120C042E060E0BBDF45
:102980009A8389831F9281E08F931F928F9382EDA8
:1029900092E09F938F9389819A819927855C924FCA
:1029A0009F938F930E9438252981820F80DF0FB675
:1029B000F894DEBF0FBECDBF86C78091A10D8130D8
:1029C00041F48091A20D811104C081E08093360D05
:1029D0007AC78091A10D823041F48091A20D8111BE
:1029E00004C01092360D81E06EC783E08093340DF1
:1029F00080E069C78091A00D813009F065C38091A6
:102A0000A10D811124C08091A20D811120C041E04F
:102A100060E081E070DF9A8389831CDF1F928F93CF
:102A200086ED92E09F938F9389819A819927855CA7
:102A3000924F9F938F930E9438255981850F37DFDE
:102A40000F900F900F900F900F900F903CC78091B8
:102A5000A10D813049F58091A20D853029F5E090D6
:102A6000A40D0091A50DF090A60D1091A70D0E9448
:102A700073208091A30D602F70E090E1E99E600DBE
:102A8000711D112462957295707F7627607F76277D
:102A90006F0D711D62957295707F7627607F762726
:102AA000610F711DDADE0FC78091A10D823009F030
:102AB000A8C08091A20D803109F0A3C0EFE9FDE02C
:102AC000E4801581668077802084318482856385E7
:102AD000048525852D87F68437853E8780889188F3
:102AE0005288438840E1849F600D1124062E000C1B
:102AF000770B880B990B0E9461225B016C01632D9F
:102B000050E1259E600D1124062E000C770B880BDA
:102B1000990B0E94612269837A838B839C83672D42
:102B200080E1689E600D1124062E000C770B880B47
:102B3000990B0E9461226D837E838F839887612F1A
:102B400090E1E99E600D1124062E000C770B880B96
:102B5000990B0E94612269877A878B879C87FE8503
:102B6000E0E1FE9EF00D11246F2FFF0F770B880B15
:102B7000990B0E9461229F938F937F936F933D8562
:102B800020E1029F300D1124632F330F770B880B48
:102B9000990B0E9461229F938F937F936F93E9809B
:102BA000FA800B811C812D813E814F81588569857A
:102BB0007A858B859C85F6DD0E945D200FB6F894A2
:102BC000DEBF0FBECDBFFC018181823009F066C639
:102BD000892D90E0F0E18F9E800D911D112482954A
:102BE0009295907F9827807F9827850D911D8295DB
:102BF0009295907F9827807F9827840D911D0CDEF9
:102C000062C68091A10D8330B1F58091A20D8A300A
:102C100091F5EFE9FDE084816581968147813085FA
:102C20002185A285038574855585623019F40E943B
:102C3000732049C610E0E0E1AE9F000D111D112484
:102C400002951295107F1027007F1027070F111D86
:102C500002951295107F1027007F1027050F111D78
:102C6000F0E13F9F200D112430E1939F400D11248E
:102C70000E94952028C68091A10D843041F5809155
:102C8000A20D811124C00E945D208C0141E064E00E
:102C900081E031DE9A838983F80181811F928F93CD
:102CA00086ED92E09F938F9389819A819927855C25
:102CB000924F9F938F930E943825F9818F0FF7DDF4
:102CC0000F900F900F900F900F900F90FCC5809178
:102CD000A10D853009F03DC08091A20D8630C9F567
:102CE000EFE9FDE00681178120852D833185398349
:102CF0008481658170E040E1849F600D711D112425
:102D0000072E000C880B990B0E946122BCDD0E94EB
:102D10005D20FC018181823009F0C2C5812F90E0E5
:102D2000F0E10F9F800D911D112482959295907F67
:102D30009827807F98272D81820F911D82959295EB
:102D4000907F9827807F98273981830F911D64DDBC
:102D5000BAC58091A10D863061F58091A20D8111D7
:102D600028C01FDB8C0142E066E081E0C4DD9A836D
:102D70008983F80165817681878190850E9433225D
:102D80007F936F938DEC92E09F938F9389819A81CB
:102D90009927855C924F9F938F930E943825F981E4
:102DA0008F0F85DD0F900F900F900F900F900F9069
:102DB0008AC58091A10D873009F03DC08091A20D98
:102DC0008630C9F5EFE9FDE006812781298310856A
:102DD00031853D838481658170E040E1849F600D91
:102DE000711D1124072E000C880B990B0E94612283
:102DF00054DD0E945D20FC018181823009F052C5C2
:102E0000F9818F2F90E020E1029F800D911D112408
:102E100082959295907F9827807F9827810F911DAA
:102E200082959295907F9827807F98273D81830F88
:102E3000911DF2DC48C58091A10D883061F580912B
:102E4000A20D811128C0ADDA8C0142E068E081E07A
:102E500052DD9A838983F801618172818381948133
:102E60000E9433227F936F938DEC92E09F938F9318
:102E700089819A819927855C924F9F938F930E94B5
:102E80003825F9818F0F13DD0F900F900F900F9061
:102E90000F900F9018C58091A10D893051F4809149
:102EA000A20D813031F48091A30D0E94042081E0B5
:102EB0000AC58091A10D8A3041F58091A20D811142
:102EC00024C00E9407208C0141E06AE081E013DD0C
:102ED0009A838983F80181811F928F9386ED92E016
:102EE0009F938F9389819A819927855C924F9F93B5
:102EF0008F930E943825F9818F0FD9DC0F900F90A6
:102F00000F900F900F900F90DEC48091A10D8B3029
:102F100019F58091A20D8430F9F4EFE9FDE04481C8
:102F200085813681278190E050E1459F800D911D7C
:102F3000112482959295907F9827807F9827830F00
:102F4000911D82959295907F9827807F9827820F78
:102F5000911D0E946020B7C48091A10D8C3029F58D
:102F60008091A20D811121C044E06CE081E0C3DCBE
:102F70009A8389830E946E209F938F938BED92E0BA
:102F80009F938F9389819A819927855C924F9F9314
:102F90008F930E9438256981860F89DC0F900F90EE
:102FA0000F900F900F900F908EC48091A10D8D30D7
:102FB00079F48091A20D823059F4EFE9FDE094811B
:102FC0008581E0E19E9F800D11240E9478207BC4C2
:102FD0008091A10D8E3049F58091A20D811125C0FF
:102FE00042E06EE081E087DC9A8389830E941721AA
:102FF000282F082E000C330B3F938F938DEC92E01B
:103000009F938F9389819A819927855C924F9F9393
:103010008F930E943825F9818F0F49DC0F900F9014
:103020000F900F900F900F904EC48091A10D8F3094
:1030300079F48091A20D823059F4EFE9FDE094819A
:10304000858120E1929F800D11240E941A213BC4AA
:103050008091A10D803149F58091A20D811125C08B
:1030600042E060E181E047DC9A8389830E94242169
:10307000282F082E000C330B3F938F938DEC92E09A
:103080009F938F9389819A819927855C924F9F9313
:103090008F930E9438253981830F09DC0F900F90A0
:1030A0000F900F900F900F900EC48091A10D813161
:1030B00031F48091A20D811102C0B7D704C483E01E
:1030C0008093340D80E0FFC38091A00D823009F021
:1030D00002C18091A10D811124C08091A20D8111A6
:1030E00020C042E060E082E006DC9A838983ADD7AD
:1030F0001F928F938DEC92E09F938F9389819A8199
:103100009927855C924F9F938F930E943825498120
:10311000840FCDDB0F900F900F900F900F900F90BA
:10312000D2C38091A10D813079F48091A20D8230BB
:1031300059F4EFE9FDE09481858150E1959F800D80
:1031400011247FD781E0BFC38091A10D823009F0A7
:1031500045C08091A20D811141C04CE062E082E047
:10316000CADB9A83898374D79F938F930BED12E008
:103170001F930F9389819A819927855C924F9F9322
:103180008F930E9438256981680F698366D79F9362
:103190008F931F930F93E9818E2F90E0855C924F60
:1031A0009F938F930E943825F981F80FF9835AD79E
:1031B0009F938F931F930F932981822F90E0855CBB
:1031C000924F9F938F930E9438253981830F6FDB35
:1031D0000FB6F894DEBF0FBECDBF75C38091A10DB1
:1031E000833021F58091A20D811120C044E063E07D
:1031F00082E081DB9A8389832BD79F938F938BED1A
:1032000092E09F938F9389819A819927855C924F51
:103210009F938F930E9438255981850F48DB0F902B
:103220000F900F900F900F900F904DC38091A10DB4
:10323000843021F58091A20D811120C044E064E02A
:1032400082E059DB9A83898308D79F938F938BED14
:1032500092E09F938F9389819A819927855C924F01
:103260009F938F930E9438256981860F20DB0F90F2
:103270000F900F900F900F900F9025C38091A10D8C
:10328000853021F58091A20D811120C044E065E0D8
:1032900082E031DB9A838983E5D69F938F938BED10
:1032A00092E09F938F9389819A819927855C924FB1
:1032B0009F938F930E9438259981890FF8DA0F9098
:1032C0000F900F900F900F900F90FDC283E08093AE
:1032D000340D80E0F8C28091A00D833009F0E2C087
:1032E0008091A10D811124C08091A20D811120C077
:1032F00042E060E083E0FFDA9A838983CBD69F9334
:103300008F938DEC92E09F938F9389819A81992777
:10331000855C924F9F938F930E943825E9818E0F91
:10332000C6DA0F900F900F900F900F900F90CBC2B6
:103330008091A10D813081F48091A20D823061F4E1
:10334000EFE9FDE094818581F0E19F9F800D1124DC
:1033500090E0A5D681E0B7C28091A10D8230C1F581
:103360008091A20D811134C044E062E083E0C3DAB1
:103370009A83898380E098D699279F938F930DEC49
:1033800012E01F930F9389819A819927855C924F50
:103390009F938F930E9438252981280F298381E0EC
:1033A00083D699279F938F931F930F933981832FF0
:1033B00090E0855C924F9F938F930E9438254981BE
:1033C000840F75DA0FB6F894DEBF0FBECDBF7BC297
:1033D0008091A10D833021F58091A20D811120C033
:1033E00042E063E083E087DA9A83898340D69F9343
:1033F0008F938DEC92E09F938F9389819A81992787
:10340000855C924F9F938F930E943825F9818F0F8F
:103410004EDA0F900F900F900F900F900F9053C2B5
:103420008091A10D843081F48091A20D823061F4ED
:10343000EFE9FDE09481858120E1929F800D1124C8
:1034400090E01AD681E03FC28091A10D853029F528
:103450008091A20D811121C044E065E083E04BDA48
:103460009A83898380E00DD69F938F938BED92E0B2
:103470009F938F9389819A819927855C924F9F931F
:103480008F930E9438253981830F11DA0F900F90A6
:103490000F900F900F900F9016C283E08093340D21
:1034A00080E011C28091A00D843009F0ABC1809101
:1034B000A10D811133C08091A20D823079F5EFE921
:1034C000FDE08481458150E1859F400D11244983B1
:1034D000433108F0E9C143E060E084E00CDA8C019C
:1034E00089810E94830CFC0181811F928F931F921E
:1034F000F981FF9380EE92E09F938F93C801992703
:10350000855C924F9F938F930E943825800FCFD96F
:103510000FB6F894DEBF0FBECDBFD5C18091A10D0F
:103520008130A9F48091A20D833089F4EFE9FDE0A8
:103530009481858130E1939F800D1124833108F0BF
:10354000B5C16091A50D0E94080C81E0BCC18091BD
:10355000A10D823009F03FC08091A20D8230D9F5D3
:10356000EFE9FDE08481458150E1859F400D112404
:103570004983433108F09CC1842F0E94830C7C0155
:1035800044E062E084E0B7D98C01F7018281938145
:1035900022853385821B930B6AE070E00E94EB2446
:1035A000CB0199279F938F931F92F981FF9389EC09
:1035B00092E09F938F93C8019927855C924F9F93C8
:1035C0008F930E943825800F72D90FB6F894DEBF12
:1035D0000FBECDBF78C18091A10D833009F047C0E7
:1035E0008091A20D883009F042C0EFE9FDE08481AE
:1035F000358140E1849F300D11243983333108F047
:1036000059C1832F0E94830CEFE9FDE036812781A9
:10361000A08541857285638550E0E0E1AE9F400D55
:10362000511D112442955295507F5427407F5427B5
:10363000470F511D42955295507F5427407F542784
:10364000460F511DF0E13F9F200D1124FC018285A2
:103650009385820F911D27FD9A952AE0289FB0013E
:10366000299F700D112489810E94C00B2CC180916B
:10367000A10D843009F03FC08091A20D8230D9F5B0
:10368000EFE9FDE08481258130E1839F200D112445
:103690002983233108F010C1822F0E94830C7C0102
:1036A00044E064E084E027D98C01F70184819581AE
:1036B00022853385821B930B6AE070E00E94EB2425
:1036C000CB0199279F938F931F92F981FF9389ECE8
:1036D00092E09F938F93C8019927855C924F9F93A7
:1036E0008F930E943825800FE2D80FB6F894DEBF82
:1036F0000FBECDBFE8C08091A10D863009F03FC05C
:103700008091A20D8230D9F5EFE9FDE08481358109
:1037100040E1849F300D11243983333108F0CEC04D
:10372000832F0E94830C7C0144E066E084E0E3D8B0
:103730008C01F7018085918522853385821B930B4F
:103740006AE070E00E94EB24CB0199279F938F934E
:103750001F92F981FF9389EC92E09F938F93C801A8
:103760009927855C924F9F938F930E943825800FF5
:103770009ED80FB6F894DEBF0FBECDBFA4C0809117
:10378000A10D8830D1F58091A20D811136C046E29D
:1037900068E084E0B0D8E82E10E00F2EFAE0CF2EDB
:1037A000D12CF02D812F0E94830CFC0122813381CA
:1037B00082859385A901481B590BCA01B6010E9455
:1037C000EB2477277F936F938DEC92E09F938F93F9
:1037D0008E2D90E0855C924F9F938F930E943825A9
:1037E000E80E1F5F0F900F900F900F900F900F90AB
:1037F0001331C1F68E2D5BD866C083E08093340D03
:1038000080E061C08091A00D8530D1F58091A10D3F
:103810008130E9F48091A20D8131C9F48091A30D2A
:10382000863008F04DC0EFE9FDE085818681878113
:103830008085818582858385848585858685878544
:103840008089818982898389848981E03CC08091D3
:10385000A10D811110C08091A20D813061F4809181
:10386000A30D863078F50E942C094DE060E085E0DC
:1038700042D81DD828C083E08093340D80E023C057
:103880008091A00D863029F483E08093340D80E090
:103890001AC082E08093340D80E015C081E013C02F
:1038A00081E011C081E00FC080E00DC080E00BC05E
:1038B00080E009C080E007C080E005C080E003C070
:1038C00080E001C080E02E960FB6F894DEBF0FBEF8
:1038D000CDBFDF91CF911F910F91FF90EF90DF90BF
:1038E000CF90BF90AF909F908F907F906F905F90A0
:1038F0004F903F902F9008951092D50DEFE9FDE085
:1039000010828FEF81838283138280E090E0FC013C
:10391000E156F24F1482019682339105C1F781E09E
:1039200008952F923F924F925F926F927F928F9263
:103930009F92AF92BF92CF92DF92EF92FF920F933E
:103940001F93CF93DF931F92CDB7DEB78091350DD4
:103950000E94BE0F90E09093D70D8093D60D80917A
:10396000D60D9091D70D892B09F4C3C100E010E06A
:10397000812C0F2EFAE07F2EF02D0F2EFFE02F2E40
:10398000F02D0F2EFEE03F2EF02D0F2EFDE04F2EDE
:10399000F02D0F2EFCE05F2EF02D0F2EFBE06F2E92
:1039A000F02D0F2EFFE9EF2EFDE0FF2EF02D689495
:1039B000992493F80F2EF7E0AF2EF02D0F2EF6E09E
:1039C000BF2EF02D0F2EF5E0CF2EF02D6894DD24C4
:1039D000D2F88091350D0E949A0F898389818E33A8
:1039E000B9F48091D50D883099F081E08093340D41
:1039F000EBE3FDE08BE480838FE4818381E38283CA
:103A000083E00E9457141092D50D1092330D71C1AE
:103A1000E091D50D8E2F90E08930910508F05FC1BF
:103A2000FC01EA5BFF4F0C94202589818C3309F05F
:103A300056C181E08093D50D8092330D50C1E9814C
:103A400080ED8E0F8A30C0F08E2F90E0FC01E154A3
:103A5000F109E632F10568F4E15BFF4FF1C7862D0D
:103A60000BC0852D09C0842D07C0832D05C0822D74
:103A700003C0882D01C0872DF701808382E08093E9
:103A8000D50D2DC1E98180ED8E0F8A30C0F08E2FCB
:103A900090E0FC01E154F109E632F10568F4EB58DD
:103AA000FF4FCEC7862D0BC0852D09C0842D07C0C2
:103AB000832D05C0822D03C0882D01C0872D8295DE
:103AC000807FF701818383E08093D50D08C1E98170
:103AD00080ED8E0F8A30C0F08E2F90E0FC01E15413
:103AE000F109E632F10568F4E556FF4FA9C7862DC6
:103AF0000BC0852D09C0842D07C0832D05C0822DE4
:103B000003C0882D01C0872DF7019181890F818322
:103B1000D092D50DE4C0E98180ED8E0F8A30C0F0DF
:103B20008E2F90E0FC01E154F109E632F10568F4D2
:103B3000EF53FF4F85C7862D0BC0852D09C0842DFF
:103B400007C0832D05C0822D03C0882D01C0872D9D
:103B50008295807FF7018283C092D50DC0C0E98134
:103B600080ED8E0F8A30C0F08E2F90E0FC01E15482
:103B7000F109E632F10568F4E951FF4F61C7862D7E
:103B80000BC0852D09C0842D07C0832D05C0822D53
:103B900003C0882D01C0872DF7019281890F828390
:103BA000B092D50D9CC0E98180ED8E0F8A30C0F0B7
:103BB0008E2F90E0FC01E154F109E632F10568F442
:103BC000E35FFE4F3DC7862D0BC0852D09C0842DB8
:103BD00007C0832D05C0822D03C0882D01C0872D0D
:103BE0008295807FF7018383A092D50D78C0E9810B
:103BF00080ED8E0F8A30C0F08E2F90E0FC01E154F2
:103C0000F109E632F10568F4ED5CFE4F19C7862D27
:103C10000BC0852D09C0842D07C0832D05C0822DC2
:103C200003C0882D01C0872DF7019381890F8383FD
:103C30009092D50D54C089818E3349F51092D50DDF
:103C40009091A20D8091330D98130EC00E9497148D
:103C5000882379F0EBE3FDE08FE480838BE48183BC
:103C600082E00E94571445C081E08093340D109289
:103C7000330DEBE3FDE08BE480838FE4818380915F
:103C8000340D805D828383E00E94571432C04091DE
:103C9000330D242F30E0E98180ED8E0F8A30C0F0A3
:103CA0008E2F90E0FC01E154F109E632F10568F451
:103CB000E75AFE4FC5C6862D0BC0852D09C0842D41
:103CC00007C0832D05C0822D03C0882D01C0872D1C
:103CD000F901E156F24F84834F5F4093330D0F5F3C
:103CE0001F4F8091D60D9091D70D0817190708F432
:103CF00070CE8091360D813009F03FC08091D50D96
:103D000081113BC00E94E60C0091370D1091380DD7
:103D10002091390D30913A0DDC01CB01801B910BC4
:103D2000A20BB30B8B3F9105A105B10530F10FE953
:103D30001DE084E0F801818388E0828313820E9481
:103D400097140F2EF3E0FF2EF02DF801F18282E0A0
:103D5000828313820E949714F801F18285E08283A6
:103D600013820E9497140E94E60C6093370D7093A3
:103D7000380D8093390D90933A0D0F90DF91CF91CC
:103D80001F910F91FF90EF90DF90CF90BF90AF9079
:103D90009F908F907F906F905F904F903F902F906B
:103DA00008954F925F926F927F928F929F92AF92FF
:103DB000BF92CF92DF92EF92FF920F931F93CF9318
:103DC000DF9380910A01882309F470C0C0E0D1E03C
:103DD0000F2EF8E0CF2EF1E0DF2EF02D0E94C40C64
:103DE0004B015C01D13069F4D601ED91FC91B7E053
:103DF000CB9FE00DF11D11240180F281E02D09958A
:103E0000D82FE7E0CE9F80011124D601ED90FC90E1
:103E1000E00EF11E0E94C40CDC01CB018819990947
:103E2000AA09BB09F70183839483A583B683D601CE
:103E30008D919C911197FC01E00FF11FC083CF5F22
:103E400012968C91C81750F232C00E94C40C2B01FC
:103E50003C01D13039F4D6011196ED91FC911297C5
:103E60000995D82FD5011396ED91FC911497E00F89
:103E7000F11FC0831396ED90FC901497E00EF11E95
:103E80000E94C40CDC01CB0184199509A609B7096D
:103E9000F70185839683A783B087CF5F035F1F4FAA
:103EA000FDE0CF0ED11CC23081F611C0D1E00F2E43
:103EB000F6E1CF2EF1E0DF2EF02D00E010E0C0E0C3
:103EC0000F2EF8E0AF2EF1E0BF2EF02DBECF0E94F6
:103ED000650D8D2FDF91CF911F910F91FF90EF9086
:103EE000DF90CF90BF90AF909F908F907F906F901A
:103EF0005F904F9008956F927F928F929F92AF92B2
:103F0000BF92CF92DF92EF92FF920F931F93CF93C6
:103F1000DF930E94C40C4B015C01C0E0D0E008E0DC
:103F200011E00E94C40C6B017C01D8011396ED9145
:103F3000FC911497EC0FFD1F0380F481E02D09958F
:103F40000E94170CF801638074806C0E7D1E0E9425
:103F5000C40CDC01CB018C199D09AE09BF09F3012A
:103F600085839683A783B087D8011396ED91FC9142
:103F70001497EC0FFD1F45815681678170858185FF
:103F80009285A385B48584179507A607B70710F413
:103F9000DB01CA0181879287A387B4872D96CA3136
:103FA000D10509F0BECF0E94C40CDC01CB018819F9
:103FB0009909AA09BB0980930E0190930F01A09360
:103FC0001001B0931101E8E0F1E00285138524852A
:103FD0003585081719072A073B0710F48C019D0146
:103FE000028713872487358781E0DF91CF911F9166
:103FF0000F91FF90EF90DF90CF90BF90AF909F9088
:104000008F907F906F9008958093160F089585E1AB
:104010009FE008952091D80D222331F0AC0168E192
:104020007CEF82E10C94C00B08958091D80D882319
:1040300039F081E08093DA0D80ED97E0EBDF81E0ED
:1040400008958093F40D81E008958091F40D089512
:104050008091F50D9091F60D08958091F70D909156
:10406000F80D08958091F90D9091FA0D08958091C1
:104070001D0F90911E0F089590931E0F80931D0F9A
:104080000895E82FF0E0EE0FFF1FED5DF04F808107
:104090009181089580911B0F90911C0F089590932A
:1040A0001C0F80931B0F0895E82FF0E0EE0FFF1F09
:1040B000E15EF04F8081918108958AE29FE008954A
:1040C0009C012A5F31092F3B3A4030F490932F0F27
:1040D00080932E0F81E0089580E0089580912E0F47
:1040E00090912F0F089582E080932B0F81E0089527
:1040F000CF93C82F682F880F770B77231CF4719507
:1041000061957109072E000C880B990BDAD120E01C
:1041100030E040E252E436D1181624F0C0932C0F60
:1041200081E001C080E0CF910895FF920F931F932B
:10413000CF93DF93C82FD62F842FF22ED9DFEAE258
:10414000FFE0F38281818D1305C080912A0F8C13CB
:1041500062C05CC0EAE2FFE0D18315830483808102
:10416000C81709F45DC0C0932A0FC11119C08BECA8
:1041700091E0E2E3FFE0A0E4BFE02EE33FE08193C3
:1041800091931D920496E217F307C9F7EAE2FFE064
:1041900084E0858B148A82E090E0958F848F40C004
:1041A000C130C9F483E891E0E2E3FFE0A0E4BFE0BE
:1041B0002EE33FE0819391931D920C96E217F30753
:1041C000C9F7EAE2FFE08CE0858B148A8AE090E090
:1041D000958F848F25C0C23019F583E591E0E2E325
:1041E000FFE0A0E4BFE02EE33FE0819391931D92B6
:1041F0000896E217F307C9F7EAE2FFE088E0858B4B
:10420000148A86E090E0958F848F0AC010932F0F58
:1042100000932E0F05C010932F0F00932E0FA3CFE6
:1042200081E0DF91CF911F910F91FF9008958091D0
:104230002C0F08959AE5980F953B20F480932D0F4D
:1042400081E0089580E0089580912D0F08959F9357
:104250009F7785D10F9000203AF49058A2EA2AED7A
:104260003FE049E450E413D046C25058BB27AA2788
:104270000ED041C20AD230F00FD220F031F49F3F6D
:1042800011F41EF4DAC10EF4E095E7FBA7C1E92FA3
:1042900043D280F3BA17620773078407950718F0B3
:1042A00071F49EF572C20EF4E0950B2EBA2FA02D7C
:1042B0000B01B90190010C01CA01A0011124FF27D3
:1042C000591B99F0593F50F4503E68F11A16F040CE
:1042D000A22F232F342F4427585FF3CF46953795CD
:1042E0002795A795F0405395C9F77EF41F16BA0B92
:1042F000620B730B840BBAF09150A1F0FF0FBB1F40
:10430000661F771F881FC2F70EC0BA0F621F731F88
:10431000841F48F4879577956795B795F7959E3FE5
:1043200008F0B3CF9395880F08F09927EE0F979573
:1043300087950895DF93DD27B92FBF7740E85FE3C6
:104340001616170648075B0710F4D92F29D29F933A
:104350008F937F936F93F0D2EEEFF2E071D1CBD1D8
:104360002F913F914F915F912ED2DD2349F09058CC
:10437000A2EA2AED3FE049EC5FE3D0785D2787DFD2
:10438000DF91B9C107D108F481E008950CD0B3C121
:1043900083D140F07AD130F021F45F3F19F01EC193
:1043A0005111F4C14AC1B8D198F39923C9F35523E7
:1043B000B1F3951B550BBB27AA2762177307840718
:1043C00038F09F5F5F4F220F331F441FAA1FA9F3CE
:1043D00033D00E2E3AF0E0E830D091505040E695C0
:1043E000001CCAF729D0FE2F27D0660F771F881F21
:1043F000BB1F261737074807AB07B0E809F0BB0B10
:10440000802DBF01FF2793585F4F2AF09E3F510533
:1044100068F0E4C0BBC15F3FECF3983EDCF38695E7
:1044200077956795B795F7959F5FC9F7880F911DA9
:104430009695879597F90895E1E0660F771F881F95
:10444000BB1F621773078407BA0720F0621B730B48
:10445000840BBA0BEE1F88F7E095089504D068949A
:10446000B11194C1089560D188F09F5790F0B92F91
:104470009927B751A0F0D1F0660F771F881F991FB9
:104480001AF0BA95C9F712C0B13081F07ED1B1E00F
:1044900008957BC1672F782F8827B85F39F0B93F1F
:1044A000CCF3869577956795B395D9F73EF49095BB
:1044B0008095709561957F4F8F4F9F4F0895E89439
:1044C00009C097FB3EF490958095709561957F4F5C
:1044D0008F4F9F4F9923A9F0F92F96E9BB2793950A
:1044E000F695879577956795B795F111F8CFFAF41A
:1044F000BB0F11F460FF1BC06F5F7F4F8F4F9F4F4B
:1045000016C0882311F096E911C0772321F09EE8A8
:10451000872F762F05C0662371F096E8862F70E00E
:1045200060E02AF09A95660F771F881FDAF7880FE8
:104530009695879597F9089511D180F09F3740F4AB
:1045400091110EF023C160E070E080E89FEB0895C8
:1045500026F41B16611D711D811D46C060C0DF93CE
:10456000CF931F930F938B01EC01EBE2F3E068D044
:10457000C2D09801AE018B01EC0160E070E080E8F0
:104580009FE373DE9BD19801AE010F911F91CF91F4
:10459000DF9119C1990F0008550FAA0BE0E8FEEF53
:1045A00016161706E807F907C0F012161306E407F7
:1045B000F50798F0621B730B840B950B39F40A26F0
:1045C00061F0232B242B252B21F408950A2609F4CE
:1045D000A140A6958FEF811D811D089597F99F67D2
:1045E00080E870E060E00895882371F4772321F07B
:1045F0009850872B762F07C0662311F499270DC09A
:104600009051862B70E060E02AF09A95660F771F34
:10461000881FDAF7880F9695879597F908959F3F39
:1046200031F0915020F4879577956795B795880F6D
:10463000911D9695879597F908959FEF80EC0895C1
:10464000DF93CF931F930F93FF92EF92DF927B0143
:104650008C01689405C0DA2EEF01B5D0FE01E89414
:10466000A5912591359145915591AEF3EF010FDE5E
:10467000FE019701A801DA9479F7DF90EF90FF909F
:104680000F911F91CF91DF91089500240A9416167F
:10469000170618060906089500240A941216130630
:1046A000140605060895C9CF3FD0E8F3E894E0E08A
:1046B000BB279F57F0F02AED3FE049EC06C0EE0F14
:1046C000BB0F661F771F881F28F0B23A6207730777
:1046D000840728F0B25A620B730B840BE3959A950A
:1046E00072F7803830F49A95BB0F661F771F881FCA
:1046F000D2F7904896CF092E0394000C11F488232A
:1047000052F0BB0F40F4BF2B11F460FF04C06F5F89
:104710007F4F8F4F9F4F089557FD9058440F551F5F
:1047200059F05F3F71F04795880F97FB991F61F033
:104730009F3F79F087950895121613061406551FAA
:10474000F2CF4695F1DF08C0161617061806991F16
:10475000F1CF86957105610508940895E5DFA0F015
:10476000BEE7B91788F4BB279F3860F41616B11D51
:10477000672F782F8827985FF7CF8695779567956D
:10478000B11D93959639C8F30895E894BB27662721
:104790007727CB0197F90895FDDE08F48FEF089590
:1047A0009B01AC0160E070E080E89FE3EFCD0BD0AF
:1047B000A2CF6BDF28F070DF18F0952309F00ECF41
:1047C0003CCF1124E3CFA8DFA0F3959FD1F3950F41
:1047D00050E0551F629FF001729FBB27F00DB11D85
:1047E000639FAA27F00DB11DAA1F649F6627B00D15
:1047F000A11D661F829F2227B00DA11D621F739FFE
:10480000B00DA11D621F839FA00D611D221F749F0B
:104810003327A00D611D231F849F600D211D822F52
:10482000762F6A2F11249F5750408AF0E1F0882399
:104830004AF0EE0FFF1FBB1F661F771F881F9150A6
:104840005040A9F79E3F510570F0C8CE9FCF5F3F03
:10485000ECF3983EDCF3869577956795B795F795D9
:10486000E7959F5FC1F7FE2B880F911D9695879561
:1048700097F9089559DFE0F09E37D8F09639B8F4EB
:104880009E3848F4672F782F8827985FF9CF869550
:104890007795679593959539D0F3B62FB1706B0FD7
:1048A000711D811D20F487957795679593959CCE12
:1048B000B6CE6CCF11F40EF4C0CEB1CE35DFD0F34E
:1048C0009923D9F3CEF39F57550B87FF58D0002477
:1048D000A0E640EA900180585695979528F4805CB0
:1048E000660F771F881F20F026173707480730F418
:1048F000621B730B840B202931294A2BA695179430
:104900000794202531254A2758F7660F771F881FFF
:1049100020F026173707480730F4620B730B840B1F
:10492000200D311D411DA09581F7B901842F9158AB
:10493000880F9695879508959B01AC0138CFDF933A
:10494000D92FB2DEE695D7952AED3FE049E45FE343
:10495000B33A6207730784079507D7952AF0A2EA4E
:1049600049EC906894DCC7DEE3E5F3E00FD0DD0F9F
:104970000BF016DFDD0F0BF49058DF910895915086
:104980005040660F771F881FD2F708959F938F932B
:104990007F936F93FF93EF939B01AC0108DFEF913F
:1049A000FF914EDE2F913F914F915F9100CFAA1B57
:1049B000BB1B51E107C0AA1FBB1FA617B70710F00A
:1049C000A61BB70B881F991F5A95A9F7809590953C
:1049D000BC01CD01089597FB072E16F4009406D074
:1049E00077FD08D0E4DF07FC05D03EF49095819573
:1049F0009F4F0895709561957F4F0895A1E21A2EFB
:104A0000AA1BBB1BFD010DC0AA1FBB1FEE1FFF1F72
:104A1000A217B307E407F50720F0A21BB30BE40BC2
:104A2000F50B661F771F881F991F1A9469F7609509
:104A30007095809590959B01AC01BD01CF010895C3
:104A4000EE0FFF1F0024001C0BBE0790F691E02D17
:104A50000994A29FB001B39FC001A39F700D811D57
:104A60001124911DB29F700D811D1124911D089577
:104A70000F931F93CF93DF93CDB7DEB72E970FB66B
:104A8000F894DEBF0FBECDBF0D891E8986E08C83F2
:104A90001A8309838FEF9FE79E838D83AE01475E64
:104AA0005F4F6F89788DCE01019610D0EF81F88528
:104AB000E00FF11F10822E960FB6F894DEBF0FBEE6
:104AC000CDBFDF91CF911F910F9108952F923F920B
:104AD0004F925F926F927F928F929F92AF92BF920E
:104AE000CF92DF92EF92FF920F931F93CF93DF93BA
:104AF000CDB7DEB72B970FB6F894DEBF0FBECDBF94
:104B00006C017B018A01FC0117821682838181FF7F
:104B1000BFC1CE0101963C01F6019381F70193FDDF
:104B2000859193FF81917F01882309F4ADC185327E
:104B300039F493FD859193FF81917F01853221F4B2
:104B4000B60190E0D6D1E8CF912C212C312CFFE199
:104B5000F315D8F08B3279F038F4803279F0833263
:104B6000A1F4232D20611DC08D3261F0803369F4E2
:104B7000232D216016C0832D8260382EE32DE46042
:104B80003E2E2AC0F32DF8601DC037FC2DC020ED4D
:104B9000280F2A3040F08E32B9F436FC75C1232D2F
:104BA0002064322E19C036FE06C08AE0989E200D81
:104BB0001124922E11C0EAE02E9E200D1124222EE7
:104BC000F32DF0623F2E08C08C3621F4832D8068CF
:104BD000382E02C0883641F4F70193FD859193FF8A
:104BE00081917F018111B3CF982F9F7D9554933090
:104BF00028F40C5F1F4F9FE399830DC0833631F07B
:104C0000833771F0833509F055C020C0F8018081E9
:104C100089830E5F1F4F88248394912C530112C007
:104C20002801F2E04F0E511CF801A080B18036FE41
:104C300003C0692D70E002C06FEF7FEFC5014ED158
:104C40004C018201F32DFF773F2E15C0280122E091
:104C5000420E511CF801A080B18036FE03C0692DC0
:104C600070E002C06FEF7FEFC5012DD14C01F32D35
:104C7000F0683F2E820133FC19C0822D90E0881627
:104C80009906A0F4B60180E290E033D12A94F5CFE2
:104C9000F50137FC859137FE81915F01B60190E007
:104CA00028D121102A9421E0821A910881149104BC
:104CB00079F7E1C0843611F0893639F5F80137FE0D
:104CC00007C060817181828193810C5F1F4F08C092
:104CD00060817181072E000C880B990B0E5F1F4FAE
:104CE000F32DFF763F2E97FF09C090958095709524
:104CF00061957F4F8F4F9F4FF0683F2E2AE030E045
:104D0000A30133D1882E861844C0853731F4232D72
:104D10002F7EB22E2AE030E025C0932D997FB92E48
:104D20008F36C1F018F4883579F0AEC0803719F0AD
:104D3000883721F0A9C0E92FE061BE2EB4FE0DC076
:104D4000FB2DF460BF2E09C034FE0AC0292F266057
:104D5000B22E06C028E030E005C020E130E002C0FD
:104D600020E132E0F801B7FE07C0608171818281E5
:104D700093810C5F1F4F06C06081718180E090E0DD
:104D80000E5F1F4FA301F1D0882E8618FB2DFF77F1
:104D90003F2E36FE0DC0232D2E7FA22E891458F4EF
:104DA00034FE0BC032FC09C0832D8E7EA82E05C0B8
:104DB000B82CA32C03C0B82C01C0B92CA4FE0FC082
:104DC000FE01E80DF11D8081803321F49A2D997E3A
:104DD000A92E09C0A2FE06C0B394B39404C08A2DC4
:104DE000867809F0B394A3FC10C0A0FE06C0B214EC
:104DF00080F4280C922C9B180DC0B21458F4B60104
:104E000080E290E076D0B394F8CFB21418F42B1867
:104E100002C0982C212CA4FE0FC0B60180E390E0C4
:104E200068D0A2FE16C0A1FC03C088E790E002C0D3
:104E300088E590E0B6010CC08A2D867851F0A1FE7D
:104E400002C08BE201C080E2A7FC8DE2B60190E0D7
:104E500050D0891430F4B60180E390E04AD09A949F
:104E6000F8CF8A94F301E80DF11D8081B60190E03E
:104E700040D08110F6CF222009F44ECEB60180E258
:104E800090E037D02A94F7CFF6018681978102C04F
:104E90008FEF9FEF2B960FB6F894DEBF0FBECDBFFE
:104EA000DF91CF911F910F91FF90EF90DF90CF9006
:104EB000BF90AF909F908F907F906F905F904F903A
:104EC0003F902F900895FC010590615070400110B3
:104ED000D8F7809590958E0F9F1F0895FC01615023
:104EE000704001900110D8F7809590958E0F9F1F0C
:104EF00008950F931F93CF93DF93FB01238121FD2F
:104F000003C08FEF9FEF2CC022FF16C04681578150
:104F1000248135814217530744F4A081B1819D015A
:104F20002F5F3F4F318320838C93268137812F5F02
:104F30003F4F3783268314C08B01EC01FB010084B3
:104F4000F185E02D0995892BE1F6D80116968D9112
:104F50009C911797019617969C938E931697CE0166
:104F6000DF91CF911F910F910895FA01AA27283060
:104F700051F1203181F1E8946F936E7F6E5F7F4F26
:104F80008F4F9F4FAF4FB1E03ED0B4E03CD0670FA2
:104F9000781F891F9A1FA11D680F791F8A1F911DF5
:104FA000A11D6A0F711D811D911DA11D20D009F445
:104FB00068943F912AE0269F11243019305D319387
:104FC000DEF6CF010895462F4770405D4193B3E070
:104FD0000FD0C9F7F6CF462F4F70405D4A3318F017
:104FE000495D31FD4052419302D0A9F7EACFB4E0C8
:104FF000A6959795879577956795BA95C9F7009780
:105000006105710508959B01AC010A2E0694579520
:10501000479537952795BA95C9F7620F731F841F77
:10502000951FA01D0895F999FECF92BD81BDF89AF4
:10503000992780B50895262FF999FECF1FBA92BD02
:1050400081BD20BD0FB6F894FA9AF99A0FBE019669
:065050000895F894FFCF63
:1050560002041011181900003001051601020000A3
:10506600000000000000007C1C911C0000000000F5
:1050760000000001AF103A1100000000000000001F
:1050860000A40C0000000001320D00000000027DAB
:10509600030000000003480F0000000004F10D00AB
:1050A6000000002F5F5F5F5F5F5F5C5F5C2F5F5F8D
:1050B6005F5F5F5F5F5F5C2F5F5F5F5F5F5F5C2F60
:1050C6005F5F5F5F5F5F5F5F5C2F5F2F5F5F5F5F4D
:1050D6005F5F5C2F5F5F5F5F5F5F5F5F5F5F5C5F10
:1050E6005C2F5F5F5F5F5F5F5F5F5F5F5F5F5C2F30
:1050F6005F5F5F5F5F5F5F5F5F5F5F5F5C2F5F5FED
:105106005F5F5F5F5F5F5F5F5F5F5C2F5F5F5F5FDC
:105116005F5F5F5F5F5F5F5F5C2F5F2F5F5F5C5FFF
:105126005C2F5F2F5F5F5C5F5C2F5F2F5F5F5C5F55
:105136005C2F5F22002100200000220021002000B9
:10514600012200210020000222002100200003226B
:105156000021002000042200210020000522002159
:10516600002000062200210020000725002400233D
:10517600000025002400230001250024002300024E
:105186002500240023000325002400230004250015
:105196002400230005250024002300062500240002
:1051A60023000728002700260000280027002600E5
:1051B60001280027002600022800270026000328D1
:1051C60000270026000428002700260005280027BF
:1051D60000260006280027002600072B002A0029A3
:1051E60000002B002A002900012B002A00290002BA
:1051F6002B002A002900032B002A002900042B007B
:105206002A002900052B002A002900062B002A0067
:10521600290007256425303258253032582530328A
:105226005800253031582530315800253034580083
:0A52360025303258253031580000B1
:00000001FF
