S02B0000646973742F52656C656173652F70726F64756374696F6E2F68657861706F642E70726F64756374690A
S11300000C9446000C9465000C9465000C946500F7
S11300100C9465000C9465000C9465000C946500C8
S11300200C9465000C94F7020C9465000C94650024
S11300300C9465000C9465000C9465000C946500A8
S11300400C9465000C9465000C946C020C9465008F
S11300500C943B040C9460040C94F5040C9465001B
S11300600C9465000C9465000C9465000C94650078
S11300700C9493040C94B8040C94EB040C94650055
S11300800C9465000C9465000C94650011241FBE4B
S1130090CFEFD0E4DEBFCDBF11E0A0E0B1E0EAE6EF
S11300A0FDE000E00BBF02C007900D92A83EB1072F
S11300B0D9F729E0A8EEB1E001C01D92A13EB20734
S11300C0E1F70E941A060C94B3060C940000809188
S11300D08707813049F580918907813091F48091B7
S11300E086070E940C0181111DC0809188078F5FD3
S11300F080938807809188078A30B0F0109289072E
S113010011C0809186070E940C01813059F49091AE
S113011088079F5F90938807909188079A3020F012
S11301208093890710928807089527E630E041E01C
S113013065E070E080E00E94B50281E008958111DD
S113014011C0809100018093860781E08093870726
S11301501092880710928A078093890780918607F6
S11301600C94EC0080E0089580E090E00E949D06ED
S113017091E08F3F09F490E0892F08950E94B40024
S1130180813051F060E181E090E00E94A50660E5D5
S113019082E090E00E94A50681E0089561E080E09D
S11301A090E00C94A5068032A8F497E0899FF001B2
S11301B01124E95FFE4FA281B3812C9181E090E08C
S11301C0068002C0880F991F0A94E2F7822B8C9351
S11301D081E0089580E008958032E0F497E0899FFB
S11301E0F0011124E95FFE4FA281B3818C9121E0DB
S11301F030E0068002C0220F331F0A94E2F72095F4
S113020082238C930190F081E02D80812823208328
S113021081E0089580E0089527E0829FC0011124C1
S1130220FC01E95FFE4FA481B5818C9190E00680CA
S113023002C0959587950A94E2F78170089527E0A6
S1130240829FC0011124DC01A95FBE4FED91FC9196
S11302501197808116969C91462F4095242F2170EA
S1130260092E01C0220F0A94EAF72095282320833F
S1130270808101C0660F9A95EAF7682B6083089520
S1130280FF920F931F93CF93DF9300E010E08BE076
S1130290F82EF09EE001F19ED00D1124C557D84FE1
S11302A08A81813099F59981911113C02D813E8104
S11302B0A9014F5F5F4F5E834D834B815C81421781
S11302C0530738F48983888160E00E941F011E82ED
S11302D01D82F09EE001F19ED00D1124C557D84F28
S11302E08981813099F48F8198859C012F5F3F4FDC
S11302F038872F8329853A852817390738F41982D6
S1130300888161E00E941F0118861F820F5F1F4FC2
S11303100430110509F0BDCFDF91CF911F910F91EA
S1130320FF90089520E431E041E061E070E081E075
S11303300E94B50281E008958430E0F490E0FC016D
S1130340EF5FFE4F20813BE0389FF001399FF00DB5
S11303501124E557F84F208381E0818312821482AF
S11303601382168215821086178212861186808166
S11303700C94D30080E008958430B8F49BE0899F06
S1130380F0011124E557F84F12828181811105C0D3
S113039081E08183808161E006C08181813029F41C
S11303A01182808160E00E941F0180E00895843002
S11303B088F49BE0899FF0011124E557F84F1282DD
S11303C0611102C0118203C0613021F46183808114
S11303D00E941F0180E008950F931F93CF93DF9332
S11303E08231E0F496E1899FE0011124C851DE4F87
S11303F08D819E818617970789F08A0189819A8168
S11304009C838B837E836D830E9461026F837887D4
S113041089879A871C870B8781E001C080E0DF9180
S1130420CF911F910F910895823138F426E1829F74
S1130430C001112488519E4F089580E090E00895F2
S1130440109274031092750310927603109277033E
S113045014BC16BC84B58E7F84BD84B58D7F84BDE9
S113046085B5877F85BD85B5826085BD85B58E7F61
S113047085BDEEE6F0E080818160808308953FB71A
S1130480F8948091740390917503A0917603B091D0
S1130490770326B5A89B05C02F3F19F00196A11D2F
S11304A0B11D3FBFBA2FA92F982F8827820F911D06
S11304B0A11DB11DBC01CD019695879577956795D2
S11304C008950E943F0228EE33E040E050E00E948D
S11304D07B06CA01B90108951F920F920FB60F92BD
S11304E011248F939F93AF93BF9380917403909142
S11304F07503A0917603B09177030196A11DB11DF8
S11305008093740390937503A0937603B093770359
S1130510BF91AF919F918F910F900FBE0F901F903D
S11305201895E7EBF7E01082108617821186118A7E
S1130530108A128A128E118E138E13A212A2109296
S1130540B0001092B200E1EBF0E080818160808322
S11305508081846080838DE78093B300B99AE0E75B
S1130560F0E0808182608083089559E0859FC00116
S11305701124FC01E954F84F7283618314821382BD
S113058045833087278381E08083089529E0829F13
S1130590C0011124FC01E954F84F10821282118227
S11305A01482138282E08583108617820895E0E71F
S11305B0F0E080818D7F80838DE78093B300A7EB8B
S11305C0B7E014961C921E9213971D961C921E92CD
S11305D01C9756961C921E9255975F961C921E92DB
S11305E05E971092B20080818260808308951F928A
S11305F00F920FB60F9211240BB60F92EF92FF9247
S11306000F931F932F933F934F935F936F937F9316
S11306108F939F93AF93BF93CF93DF93EF93FF9306
S11306201091B200C0E0D0E009E00C9FF0010D9FF2
S1130630F00D1124E954F84F8081813031F5838124
S1130640948101969483838323813481818192816F
S113065028173907D1F485818230B9F014821382C6
S1130660858181110AC0E780F0848C2F0E94C60224
S1130670E114F10451F0F70107C087819085892BBB
S113068021F00780F085E02D09952196C430D1052D
S113069061F68091B20014581093B300FF91EF916A
S11306A0DF91CF91BF91AF919F918F917F916F9186
S11306B05F914F913F912F911F910F91FF90EF9078
S11306C00F900BBE0F900FBE0F901F901895CF92F6
S11306D0DF92EF92FF92CF93DF936B017C01C5E031
S11306E0D1E088810E94D30089810E94D30060E018
S11306F07DE281E391E0A70196010E947B062051EF
S11307003109369527952093B8001092B90084E0FA
S11307108093BC00109279031092780381E0DF91FA
S1130720CF91FF90EF90DF90CF900895653040F522
S1130730811126C08AE090E09093C5008093C400A4
S11307408091C10080618093C1008091C100886064
S11307508093C1008091C20082608093C200809126
S1130760C1008F7B8093C1008091C1008F7D8093F5
S1130770C1008091C10080688093C10081E0089528
S113078080E00895482F50E082E092E0489FF00115
S1130790499FF00D589FF00D1124E558FB4F20811F
S11307A030E02F5F3F4F2F3F310510F020E030E065
S11307B0E2E0F2E04E9FC0014F9F900D5E9F900DCE
S11307C0112486589C4FFC01E20FF31FED5FFE4F8E
S11307D06083FC01EF5FFE4F208381E00895811167
S11307E007C08091C10080628093C10081E00895B8
S11307F080E00895482F50E082E092E0489FF001A5
S1130800499FF00D589FF00D1124E658FC4F2181AB
S113081030E0DF01A20FB31F12968C91608170E06B
S11308202617370799F02F5F3F4F2F3F310510F000
S113083020E030E062E072E0469FF001479FF00D57
S1130840569FF00D1124E658FC4F2183089522E0B1
S113085032E0482F429FC001439F900D1124FC01B8
S1130860E658FC4F80819181891B91E08F3F08F409
S113087090E0890F08951F920F920FB60F921124E2
S11308800BB60F928F939F93EF93FF93E0917A03AC
S113089081E08E0FF0E09091C600E658FC4F928301
S11308A08F3F09F480E080937A03FF91EF919F9149
S11308B08F910F900BBE0F900FBE0F901F90189545
S11308C01F920F920FB60F9211240BB60F928F93B3
S11308D09F93EF93FF9390917C0480917B049817EE
S11308E071F081E0890F8F3F09F480E0E82FF0E098
S11308F0E358FB4F90819093C60080937C049091C1
S11309007B04891305C08091C1008F7D8093C10051
S1130910FF91EF919F918F910F900BBE0F900FBE9F
S11309200F901F9018951F920F920FB60F921124DB
S11309300BB60F928F939F93EF93FF93E0917A03FB
S113094081E08E0FF0E09091CE00E658FC4F928348
S11309508F3F09F480E080937A03FF91EF919F9198
S11309608F910F900BBE0F900FBE0F901F90189594
S11309701F920F920FB60F9211240BB60F928F9302
S11309809F93EF93FF9390917C0480917B0498173D
S113099071F081E0890F8F3F09F480E0E82FF0E0E7
S11309A0E358FB4F90819093CE0080937C04909108
S11309B07B04891305C08091C9008F7D8093C90091
S11309C0FF91EF919F918F910F900BBE0F900FBEEF
S11309D00F901F9018951F920F920FB60F9211242B
S11309E00F900FBE0F901F9018951F920F920FB685
S11309F00F9211240F900FBE0F901F901895CF9354
S1130A00DF938091E1088D3409F064C08091E2089D
S1130A10823108F05FC00E941402EC018091E30867
S1130A20833599F44091E60850E0542F442780918F
S1130A30E708482B6091E4087091E508762767275A
S1130A4076278091E2080E94EC0184E28093DB0720
S1130A508EE38093DC0787E08093DD078DE4809349
S1130A60DE0788818093DF078A818093E00789818C
S1130A708093E1078E818093E2078D818093E30761
S1130A808B859C859093E4078093E507CBEDD7E0B5
S1130A908091DD0790E004969E012B5D3740281776
S1130AA0390728F4699180E00E94C203F1CF809154
S1130AB0E00890E0EEEDF8E004969F012E5D3840EA
S1130AC02817390710F41192F8CF80E0DF91CF9105
S1130AD00C94EF0380E0DF91CF91089564E080E00F
S1130AE00C949603EF92FF920F931F93CF93DF938F
S1130AF080E00E94270490E0909381078093800710
S1130B00039708F45BC0C0E0D0E013E004E0FF24E6
S1130B10F39482E0E82E8091800790918107C817B2
S1130B20D90708F04BC080E00E94FA0390917F0738
S1130B309230C9F028F4992341F0913069F03CC017
S1130B409330B1F09430F9F037C08432A9F5809332
S1130B50DE08F0927F0730C08C3371F58093DF0894
S1130B60E0927F0729C08093E00810937F0724C098
S1130B708093E10810927E078091E008882391F029
S1130B8000937F0719C090917E07E92FF0E0E252AD
S1130B90F74F848381E0890F80937E079091E0086A
S1130BA089130AC010927F07DF91CF911F910F9193
S1130BB0FF90EF900C94FF042196ADCFDF91CF917D
S1130BC01F910F91FF90EF9008950E9495000E944D
S1130BD0920180E00E949F0080E00E949C0181E0DD
S1130BE00E949C0182E00E949C0183E00E949C017F
S1130BF081E0089560E080E00E94D70160E081E038
S1130C000E94D70160E082E00E94D70160E083E0A7
S1130C100C94D70160E080E00E94D70161E081E09C
S1130C200E94D70161E082E00E94D70161E083E085
S1130C300C94D70114BE85B7816085BF85B78D7FBD
S1130C4085BFF8949EE088E10FB6F894A895809348
S1130C5060000FBE9093600078940E9420020E946E
S1130C6091020E94BE0064E080E00E94960360E866
S1130C707AE186E090E00E9467030E946E050E947C
S1130C80E5050E94FA050E94D7020E943F02609384
S1130C9082077093830780938407909385070E944B
S1130CA00A060E94CE00C8E1D8E00FB6F894A895D1
S1130CB0C09360000FBED093600080E00E94BC012E
S1130CC00E943F02009182071091830720918407BC
S1130CD030918507DC01CB01801B910BA20BB30B78
S1130CE08093820790938307A0938407B09385072A
S1130CF00E947205DACFA1E21A2EAA1BBB1BFD01CA
S1130D000DC0AA1FBB1FEE1FFF1FA217B307E407E6
S1130D10F50720F0A21BB30BE40BF50B661F771F3E
S1130D20881F991F1A9469F760957095809590951E
S1130D309B01AC01BD01CF010895F999FECF92BD8D
S1130D4081BDF89A992780B50895262FF999FECF89
S1130D501FBA92BD81BD20BD0FB6F894FA9AF99AD4
S10D0D600FBE01960895F894FFCF2A
S1130D6A0C08090A0B10112200210020000022009D
S1130D7A210020000122002100200002220021007B
S1130D8A2000032200210020000422002100200068
S1130D9A0522002100200006220021002000072548
S1130DAA0024002300002500240023000125002438
S1130DBA0023000225002400230003250024002325
S1130DCA000425002400230005250024002300062E
S1130DDA25002400230007280027002600002800F5
S1130DEA27002600012800270026000228002700E1
S1130DFA26000328002700260004280027002600CE
S1130E0A0528002700260006280027002600072BAD
S1130E1A002A002900002B002A002900012B002A9D
S1130E2A002900022B002A002900032B002A00298A
S1130E3A00042B002A002900052B002A0029000699
S10B0E4A2B002A002900070017
S9030000FC
