:100000007FC000009CC000009AC0000098C00000A3
:10001000A9C1000094C0000092C0000090C0000080
:100020008EC000000C9422118AC0000088C000001D
:1000300086C0000084C0000082C0000080C00000B4
:100040007EC000007CC000000C9498100C9420101E
:100050000C9466140C948B140C94BE1470C00000A5
:100060006EC000006CC000006AC0000068C00000E4
:100070000C94C8140C94ED140C94201560C000006E
:100080005EC000005CC000005AC00000084AD73BB8
:100090003BCE016E84BCBFFDC12F3D6C74319ABD57
:1000A00056833DDA3D00C77F11BED9E4BB4C3E917B
:1000B0006BAAAABE000000803F072C7AA5BA6CC5C7
:1000C00090DA3B9365FC8BBC53F810FD3C56928351
:1000D0004DBD879D3AB63DCBC9BF5BBE73DA0FC934
:1000E0003F05A84CCDB2D44EB93836A9020C50B950
:1000F000918688083CA6AAAA2ABE000000803F007C
:1001000011241FBECFEFD0E4DEBFCDBF15E0A0E0CD
:10011000B1E0EAE9F7E400E00BBF02C007900D92FE
:10012000AA31B107D9F72DE0AAE1B5E001C01D92CF
:10013000A23BB207E1F70E942A150C94CB2360CFB3
:1001400040E860E00C9491120895FADF81E0089590
:10015000CF92DF92EF92FF921F93CF93DF931F9284
:10016000CDB7DEB7182FCB01BA0126E636E646E654
:100170005FE30E9457229B01AC0160E27CEB8EEBB7
:1001800095E40E94352020E030E040E85FE30E94E3
:10019000A11F20E030E040E05FE30E94A21F0E9428
:1001A0000B216B017C011982AE014F5F5F4F60E054
:1001B000812F0E94221249814F76406160E0812F99
:1001C0000E949112C701B6010E94A220462F6EEF35
:1001D000812F0E949112498160E0812F0E9491122B
:1001E00081E090E00E9491104981406A60E0812F97
:1001F0000E9491120F90DF91CF911F91FF90EF908D
:10020000DF90CF900895CF93DF9300D000D0CDB78B
:10021000DEB749835A832B833C83660F660F6A5F80
:1002200024E0AE014F5F5F4F0E94E1120F900F90EC
:100230000F900F90DF91CF910895CF92DF92EF92C0
:10024000FF920F931F93CF93DF930F2EF0E0EF2ECB
:10025000F1E0FF2EF02D02E011E0C0E0D0E06701F8
:10026000F70181917F01A1D560E0F6018081EAD597
:100270006801F80181918F01B1D5F601808107D61F
:10028000FE01E65DFA4F1082FE01EE0FFF1FE25EF7
:10029000FA4F11821082FE01EE0FFF1FEE0FFF1FBB
:1002A000EE5DFA4F10821182128213822196C230C3
:1002B000D105A9F681E0DF91CF911F910F91FF90B9
:1002C000EF90DF90CF9008950F931F93CF93DF931C
:1002D000C82FD0E0FE01E65DFA4F808181111DC07C
:1002E0008E0100501F4F61E0F8018081ABD56AE0BC
:1002F00070E080E090E00E947B1060E0F801808177
:10030000A1D5FE01EE0FFF1FE25EFA4F11821082AF
:10031000C65DDA4F81E0888316C0FE01EE0FFF1F35
:10032000E25EFA4F808191810196918380830A97E2
:1003300050F0FE01E65DFA4F1082CC0FDD1FC25E69
:10034000DA4F1982188280E0DF91CF911F910F91CF
:100350000895E82FF0E0EE0FFF1FE65EFA4F808170
:10036000918108951F920F920FB60F9211240BB630
:100370000F923F924F925F926F927F928F929F92D5
:10038000AF92BF92CF92DF92EF92FF920F931F93A3
:100390002F933F934F935F936F937F938F939F938D
:1003A000AF93BF93CF93DF93EF93FF930F2EF2E0C2
:1003B0008F2EF1E09F2EF02D0F2EFFE2EF2EFBE0AF
:1003C000FF2EF02D0F2EFAE1CF2EF5E0DF2EF02DCF
:1003D000C0E0D0E00F2EFAE34F2E512C612C712C8F
:1003E000F02D6894332431F88E01F40181914F018E
:1003F00016D55701F70181937F010E944F10F50137
:1004000020812130B1F4FE01E65DFA4F20812130D8
:10041000A1F5FE01EE0FFF1FEE0FFF1FEE5DFA4F7D
:100420006083718382839383FE01E65DFA4F30829D
:1004300024C0FE01EE0FFF1FEE0FFF1FEE5DFA4F0F
:100440002081318142815381621B730B840B950B98
:100450006035F3EC7F078105910558F4A301920103
:100460000E945123F60131832083FE01E65DFA4F9D
:100470001082F801E65DFA4F10822196F2E0CF0E6D
:10048000D11CC230D10509F0AFCFFF91EF91DF91C0
:10049000CF91BF91AF919F918F917F916F915F911C
:1004A0004F913F912F911F910F91FF90EF90DF900F
:1004B000CF90BF90AF909F908F907F906F905F9004
:1004C0004F903F900F900BBE0F900FBE0F901F905C
:1004D000189580E092E0E1E3FBE0DF019C011D92D2
:1004E00021503040E1F781E008958038910508F00F
:1004F00066C06032710508F062C04130510529F0D4
:1005000010F142305105F1F10895FB01F695E795A0
:10051000F695E795F695E795F695FE2FEE27F79574
:10052000E7958E0F9F1FFC01EF5CF44F67707727F4
:1005300081E090E002C0880F991F6A95E2F79081F0
:10054000892B80830895FB01F695E795F695E7954D
:10055000F695E795F695FE2FEE27F795E7958E0F22
:100560009F1FFC01EF5CF44F6770772781E090E0FC
:1005700002C0880F991F6A95E2F7809590818923C0
:1005800080830895FB01F695E795F695E795F69536
:10059000E795F695FE2FEE27F795E7958E0F9F1FAF
:1005A000FC01EF5CF44F6770772781E090E002C0B8
:1005B000880F991F6A95E2F79081892780830895B3
:1005C0006F927F928F929F92AF92BF92CF92DF9263
:1005D000EF92FF920F931F93CF93DF934115510535
:1005E000C9F425C0672D782D912CCA0DDB1D6E0D29
:1005F0007F1D472D582DCE0178DF9394692D70E033
:1006000060177107A0F36394C62DD0E0CC15DD050B
:1006100050F00DC089016A017B015C01C0E0D0E0AF
:10062000612C712C812C01151105E1F6ECCF81E0D4
:10063000DF91CF911F910F91FF90EF90DF90CF90BE
:10064000BF90AF909F908F907F906F9008956F9222
:100650007F928F929F92AF92BF92CF92DF92EF9252
:10066000FF920F931F93CF93DF937C01EB016A01FD
:10067000590181E8E816F10408F03CC04138510501
:10068000C8F561327105B0F52132310598F53A01AE
:100690006E187F0821F46217730720F12BC0452BD9
:1006A00049F14901861A970ACB01821B930B8E9D53
:1006B00050018F9DB00C9E9DB00C1124E12CF12CAB
:1006C000C501B3010E943D236C0F7D1FA801C70126
:1006D0000CDF8FEFE81AF80AA80CB91CCE14DF045F
:1006E00079F708C0A801BE01C701FFDE2196CA152F
:1006F000DB05C0F3DF91CF911F910F91FF90EF9039
:10070000DF90CF90BF90AF909F908F907F906F9031
:1007100008958F929F92AF92BF92CF92DF92EF9205
:10072000FF920F931F93CF93DF9380389105F0F4DE
:1007300040385105D8F460327105C0F420323105DB
:10074000A8F46901EA017B014C019B0180DF96015D
:10075000AE01B601C4017BDF9601A401B701C4015B
:1007600076DF9601AE01B701CE0171DFDF91CF9147
:100770001F910F91FF90EF90DF90CF90BF90AF90BF
:100780009F908F9008952F923F924F925F926F9219
:100790007F928F929F92AF92BF92CF92DF92EF9211
:1007A000FF920F931F93CF93DF9300D01F92CDB78B
:1007B000DEB74983252E722E8F77803210F080525B
:1007C00001C080E090E08C01000F111F000F111F8D
:1007D000080F191F085B1D4F580185E0A80EB11CBA
:1007E000E62EF72E55245394612C312C412CC72C26
:1007F000D12C2FC0F801808190E0082C02C0959583
:1008000087950A94E2F780FF06C0A6016A817B8182
:10081000C7016BDE0AC0452D562D772011F0432D00
:10082000542D6A817B81C70160DEFFEF8F1A9F0A1A
:100830008A819B8101969B838A8398E08916910423
:10084000C9F6EFEFEE1AFE0A0F5F1F4FA016B106B2
:1008500031F0F981FA832B82812C912CCBCF0F9030
:100860000F900F90DF91CF911F910F91FF90EF901C
:10087000DF90CF90BF90AF909F908F907F906F90C0
:100880005F904F903F902F9008952F923F924F92FC
:100890005F926F927F928F929F92AF92BF92CF9210
:1008A000DF92EF92FF920F931F93CF93DF9300D0CD
:1008B00000D01F92CDB7DEB7DC011496ED91FC910C
:1008C0001597EF2B09F063C080C0BB81BC832D82DC
:1008D000812C912C969587959695879596958795D9
:1008E0008E9D90018F9D300D9E9D300D1124D8015D
:1008F000ED91FC91E20FF31FC401969587959695B3
:10090000879596958795E80FF91F8081282F30E00D
:10091000C40187709927F50102C0F595E7958A957E
:10092000E2F7CF0182239323892B39F049815A8141
:10093000B6018C819D81D9DD0AC0452D562D7720C9
:1009400011F0432D542DB6018C819D81CEDDFFEF3A
:100950008F1A9F0AD80112968D919C911397EC8162
:10096000FD813196FD83EC838816990608F4B2CF99
:10097000FFEFEF1AFF0A2FEFC21AD20AD80114961E
:100980008D919C911597E816F906B0F01EC0722E55
:10099000272E6B838C01C42ED52EE12CF12C68946C
:1009A000AA24A7F8B12C55245394612C312C412C46
:1009B000E22FF0E0FA83E983D80112968D919C91A1
:1009C0001397009709F081CFD3CF0F900F900F901E
:1009D0000F900F90DF91CF911F910F91FF90EF90AB
:1009E000DF90CF90BF90AF909F908F907F906F904F
:1009F0005F904F903F902F900895262FAC0160E0BC
:100A0000809125010C94E1120895482F60E08091B7
:100A100025010C9491120895CF93DF9365E089E04E
:100A200091E0EBDF8FE7F1DFC0E1D0E020E240E0D2
:100A300060E4809125010E945F132197B9F781E05E
:100A4000DF91CF9108950F931F93CF93DF9365E0CC
:100A500084E091E0D2DF8FE7D8DFC1E3DBE001E3A0
:100A60001DE020E2AE0160E4809125010E94E112C8
:100A7000A096C017D107A9F781E0DF91CF911F9110
:100A80000F9108958093250180E092E0E1E3FBE07F
:100A9000DF019C011D9221503040E1F782E08093FC
:100AA000240164E080E291E0A8DF8FE1AEDF64E042
:100AB0008CE191E0A2DF80912401813011F084E18A
:100AC00001C080E1A2DF64E088E191E096DF64E0AC
:100AD00084E191E092DF89ED98DF809124018130FB
:100AE00011F081EF01C082E290DF66E08EE091E0DC
:100AF00084DF92DFA8DF81E00895ECE7F0E08081F9
:100B00008064808380818068808380818F7E808301
:100B10008081877F8083EBE7F0E080818E7F808318
:100B200080818D7F808380818B7F8083EAE7F0E006
:100B300080818F7B808380818F7D808380818F7E89
:100B400080838081877F80838081816080838081B2
:100B50008260808380818068808381E0089588300E
:100B600070F4ECE7F0E09081907E892B8083EAE7D7
:100B7000F0E0808180648083808186FDFDCF80915C
:100B80007800909179009093320D8093310D6091AF
:100B9000310D7091320D80E090E00E94CE2028E06F
:100BA00030E240E85EE30E9457220E94A220CB017F
:100BB0000895FC01611105C08AE491E0918380836E
:100BC0001BC0613029F48EE391E09183808314C0CF
:100BD000623029F486E591E0918380830DC0633013
:100BE00029F482E691E09183808306C0643021F489
:100BF00082E391E09183808380E190E0938382831C
:100C000086E090E0958384830895FC01643629F49E
:100C100086EA91E09183808319C06B3428F088E9DB
:100C200091E09183808312C0623328F08AE891E0DA
:100C3000918380830BC0693128F08CE791E0918328
:100C4000808304C08EE691E09183808380E190E010
:100C50009383828387E090E0958384830895FC01E9
:100C600086E291E09183808380E190E093838283A8
:100C700086E090E09583848308958091340D8130DF
:100C800051F58091360D813099F48091330DC7D0A4
:100C900081110BC0E3E3FDE082818F5F828382815B
:100CA0008A30C8F01382128208951092350D08958B
:100CB0008091330DB4D0813061F4E3E3FDE08281B3
:100CC0008F5F828382818A3030F081E08383128259
:100CD00008951092350D08952DE336E041E065E06A
:100CE00070E080E00E94DC1081E0089581110DC069
:100CF0008091B401E3E3FDE0808381E0818312828F
:100D00001482838380816AC0089580E0089590E012
:100D1000FC01EE0FFF1FEE0FFF1FE80FF91FED5C48
:100D2000F24F2381211119C0FC01EE0FFF1FEE0FBE
:100D3000FF1FE80FF91FED5CF24F248121111AC04B
:100D4000FC01EE0FFF1FEE0FFF1F8E0F9F1FFC0118
:100D5000ED5CF24F81E084830895FC01EE0FFF1FEC
:100D6000EE0FFF1F8E0F9F1FFC01ED5CF24F1482F0
:100D700080E0089580E0089580E090E00E94B5232F
:100D800091E08F3F09F490E0892F0895F5DF8111FC
:100D90000AC061E381E090E00E94BD2361E382E04C
:100DA00090E00E94BD2381E008958032A8F497E08E
:100DB000899FF0011124E85DFB4FA281B3812C9142
:100DC00081E090E0068002C0880F991F0A94E2F744
:100DD000822B8C9381E0089580E008958032E8F4BE
:100DE00097E0899FF0011124E85DFB4FA281B38158
:100DF0002C9181E090E0068002C0880F991F0A9430
:100E0000E2F78095922F98239C930190F081E02D3A
:100E100090818923808381E0089580E0089527E010
:100E2000829FC0011124FC01E85DFB4FA481B581C4
:100E30008C9190E0068002C0959587950A94E2F720
:100E40008170089527E0829FC0011124DC01A85D14
:100E5000BB4FED91FC911197808116964C9191E0DA
:100E60009627292F217030E0042E02C0220F331F55
:100E70000A94E2F7209528232083808170E002C045
:100E8000660F771F4A95E2F7682B608308958830D4
:100E9000C8F4E8E6F0E0908191609083ABE6B0E0C2
:100EA0002C9197E0899FF0011124E85DFB4F81E0D0
:100EB00090E0068002C0880F991F0A94E2F7822B07
:100EC0008C9308958031C8F4E8E6F0E09081926058
:100ED0009083ACE6B0E02C9197E0899FF00111245B
:100EE000E85DFB4F81E090E0068002C0880F991F0B
:100EF0000A94E2F7822B8C9308958831C8F4E8E6CF
:100F0000F0E0908194609083ADE6B0E02C9197E0A2
:100F1000899FF0011124E85DFB4F81E090E006809D
:100F200002C0880F991F0A94E2F7822B8C930895D0
:100F30008032C0F4E8E6F0E0908198609083A3E707
:100F4000B0E02C9197E0899FF0011124E85DFB4F00
:100F500081E090E0068002C0880F991F0A94E2F7B2
:100F6000822B8C930895CF92DF92EF92FF921F9382
:100F7000CF93DF93C0E0D0E01BE07E011C9FF00127
:100F80001D9FF00D1124E85CF24F8281813009F041
:100F90004BC01C9FF0011D9FF00D1124E85CF24F27
:100FA000818181111CC01C9FF0011D9FF00D112437
:100FB000E85CF24F858196819C012F5F3F4F36831D
:100FC0002583238134812817390748F46F0181E094
:100FD0008183808160E036DFF601168215821E9DD6
:100FE000F0011F9DF00D1124E85CF24F81818130EA
:100FF000D9F41E9DF0011F9DF00D1124E85CF24F05
:10100000878190859C012F5F3F4F30872783218503
:1010100032852817390740F47F011182808161E011
:1010200011DFF701108617822196C430D10509F02F
:10103000A4CFDF91CF911F91FF90EF90DF90CF90E1
:10104000089523EB37E041E061E070E081E00E9429
:10105000DC1081E008958430E0F490E0FC01EB5472
:10106000FE4F20813BE0389FF001399FF00D1124A5
:10107000E85CF24F208381E0818312821482138224
:1010800016821582108617821286118680818DCE77
:10109000089580E00895843088F5282F30E09BE0A3
:1010A000899FF0011124E85CF24F12828181811145
:1010B0000EC08BE0829FF001839FF00D1124E85C4D
:1010C000F24F81E08183808161E0BCDE17C08BE05C
:1010D000829FF001839FF00D1124E85CF24F818123
:1010E000813061F48BE0829FF001839FF00D112429
:1010F000E85CF24F1182808160E0A4DE80E0089518
:10110000843028F5282F30E09BE0899FF0011124DE
:10111000E85CF24F128261110CC08BE0829FF001FB
:10112000839FF00D1124E85CF24F118280818ADEEA
:101130000EC0613061F48BE0829FF001839FF00D5F
:101140001124E85CF24F81E0818380817BDE80E0C6
:1011500008956F927F928F929F92AF92BF92CF929B
:10116000DF92EF92FF920F931F93CF93DF9356D5A9
:101170000DE415E0C0E0D0E0F801D0838C2F54D707
:10118000F80192838183FC01C083FF24F394FC0E59
:101190008F2D4AD7F80194838383FC01F0826894F1
:1011A000FF24F1F8FC0E8F2D3FD7F801968385833D
:1011B000FC01F082DF5F095F1F4FCD5FD630E1F6A3
:1011C000EDE4F5E0A181B2812BEF3FEF12963C9365
:1011D0002E931197A181B28116963C932E93159769
:1011E00052963C932E9351970DED1FEF50961C9302
:1011F0000E931F970F2EF9E1AF2EB12CF02D5496C0
:10120000BC92AE925397C381D481A0E5B0E0BA837B
:10121000A983C381D481BE83AD831A8A198A80EBE6
:101220009FEF988B8F87BC8BAB8BC581D6818CE36E
:1012300090E09A838983C581D6819E838D83C58101
:10124000D6811A8A198A44EC5FEF588B4F879C8BA2
:101250008B8BC085D18566EF7FEF7A836983C085EC
:10126000D1857E836D83C085D1857A8B698B68ED4E
:101270007FEF788B6F870F2EF4E1EF2EF12CF02D9E
:10128000FC8AEB8AC285D38563E570E07A83698343
:10129000C285D3857E836D83C285D3850F2EF3E00F
:1012A000CF2ED12CF02DDA8AC98A0F2EF3EBCF2E58
:1012B000DD24DA94F02DD88ACF867C8B6B8BC485A5
:1012C000D5859A838983C485D5859E838D83C4857E
:1012D000D5851A8A198A588B4F879C8B8B8BC7852B
:1012E000D0896AE070E07A836983C785D0897E837C
:1012F0006D83C785D0897A8B698B0F2EFCEECF2E3C
:10130000DD24DA94F02DD88ACF86C785D0890F2EB8
:10131000F8E2CF2ED12CF02DDC8ACB8AC188D2887E
:101320000F2EFBE46F2E712CF02DE6017A8269827C
:10133000C188D288E6017E826D82C188D288E601AA
:101340003A8B298BC188D2880F2EFBEA8F2E9924E5
:101350009A94F02DE601988A8F86C188D288E6019A
:101360007C8A6B8AC388D4880F2EFDE36F2E712C84
:10137000F02DE6017A826982C388D488E6017E82F4
:101380006D82C388D48888248394912CE6019A8A3C
:10139000898AC388D4880F2EF5EC8F2E99249A94CD
:1013A000F02DE601988A8F86C388D488E6017C8A6E
:1013B0006B8AC688D7880F2EF2E38F2E912CF02DE2
:1013C000E6019A828982C688D788E6019E828D824C
:1013D000C688D788E6019A8A898AC689D789F88A11
:1013E000EF86C689D789BC8BAB8BC08DD18DAFEA18
:1013F000BFEFBA83A983C08DD18DBE83AD83C08D6D
:10140000D18DEE24EA94FE2CFA8AE98AC08DD18D22
:10141000B88BAF87A08DB18DCFE4D0E05496DC932C
:10142000CE935397C28DD38DAEECBFEFBA83A98311
:10143000C28DD38DBE83AD83C28DD38D7A8B698BE4
:10144000C28DD38DB88BAF87A28DB38D66E470E06B
:1014500054967C936E935397A58DB68D67E270E09A
:1014600012967C936E931197A58DB68D16967C93EC
:101470006E931597A58DB68D52967C936E9351976A
:10148000A58DB68D69E070E050967C936E931F97A2
:10149000A58DB68D65E470E054967C936E9353975A
:1014A000A78DB0A16CEB7FEF12967C936E93119792
:1014B000A78DB0A116967C936E931597A78DB0A1BA
:1014C000CCE0D0E05296DC93CE935197A78DB0A19B
:1014D00050967C936E931F97A78DB0A16CE570E03A
:1014E00054967C936E935397A1A1B2A168EC7FEFC1
:1014F00012967C936E931197A1A1B2A116967C933C
:101500006E931597A1A1B2A1C4E0D0E05296DC93EE
:10151000CE935197A1A1B2A150967C936E931F9741
:10152000A1A1B2A160E470E054967C936E935397AE
:10153000A4A1B5A112963C932E931197A4A1B5A195
:1015400016963C932E931597A4A1B5A152963C9361
:101550002E935197A4A1B5A150961C930E931F975B
:10156000A4A1B5A15496BC92AE925397A6A1B7A1DF
:1015700022EB3FEF12963C932E931197A6A1B7A1B1
:1015800016963C932E931597A6A1B7A162E070E042
:1015900052967C936E935197A6A1B7A150963C9317
:1015A0002E931F97A6A1B7A122E530E054963C9355
:1015B0002E935397A0A5B1A512965C934E931197C5
:1015C000A0A5B1A516965C934E931597A0A5B1A5BD
:1015D00052961C921E925197A0A5B1A550965C936D
:1015E0004E931F9700A4F1A5E02D948B838B10924E
:1015F0004C0581E0DF91CF911F910F91FF90EF900B
:10160000DF90CF90BF90AF909F908F907F906F9022
:10161000089527E0829FC0011124835B9A4F0895AB
:10162000CF93C82FCC0FC80F8C2F74D3982F88233B
:1016300069F081E08C0F6ED3982F882339F082E017
:101640008C0F68D391E0811101C090E0892FCF9178
:1016500008952F923F924F925F926F927F928F9256
:101660009F92AF92BF92CF92DF92EF92FF920F9331
:101670001F93CF93DF93CDB7DEB728970FB6F894BB
:10168000DEBF0FBECDBF863008F07CC26B01282EB6
:10169000382E330C380E81E0830D898392E0930D50
:1016A0009A837A01E9E6EE0EF11CC90183589F4F37
:1016B00098878F83669F4001679F900C900C112440
:1016C000EE9CC001EF9C900D900D1124880E991E88
:1016D000092C000CAA08BB08C501B4010E94D02047
:1016E0000E94E42260934005709341058093420577
:1016F00090934305B601DD0C880B990B0E94D02016
:101700004B015C01B701FF0C880B990B0E94D020A4
:101710009B01AC01C501B4010E9435200E94062046
:1017200060932C0570932D0580932E0590932F05C3
:101730008090400590904105A0904205B0904305EF
:10174000C0904005D0904105E0904205F0904305DF
:1017500020E030E040EF51E4C501B4010E94A11F38
:101760002B013C0120E030E040EF51E4C701B6011D
:101770000E94A11F9B01AC01C301B2010E9457222C
:101780006B837C838D839E83EF81F885EE9FC00100
:10179000EF9F900D900D11242C01990F660877088A
:1017A00020E030E040EF51E4C501B4010E94A11FE8
:1017B0004B015C0120E030E040EF51E4C701B6018D
:1017C0000E94A11F9B01AC01C501B4010E945722D8
:1017D0006B017C01C301B2010E94D0209B01AC01CE
:1017E000C701B6010E94A21F0E94E4226093440533
:1017F0007093450580934605909347056091440595
:1018000070914505809146059091470520914405CA
:101810003091450540914605509147050E94572259
:101820009B01AC0160E074E086EA96E40E94A11F8F
:1018300020E03CE742E956E40E9435200E94931FD5
:101840006093300570933105809332059093330592
:10185000C0904405D0904505E0904605F0904705BE
:101860002F813885B901330F880B990B0E94D02046
:10187000A70196010E9435200E94931F60933805AE
:101880007093390580933A0590933B056091440528
:10189000709145058091460590914705209144053A
:1018A000309145054091460550914705809044058B
:1018B00090904505A0904605B09047050E9457229C
:1018C00020E038EC4FEA55E40E94A21F20E034E209
:1018D00044E756E40E94A11F6B017C0120E030E048
:1018E00046E153E4C501B4010E9457229B01AC01BB
:1018F000C701B6010E9435200E94931F60933405F2
:1019000070933505809336059093370560913805BF
:101910007091390580913A0590913B0520913405ED
:101920003091350540913605509137050E94A21F30
:1019300060933C0570933D0580933E0590933F0571
:1019400032E0321508F464C060912C0570912D05C9
:1019500080912E0590912F0520E030E044E353E480
:101960000E9457222BED3FE049E450E40E943520CD
:1019700060932C0570932D0580932E0590932F0571
:1019800080913C0590913D05A0913E05B0913F05A9
:10199000BC01CD01905820E030E044E353E40E94C4
:1019A00057222BED3FE049E450E40E94352020E02F
:1019B00030E044EB52E40E94A21F60933C05709318
:1019C0003D0580933E0590933F05609130057091F1
:1019D0003105809132059091330520E030E044E3F9
:1019E00053E40E9457222BED3FE049E450E40E946B
:1019F000352020E030E044EB52E40E94A11F6093C8
:101A0000300570933105809332059093330566C09D
:101A100080912C0590912D05A0912E05B0912F0558
:101A2000BC01CD01905820E030E044E353E40E9433
:101A300057222BED3FE049E450E40E9435206093AB
:101A40002C0570932D0580932E0590932F056091A2
:101A50003C0570913D0580913E0590913F0520E049
:101A600030E044E353E40E9457222BED3FE049E489
:101A700050E40E94352020E030E044EB52E40E9424
:101A8000A11F60933C0570933D0580933E059093A4
:101A90003F058091300590913105A0913205B091BC
:101AA0003305BC01CD01905820E030E044E353E41D
:101AB0000E9457222BED3FE049E450E40E9435207C
:101AC00020E030E044EB52E40E94A21F6093300516
:101AD00070933105809332059093330560912C0506
:101AE00070912D0580912E0590912F050E94BA22AC
:101AF00027E0229EF0011124E35BFA4FFC83EB8385
:101B0000E180F2800E949D20F70121893289620FD5
:101B1000731FA801832DB9D060913C0570913D05DC
:101B200080913E0590913F050E94BA22EB81FC8195
:101B3000E380F4800E949D20F70121893289620FA1
:101B4000731FA8018981A1D0609130057091310582
:101B500080913205909133050E94BA22EB81FC817D
:101B60000580F681E02DFC83EB830E949D20EB81B4
:101B7000FC8121893289620F731FA8018A8185D077
:101B800081E001C080E028960FB6F894DEBF0FBE5A
:101B9000CDBFDF91CF911F910F91FF90EF90DF901C
:101BA000CF90BF90AF909F908F907F906F905F90FD
:101BB0004F903F902F900895CF92DF92EF92FF9237
:101BC0000F931F93CF938630A0F479016A01C82F39
:101BD000CC0FC80FA8018C2F58D0A801B60181E006
:101BE0008C0F53D0A801B70182E08C0F4ED081E05A
:101BF00001C080E0CF911F910F91FF90EF90DF9097
:101C0000CF90089598D06DD26093480570934905A0
:101C100080934A0590934B0581E00895E7E7F5E04E
:101C200080E04AE550E024EB30E0808312821182AC
:101C300014821382168215821486138617821086E8
:101C40001186128616861586108A1786528B418B4E
:101C5000348B238B158A8F5F7696823131F780E43F
:101C60000E94A50081E40E94A50040E050E060E7EA
:101C700072E480E40E94A80040E050E060E772E473
:101C800081E40E94A80081E00895CF93DF93823120
:101C9000B8F5282F30E096E1899FF0011124E9582A
:101CA000FA4F878590896817790764F186E1829FEA
:101CB000F001839FF00D1124E958FA4F838994892C
:101CC000861797070CF186E1829FF001839FF00D44
:101CD0001124E958FA4F5487438785819681681704
:101CE0007907A1F0EF0181819281948383837683C8
:101CF0006583F7D16F83788789879A8781E007C0EA
:101D000080E005C080E003C080E001C080E0DF919A
:101D1000CF91089526E1829FC0011124FC01E9586A
:101D2000FA4F81E041815281258136814217530764
:101D300009F080E008952F923F924F925F926F9248
:101D40007F928F929F92AF92BF92FF920F931F93B9
:101D5000CF93DF93CDB7DEB72E970FB6F894DEBFE3
:101D60000FBECDBF88E795E010E09E878D87F12EEE
:101D70008F2DD0DF811139C1B4D12D843E84D101A2
:101D800016960D911D912D913C911997601B710B29
:101D9000820B930B0E94CE2069837A838B839C8372
:101DA000F10162817381072E000C880B990B0E9450
:101DB000D0206D837E838F839887D10114960D91F7
:101DC0001C911597B801012E000C880B990B0E94ED
:101DD000D0202D813E814F8158850E94A11F2B016B
:101DE0003C01F1016285738580E090E00E94CE2085
:101DF0004B015C01D10154968C9181111AC0A5014F
:101E0000940169817A818B819C810E943520A30194
:101E100092010E9457222D813E814F8158850E9458
:101E2000A21F0E94BA220E949D20F101718360834B
:101E30008FC0813049F5A501940169817A818B8138
:101E40009C810E9435202BED3FE049EC5FE30E942E
:101E500057220E9432209B01AC01C301B20190586D
:101E60000E945722A30192010E94A21F2D813E8150
:101E70004F8158850E94A21F0E94BA220E949D2075
:101E8000D1016D937C9364C0823021F5A50194014A
:101E900069817A818B819C810E9435202BED3FE006
:101EA00049EC5FE30E9457220E94DA229B01AC01B9
:101EB000C301B2010E9457222D813E814F81588576
:101EC0000E94A21F0E94BA220E949D20F1017183EC
:101ED00060833EC08330E1F5A501940169817A8178
:101EE0008B819C810E9435202BED3FE049E450E43A
:101EF0000E9457220E94322069877A878B879C87AD
:101F0000C301B201905820E030E040E05FE30E945E
:101F100057222B013C0120E030E040E85FE3698577
:101F20007A858B859C850E94A11F9B01AC01C30112
:101F3000B2010E9457222D813E814F8158850E9417
:101F4000A21F0E94BA220E949D20D1016D937C9312
:101F5000A501940169817A818B819C810E944C2228
:101F6000181624F4F1011183008313C0A501940114
:101F700069817A818B819C810E942E20811109C008
:101F8000D1011C96ED91FC911D97309711F08F2D8A
:101F90000995F10120813181265A3F4FA8E9B1E02E
:101FA0000E94732324EB30E040E050E00E94512374
:101FB000CA01B9016E587F4F8F4F9F4F0E94CE20AC
:101FC0000E949D20F8E0FF1548F49B0140E050E09E
:101FD00067EF6F0D80E40E94030107C09B0140E0A2
:101FE00050E06F2D81E40E940301F3948D859E855E
:101FF00046969E878D8792E1F912BACE2E960FB63D
:10200000F894DEBF0FBECDBFDF91CF911F910F912E
:10201000FF90BF90AF909F908F907F906F905F9058
:102020004F903F902F900895823138F426E1829F9F
:10203000C001112489589A4F089580E090E00895D6
:102040001F920F920FB60F9211248F938091030766
:102050008EBD8F910F900FBE0F901F90189510920C
:10206000040710920507109206071092070714BC88
:1020700016BC84B58E7F84BD84B58D7F84BD85B547
:10208000877F85BD85B5826085BD85B58E7F85BD21
:10209000EEE6F0E080818160808381E008953FB7C3
:1020A000F8948091040790910507A0910607B091DC
:1020B000070726B5A89B05C02F3F19F00196A11D63
:1020C000B11D3FBFBA2FA92F982F8827820F911DCE
:1020D000A11DB11DBC01CD0196958795779567959A
:1020E0000895DDDF28EE33E040E050E00E94512308
:1020F000CA01B9010895CF92DF92EF92FF926B016E
:102100007C01CDDFC60ED71EE81EF91EC8DF6C1598
:102110007D058E059F05D0F3FF90EF90DF90CF9067
:1021200008959C01A8EEB3E00E947323E4CF0895C4
:102130001F920F920FB60F9211248F939F93AF931C
:10214000BF938091040790910507A0910607B09175
:1021500007070196A11DB11D809304079093050701
:10216000A0930607B0930707BF91AF919F918F91FE
:102170000F900FBE0F901F901895E4E6FDE01082BF
:10218000108617821186118A108A1092B000109260
:10219000B200E1EBF0E08081816080838081846027
:1021A00080838DE78093B300B99AE0E7F0E0808107
:1021B0008260808381E0089590E0FC01EE0FFF1FB4
:1021C000EE0FFF1FEE0FFF1F8E0F9F1FFC01EC593C
:1021D000F24F728361831482138245833087278391
:1021E00081E08083089590E0FC01EE0FFF1FEE0F69
:1021F000FF1FEE0FFF1F8E0F9F1FFC01EC59F24FC8
:102200001082128211821482138282E085831086EA
:1022100017820895E0E7F0E080818D7F80838DE76D
:102220008093B300A4E6BDE014961C921E9213970F
:102230001D961C921E921C971092B20080818260A3
:10224000808308951F920F920FB60F9211240BB640
:102250000F92EF92FF921F932F933F934F935F93B1
:102260006F937F938F939F93AF93BF93CF93DF939E
:10227000EF93FF931091B200C0E0D0E08C2F9E014D
:10228000FE01EE0FFF1FEE0FFF1FEE0FFF1FEC0F03
:10229000FD1FEC59F24F9081913009F06CC0FE01A6
:1022A000EE0FFF1FEE0FFF1FEE0FFF1FEC0FFD1FC6
:1022B000EC59F24F438154814F5F5F4F5483438306
:1022C00063817481418152816417750709F053C09D
:1022D000F901EE0FFF1FEE0FFF1FEE0FFF1FE20FC2
:1022E000F31FEC59F24F9581923009F444C0F90183
:1022F000EE0FFF1FEE0FFF1FEE0FFF1FE20FF31F8A
:10230000EC59F24F148213829581911115C0F90195
:10231000EE0FFF1FEE0FFF1FEE0FFF1F2E0F3F1FD1
:10232000F901EC59F24FE780F0845DDFE114F1042C
:1023300011F1F70109951FC0F901EE0FFF1FEE0F14
:10234000FF1FEE0FFF1FE20FF31FEC59F24F8781C3
:102350009085892B81F0F901EE0FFF1FEE0FFF1F13
:10236000EE0FFF1F2E0F3F1FF901EC59F24F0780B0
:10237000F085E02D09952196C230D10509F07ECF78
:102380008091B20014581093B300FF91EF91DF9148
:10239000CF91BF91AF919F918F917F916F915F91FD
:1023A0004F913F912F911F91FF90EF900F900BBE97
:1023B0000F900FBE0F901F9018958FEFECEBF0E091
:1023C0000EC0815061F48091080790910907019631
:1023D00090930907809308071092BC00089590819C
:1023E00099237CF70895CF92DF92EF92FF92CF93DB
:1023F000DF936B017C01C9EBD1E088810E94D50697
:1024000089810E94D50660E07DE281E391E0A70129
:1024100096010E945123205131093695279520932A
:10242000B8001092B90084E08093BC0010920907B4
:102430001092080781E0DF91CF91FF90EF90DF903D
:10244000CF9008950F931F93CF93DF93C82FD62F6C
:102450008A0184EA8093BC00B0DF8091B9008830A3
:1024600029F08091B900803109F049C08C2F880F84
:102470008093BB0084E88093BC009FDF8091B9000B
:10248000883109F03EC0D093BB0084E88093BC0043
:1024900094DF8091B9008832B1F584EA8093BC0062
:1024A0008CDF8091B900803181F5CC0FC160C09381
:1024B000BB0084E88093BC0080DF8091B900803449
:1024C00031F584E88093BC0078DF8091B9008835CD
:1024D00001F58091BB00F801808384E98093BC0002
:1024E0008091B900883FB9F0809108079091090761
:1024F0000196909309078093080780E00DC080E063
:102500000BC080E009C080E007C080E005C080E02B
:1025100003C080E001C081E0DF91CF911F910F9156
:1025200008951F93CF93DF93C82FD62F142F84EADB
:102530008093BC0042DF8091B900883021F0809107
:10254000B900803189F5CC0FC093BB0084E880933B
:10255000BC0033DF8091B900883141F5D093BB00D6
:1025600084E88093BC0029DF8091B900883201F5AE
:102570001093BB0084E88093BC001FDF8091B900FA
:102580008832C1F484E98093BC008091B900883F0F
:1025900099F0809108079091090701969093090797
:1025A0008093080780E009C080E007C080E005C094
:1025B00080E003C080E001C081E0DF91CF911F91F6
:1025C00008959F92AF92BF92CF92DF92EF92FF92C7
:1025D0000F931F93CF93DF93C82FF62E8A01D22F2C
:1025E00084EA8093BC00E9DE8091B900883029F04C
:1025F0008091B900803109F051C0CC0FC093BB006D
:1026000084E88093BC00D9DE8091B900883109F05C
:1026100047C0F092BB0084E88093BC00CEDE80917E
:10262000B900883209F03EC0DD2399F17801D1501C
:10263000CD2FD0E02196C00FD11F0F2EFBEBAF2E78
:10264000B12CF02D0F2EFCEBCF2ED12CF02D0F2E18
:10265000F4E89F2EF02D09EB10E0F70181917F0146
:10266000F5018083F6019082A8DEF801808188322E
:1026700059F08091080790910907019690930907F6
:102680008093080780E006C0CE15DF0531F781E0B2
:1026900001C081E094E99093BC0005C081E003C0D3
:1026A00081E001C081E0DF91CF911F910F91FF90F8
:1026B000EF90DF90CF90BF90AF909F900895AF9232
:1026C000BF92CF92DF92EF92FF920F931F93CF931F
:1026D000DF93C82F062F142FD22F84EA8093BC00DB
:1026E0006CDE8091B900883029F08091B90080318A
:1026F00009F047C0CC0FC093BB0084E88093BC00B6
:102700005CDE8091B900883109F03DC00093BB00C8
:1027100084E88093BC0051DE8091B9008832A9F52D
:10272000DD2351F1C0E00F2EFBEBAF2EB12CF02DCD
:102730000F2EFCEBCF2ED12CF02D04E80F2EF9EB51
:10274000EF2EF12CF02DF5011083F601008335DE1C
:10275000F7018081883259F080910807909109072C
:102760000196909309078093080780E006C0CF5F29
:10277000DC13E9CF81E001C081E094E99093BC00D3
:1027800005C081E003C081E001C081E0DF91CF910D
:102790001F910F91FF90EF90DF90CF90BF90AF907F
:1027A0000895653000F5811120C08AE090E0909393
:1027B000C5008093C400E1ECF0E0808180618083FB
:1027C000808188608083A2ECB0E08C9182608C93E1
:1027D00080818F7B808380818F7D808380818068F2
:1027E000808381E0089580E0089580E00895482F77
:1027F00050E082E092E0489FF001499FF00D589F21
:10280000F00D1124E55FF74F20812F5F2F3F09F472
:1028100020E0E2E0F2E04E9FC0014F9F900D5E9FEE
:10282000900D1124865F984FFC01E20FF11DED5FC2
:10283000FE4F6083FC01EF5FFE4F208381E008952F
:10284000811107C0E1ECF0E080818062808381E04B
:10285000089580E00895282F30E082E092E0289FDC
:10286000F001299FF00D389FF00D1124E65FF84F1D
:102870009181DF01A90FB11D12968C9140819417AF
:1028800081F09F5F9F3F09F490E042E052E0249F77
:10289000F001259FF00D349FF00D1124E65FF84FF5
:1028A0009183089522E032E0482F429FC001439F68
:1028B000900D1124FC01E65FF84F80819181891B06
:1028C00091E08F3F08F490E0890F08951F920F92D6
:1028D0000FB60F9211240BB60F928F939F93EF9325
:1028E000FF93E0910A0781E08E0FF0E09091C6001F
:1028F000E65FF84F92838F3F09F480E080930A07E8
:10290000FF91EF919F918F910F900BBE0F900FBE93
:102910000F901F9018951F920F920FB60F921124CF
:102920000BB60F928F939F93EF93FF9390910C08A8
:1029300080910B08981771F081E0890F8F3F09F49F
:1029400080E0E82FF0E0E35FF74F90819093C600BE
:1029500080930C0890910B08891305C0E1ECF0E01E
:1029600080818F7D8083FF91EF919F918F910F9058
:102970000BBE0F900FBE0F901F9018951F920F92D5
:102980000FB60F9211240F900FBE0F901F90189545
:102990001F920F920FB60F9211240BB60F928F93C6
:1029A0009F93EF93FF93E0910A0781E08E0FF0E091
:1029B0009091CE00E65FF84F92838F3F09F480E05C
:1029C00080930A07FF91EF919F918F910F900BBE1B
:1029D0000F900FBE0F901F9018951F920F920FB679
:1029E0000F9211240BB60F928F939F93EF93FF9347
:1029F00090910C0880910B08981771F081E0890F75
:102A00008F3F09F480E0E82FF0E0E35FF74F90811B
:102A10009093CE0080930C0890910B08891305C009
:102A2000E9ECF0E080818F7D8083FF91EF919F91B1
:102A30008F910F900BBE0F900FBE0F901F901895A7
:102A40001F920F920FB60F9211240F900FBE0F908E
:102A50001F90189514BE85B7816085BF85B78D7F9F
:102A600085BFF8949EE088E10FB6F894A89580930E
:102A700060000FBE90936000789437D3D8E1CEE029
:102A80000FB6F894A895D09360000FBEC093600075
:102A900069D3F6CF84E08093780D1092770D109271
:102AA000760D0C947D05089580E00E94AF0590930B
:102AB000770D8093760D8F35910518F01092780D73
:102AC00008958B34910520F081E08093780D08956E
:102AD0008233910520F082E08093780D0895499724
:102AE00020F083E08093780D089584E08093780D42
:102AF00008958091760D08950F931F93CF930E94B0
:102B0000A90809E71DE0C0E08C2F0E94090BF8011D
:102B1000819391938F01CF5FC630B1F781E0CF9160
:102B20001F910F9108950C94B71D089581E00895A9
:102B3000CF93C82F0E94671F882379F0C13021F4FA
:102B400080E062D381E009C0C23021F481E05CD32F
:102B500081E003C084E058D381E0CF9108950C94C4
:102B6000781F08951F93CF93DF93162FEA018A30C1
:102B700040F04AE0BE016E5F7F4F90E00E948223EA
:102B800009C090E39A834AE0BE016D5F7F4F90E0F9
:102B90000E948223143648F0BE016C5F7F4F4AE0EA
:102BA000812F90E00E94822318C01A3058F080E3F1
:102BB0008C83BE016B5F7F4F4AE0812F90E00E94C3
:102BC00082230BC080E38C838D83BE016A5F7F4FBD
:102BD0004AE0812F90E00E948223DF91CF911F91E4
:102BE00008950F931F93CF93DF938C01C62F6CE34F
:102BF00080E0FDDD6C2F70E06115710549F0E801A2
:102C0000060F171F699180E0F2DDC017D107D1F7D9
:102C10006EE380E0ECDD80E013DEDF91CF911F9169
:102C20000F91089510920E0BE5E8FDE010821182DD
:102C3000128264E080E0B5CD0895BF92CF92DF921A
:102C4000EF92FF920F931F93CF93DF93CDB7DEB731
:102C500068970FB6F894DEBF0FBECDBF80E022DECE
:102C600090E09093100B80930F0B892B09F42DC2E9
:102C700000E010E00F2EF5E8EF2EFDE0FF2EF02D26
:102C80006894CC24C1F8BB24B3940F2EF3E0DF2E5C
:102C9000F02D80E0E0DD90910E0B913079F028F07E
:102CA000923089F09330A9F006C28C3309F003C248
:102CB000B0920E0BD70112961C92FDC1F7018083D2
:102CC000C0920E0BF8C1D70111968C93D0920E0BC7
:102CD000F2C18E3309F0DAC1E5E8FDE0128210920C
:102CE0000E0B9E012F5F3F4F84E1D9011D928A9503
:102CF000E9F78181803351F48D8B8E8B81E38F8B4B
:102D0000888F64E0CE0145966CDFB6C1813309F04F
:102D100080C0E5E8FDE08381880F182F110F110FA7
:102D2000180F8481180F123108F0ABC1812F7CD9A4
:102D300020E3298321E32A83FC010385E02EF5802B
:102D4000DF2C1A3048F04AE0BE016D5F7F4F812FC3
:102D500090E00E9482230AC080E38B834AE0BE0198
:102D60006C5F7F4F812F90E00E948223F3E6FD1578
:102D700048F44AE0BE016B5F7F4F8F2D90E00E94C8
:102D8000822319C089E08D1558F480E38D834AE0D1
:102D9000BE016A5F7F4F8F2D90E00E9482230BC09F
:102DA00080E38D838E834AE0BE01695F7F4F8F2D64
:102DB00090E00E94822393E69E1558F480E3888772
:102DC0004AE0BE01675F7F4F802F90E00E94822320
:102DD0001BC0A9E0AE1560F480E3888789874AE0CC
:102DE000BE01665F7F4F802F90E00E9482230CC05F
:102DF00080E3888789878A874AE0BE01655F7F4FC5
:102E0000802F90E00E9482236BE0CE010196E9DEE4
:102E100033C1823309F045C0E5E8FDE08381880FC6
:102E2000982F990F990F890F9481890F823108F09B
:102E300028C1908528EE33E0929FA001939F500D0A
:102E40001124218594E6929F400D511D1124228565
:102E500030E0B901660F771F220F331F220F331F97
:102E6000220F331F260F371F420F531F2385420F98
:102E7000511DA581268130E0B901660F771F220F11
:102E8000331F220F331F220F331F620F731F9A9FAE
:102E9000600D711D11249781690F711D0E94450EEF
:102EA000EBC08333F9F4E5E8FDE08381880F182F48
:102EB000110F110F180F8481180F123108F0E1C0A3
:102EC000812FB2D820E3298323E32A83AE014F5F09
:102ED0005F4FFC016785812F45DE67E0CE010196DB
:102EE00080DECAC0853301F5E5E8FDE08381880F07
:102EF000182F110F110F180F8481180F123108F0BD
:102F0000C0C0812F91D820E3298325E32A83AE0115
:102F10004F5F5F4FDC0153966C91812F23DE67E09A
:102F2000CE0101965EDEA8C0873381F5E5E8FDE0BD
:102F30004581B4E64B9FA0011124268130E0C901F0
:102F4000880F991F220F331F220F331F220F331FA9
:102F5000820F931F278130E0BA01680F791F620F3B
:102F6000731FF48008EE13E0F09ED001F19EB00DC7
:102F700011244A0F5B1F840F951F8C01020F131F32
:102F80009B01AB0183810E94DC0D7BC0883329F556
:102F9000E5E8FDE0248188EE93E0289FB001299FB9
:102FA000700D1124858194E6899F600D711D112497
:102FB000868190E09C01220F331F880F991F880F94
:102FC000991F880F991F820F931F680F791F8781A0
:102FD000680F711D8381AADD4DC0893329F5E5E8AD
:102FE000FDE0248188EE93E0289FB001299F700DB9
:102FF00011248581A4E68A9F600D711D11248681AC
:1030000090E09C01220F331F880F991F880F991F92
:10301000880F991F820F931F680F791F8781680F90
:10302000711D838185DD26C0813459F5E5E8FDE019
:10303000248188EE93E0289FB001299F700D112410
:103040008581B4E68B9F600D711D1124868190E00F
:103050009C01220F331F880F991F880F991F880F1B
:10306000991F820F931F680F791F8781680F711D49
:10307000838175DD882329F062E088E095E0B1DD89
:1030800024C062E08BE095E0ACDD1FC0F7019281C7
:10309000292F30E0F901EB57F24F83838D3239F05D
:1030A0008B3229F0F901EB57F24F805383839F5FF6
:1030B000D70112969C930F5F1F4F80910F0B909139
:1030C000100B0817190708F4E4CD68960FB6F894AA
:1030D000DEBF0FBECDBFDF91CF911F910F91FF904B
:1030E000EF90DF90CF90BF900895EF92FF921F93E3
:1030F000CF93DF930E942F10182F8130A9F43DD871
:10310000182F813089F40E94C606182F813061F48F
:1031100064E080E046DB182F813031F460E87AE12A
:1031200086E090E060D9182FCBEBD1E00F2EF7E2CC
:10313000EF2EF2E0FF2EF02D113021F4E881F9811D
:103140000995182F1C821D821E821F822C96CE1577
:10315000DF0591F75FD8812FDF91CF911F91FF900D
:10316000EF900895CF92DF92EF92FF920F931F930B
:10317000CF93DF93CBEBD1E007E212E00E944F1038
:103180006B017C01EA81FB8109950E944F10DC01F3
:10319000CB018C199D09AE09BF098C839D83AE8339
:1031A000BF83C884D984EA84FB84C816D906EA069A
:1031B000FB0620F488879987AA87BB872C96C017BF
:1031C000D107E1F680E0DF91CF911F910F91FF9041
:1031D000EF90DF90CF9008951092140B1092150B82
:1031E0001092160B1092170B1092130B84E680931B
:1031F00027021092120B1092110B84E080939A0D0B
:103200008CE30C944205089580939A0D0895CF9312
:10321000DF9300D000D000D0CDB7DEB7CE0101964D
:103220000E942F068B819C816CE670E0681B790BF5
:1032300021E040E050E0CE0101960E944504269630
:103240000FB6F894DEBF0FBECDBFDF91CF910895CA
:10325000CF93DF9300D000D000D0CDB7DEB7609120
:103260009A0DCE0101960E94D9058B819C8160E860
:1032700070E0681B790B21E040E050E0CE01019640
:103280000E94450426960FB6F894DEBF0FBECDBF50
:10329000DF91CF910895CF93DF9300D000D000D07D
:1032A000CDB7DEB7682FCE0101960E94050621E05A
:1032B00040E050E060E070E0CE0101960E944504DD
:1032C00026960FB6F894DEBF0FBECDBFDF91CF912B
:1032D0000895EF92FF920F931F93CF93C82F8A0107
:1032E000E62EF12C28E030E042E350E0B70190E018
:1032F0000E94E002F8018081882371F00F5F1F4F68
:103300006C2F70E021E0A7010E94C303CB5FF8019E
:1033100081918F018111F4CF81E0CF911F910F91A5
:10332000FF90EF900895CF92DF92EF92FF920F936C
:103330001F93CF93DF93CDB7DEB72A970FB6F894DC
:10334000DEBF0FBECDBF85E09E012F5F3F4F7901ED
:10335000F901282F11922A95E9F78E010A5F1F4F74
:10336000F80111928A95E9F780E012D34AE0B7019B
:103370000E948223F70101900020E9F73197CF01E5
:103380008E199F090F2EF3E6CF2EF02DC082FE017D
:10339000E80FF91F0F2EFDE6DF2EF02DD282A701D8
:1033A0006BE085E096DF81E0F3D24AE0B8010E944D
:1033B0008223F80101900020E9F73197CF01801BAB
:1033C000910BC082FE01E80FF91FD782A8016BE0C4
:1033D00086E67FDF2A960FB6F894DEBF0FBECDBF1C
:1033E000DF91CF911F910F91FF90EF90DF90CF90E1
:1033F00008950F931F93CF93DF9300D000D01F92B7
:10340000CDB7DEB70E9471100091140B1091150B0F
:103410002091160B3091170BDC01CB01801B910B17
:10342000A20BB30B8B3F9105A105B105C0F10E9422
:1034300071106093140B7093150B8093160B90937F
:10344000170B57DB809327028A3170F49091120B8F
:10345000913021F41092120B1EDF07C081E080939F
:10346000120B89E118DF01C016DF8E010F5F1F4FBD
:1034700085E0F80111928A95E9F7809127024AE0E8
:10348000B80190E00E948223F80101900020E9F742
:10349000319785E28083A80160E082E11ADF0F9016
:1034A0000F900F900F900F90DF91CF911F910F9180
:1034B00008950F931F93CF93DF9300E010E025E171
:1034C00030E04FE750E06FE070E080E090E00E9475
:1034D00089030FC040E050E0BE01C8010E947502A0
:1034E0002196C531D105B1F70F5F1F4F0038110587
:1034F00019F0C0E1D0E0EECF81E0DF91CF911F91D4
:103500000F9108950F931F93CF93DF93C82F0E94BD
:1035100071100091140B1091150B2091160B309126
:10352000170BDC01CB01801B910BA20BB30B0B978C
:10353000A105B105D8F10E9471106093140B70932E
:10354000150B8093160B9093170B4091130B50E0C3
:1035500080E2C89F90011124ABE7B4E10E9473237D
:10356000969587958417950718F101E010E025E1FD
:1035700030E04FE750E06FE070E080E090E00E94C4
:103580008903C0E1D0E08091130B41E050E0BE011F
:1035900090E00E9475022196C531D105A1F7809176
:1035A000130B8F5F8093130B80E003C080E001C09A
:1035B00081E0DF91CF911F910F9108950F931F9399
:1035C0008091110B81110FC084E69CDF882309F4E0
:1035D00052C081E08093110B6CDF4EE055E06AE051
:1035E00085E077DE48C0813091F50E94711000912E
:1035F000140B1091150B2091160B3091170BDC0159
:10360000CB01801B910BA20BB30B893E9340A1050C
:10361000B10588F10E9471106093140B7093150B23
:103620008093160B9093170B0E94690201E010E043
:1036300029E030E040E850E069E070E080E090E0B0
:103640000E942703E4DD82E08093110B14C08230D6
:1036500029F4CFDE83E08093110B0DC0833029F471
:1036600062DE84E08093110B06C0843021F4F0DD2B
:1036700082E08093110B0E9471100091180B109141
:10368000190B20911A0B30911B0BDC01CB01801B15
:10369000910BA20BB30B4597A105B10560F00E94F9
:1036A00071106093180B7093190B80931A0B909301
:1036B0001B0B0E9423051F910F91089510921C0B64
:1036C00010929B0D81E00895CF92DF92EF92FF92CE
:1036D000CF93DF9300D000D0CDB7DEB780919B0DA4
:1036E000813099F580911C0B811104C081E0809399
:1036F0001C0B2BC00E947110C0901D0BD0901E0B94
:10370000E0901F0BF090200B6C157D058E059F053A
:1037100030F010921C0B10929B0DA9D016C00E9485
:103720007110C61AD70AE80AF90AC982DA82EB824E
:10373000FC8269817A818B819C8124E630E040E0C3
:1037400050E0AFD784E6821B6ED00F900F900F90A1
:103750000F90DF91CF91FF90EF90DF90CF90089581
:10376000813091F480939B0D0E947110DC01CB019C
:10377000805F984DAF4FBF4F80931D0B90931E0BF2
:10378000A0931F0BB093200B08950E94210880E0A6
:103790000E942B0880E00E944B0881E00895CF92A0
:1037A000DF92EF92FF920F931F930E947110A091EE
:1037B000250B0091210B1091220B2091230B3091AE
:1037C000240B6B017C01C01AD10AE20AF30AEA2F2A
:1037D000F0E0EE0FFF1FE85DFD4F4081518160E09A
:1037E00070E04C155D056E057F05B0F481E08A0F31
:1037F000843018F48093250B02C01092250B80E0D2
:103800000E944B080E9471106093210B7093220B51
:103810008093230B9093240B1F910F91FF90EF90B7
:10382000DF90CF900895E8E2F2E02DEC829F212D09
:10383000112426952695269530E0215F3F4F35834C
:10384000248390E09C012C593F4F338322839C01B9
:10385000220F331F880F991F880F991F880F991FF8
:10386000820F931F88539F4F978386830895E8E2C2
:10387000F2E089E190E09583848388EC90E0938383
:10388000828388E795E097838683089580E00C948F
:103890008706089561E081E00E94800861E082E08F
:1038A0000E94800861E083E00C94800808950E94E3
:1038B0006C060E94210880E00E94760681E00E944A
:1038C0002B0882E00E942B0883E00E942B08E2DF95
:1038D00081E00895682F82E00C9480080895682F95
:1038E00083E00C94800808951092260B0C941D011F
:1038F00008950F931F930E9471100091270B109150
:10390000280B2091290B30912A0BDC01CB01801B65
:10391000910BA20BB30BC397A105B105B0F1809138
:10392000260B882331F01092260B81E00E9464015F
:1039300006C081E08093260B80E00E9464010E9413
:1039400071106093270B7093280B8093290B909331
:103950002A0B80E00E94A901409728F480E0BADF9A
:1039600081E0FEDE04C081E0B5DF80E0F9DE81E0C9
:103970000E94A901409728F480E0B1DF81E0F0DEE9
:1039800004C081E0ACDF80E0EBDE1F910F91089571
:103990000C94A90108957F928F929F92AF92BF924B
:1039A000CF92DF92EF92FF920F931F93CF93DF930B
:1039B000F82EE62E742EE901C82ED12CF601EE0F5A
:1039C000FF1FEC0DFD1DE056F24F4081411109C073
:1039D000220F331FABEABAEA86D6EC01D695C7951B
:1039E00004C0423011F4CC0FDD1F842F90E0880F0B
:1039F000991FFC01E05DFD4F20813181FC01EA5CF3
:103A0000FD4F40815181FC01E45CFD4F608171817B
:103A10008E018F2D0E94290B8E2C912CF401EE0F1C
:103A2000FF1FE80DF91DE056F24F808190E0880FEE
:103A3000991FFC01E05DFD4F20813181FC01EA5CB2
:103A4000FD4F40815181FC01E45CFD4F608171813B
:103A50008E2D0E94290BA72CB12CF501EE0FFF1F14
:103A6000EA0DFB1DE056F24F808190E0880F991F10
:103A7000FC01E05DFD4F20813181FC01EA5CFD4FDE
:103A800040815181FC01E45CFD4F60817181872D93
:103A90000E94290B8F2D0E94100B882309F459C016
:103AA0008E2D0E94100B882309F453C0872D0E948D
:103AB000100B882309F44DC0F601EE0FFF1FEC0D2B
:103AC000FD1DE056F24F80818F5F8083D401AA0FE5
:103AD000BB1FA80DB91DA056B24F8C918F5F8C9360
:103AE000D501AA0FBB1FAA0DBB1DA056B24F8C91CA
:103AF0008F5F8C938081833041F4F601EE0FFF1FBE
:103B0000EC0DFD1DE056F24F1082F401EE0FFF1F89
:103B1000E80DF91DE056F24F8081833041F4F40145
:103B2000EE0FFF1FE80DF91DE056F24F1082F50170
:103B3000EE0FFF1FEA0DFB1DE056F24F8081833030
:103B400041F4F501EE0FFF1FEA0DFB1DE056F24FA9
:103B50001082DF91CF911F910F91FF90EF90DF9036
:103B6000CF90BF90AF909F908F907F9008950F93CC
:103B70001F93CF93DF9300D000D000D0CDB7DEB736
:103B800080919C0D882309F43BC180919F0D811188
:103B900021C080912D0B81110CC081E080932D0BF1
:103BA000E0EAFDE0108282E083831682818714863A
:103BB000878720919D0D30919E0D42E064E080E06A
:103BC000EADE20919D0D30919E0D45E061E083E09D
:103BD000E2DE70C1813009F071C080912E0B81113D
:103BE00011C000919D0D10919E0D1695079522EE26
:103BF0003FEF4EE150E061EF7FEF80912B0B0E9491
:103C0000290B23C0813079F400919D0D10919E0DF8
:103C100020E030E040E050E063ED7FEF80912B0B3F
:103C20000E94290B12C0823081F400919D0D1091E9
:103C30009E0D000F111F20E030E040E050E06EE1EB
:103C400070E080912B0B0E94290B80E00E94100BEA
:103C5000882309F42FC181E00E94100B882309F406
:103C600029C182E00E94100B882309F423C183E05C
:103C70000E94100B882309F41DC184E00E94100BE0
:103C8000882309F417C185E00E94100B882309F4EA
:103C900011C180912E0B8F5F833019F080932E0B12
:103CA00009C110922E0B80912B0B8F5F80932B0BF1
:103CB000863009F0FFC010922B0BFCC0823009F057
:103CC000F9C086E0E2E4F2E0DE01119601900D9287
:103CD0008A95E1F780912C0BE1E0F0E0EC0FFD1FFD
:103CE000E80FF11D8081282F30E0F901EE0FFF1F52
:103CF0002E0F3F1FF901E056F24F608170E00091F6
:103D00009D0D10919E0D660F771FFB01E05DFD4F2D
:103D100020813181FB01EA5CFD4F40815181FB0133
:103D2000E45CFD4F608171810E94290B80912C0B16
:103D3000E1E0F0E0EC0FFD1FE80FF11D80810E9433
:103D4000100B882321F120912C0BFE01E20FF11DB5
:103D5000818190E0FC01EE0FFF1FE80FF91FE05694
:103D6000F24F80818F5F8083833089F42F5F2093AF
:103D70002C0BFE01E20FF11D818190E0FC01EE0FA2
:103D8000FF1F8E0F9F1FFC01E056F24F108280E054
:103D90000E94100B882309F48DC081E00E94100B53
:103DA000882309F487C082E00E94100B882309F45D
:103DB00081C083E00E94100B882309F47BC084E05B
:103DC0000E94100B882309F475C085E00E94100B37
:103DD000882309F46FC080912E0B8F5F833019F018
:103DE00080932E0B67C010922E0B80912C0B8F5F4F
:103DF00080932C0B863009F05DC010922C0B5AC0BA
:103E000080E00E94100B882309F454C081E00E94D6
:103E1000100B882309F44EC082E00E94100B882307
:103E200009F448C083E00E94100B882309F442C0C3
:103E300084E00E94100B8823E9F185E00E94100BBA
:103E40008823C1F100E010E02CE330E040E550E0D1
:103E50006BEF7FEF80E00E94DC0D2CE330E043E568
:103E600050E066EF7FEF81E00E94DC0D2DE330E053
:103E70004BE450E06AE070E082E00E94DC0D2EEC42
:103E80003FEF4FEA5FEF62E370E083E00E94DC0DFA
:103E900028EC3FEF4CEB5FEF67E270E084E00E94BC
:103EA000DC0D24EC3FEF42EB5FEF6BEF7FEF85E043
:103EB0000E94DC0D0E94020E26960FB6F894DEBF1B
:103EC0000FBECDBFDF91CF911F910F9108959091BB
:103ED0009C0D981739F080939C0D70939E0D609304
:103EE0009D0D04C070939E0D60939D0D81E008951B
:103EF00090919F0D981739F080939F0D70939E0DB0
:103F000060939D0D04C070939E0D60939D0D81E0A4
:103F1000089560E070E080E0DADF60E070E080E06B
:103F2000E7DF81E008959F939F7788D10F9000206D
:103F30003AF49058A2EA2AED3FE049E450E413D065
:103F400049C25058BB27AA270ED044C20DD230F028
:103F500012D220F031F49F3F11F41EF4DDC10EF4B3
:103F6000E095E7FBAAC1E92F57D280F3BA176207A1
:103F700073078407950718F071F49EF586C20EF456
:103F8000E0950B2EBA2FA02D0B01B90190010C0169
:103F9000CA01A0011124FF27591B99F0593F50F481
:103FA000503E68F11A16F040A22F232F342F4427D9
:103FB000585FF3CF469537952795A795F0405395D1
:103FC000C9F77EF41F16BA0B620B730B840BBAF0A1
:103FD0009150A1F0FF0FBB1F661F771F881FC2F70C
:103FE0000EC0BA0F621F731F841F48F48795779520
:103FF0006795B795F7959E3F08F0B3CF9395880FD7
:1040000008F09927EE0F979587950895DF93DD27A0
:10401000B92FBF7740E85FE31616170648075B071E
:1040200010F4D92F3DD29F938F937F936F930AD330
:10403000ECE8F0E074D1CED12F913F914F915F9198
:1040400042D2DD2349F09058A2EA2AED3FE049EC44
:104050005FE3D0785D2787DFDF91BCC10AD108F428
:1040600081E0089590D1E395C6C10CD0B3C183D14E
:1040700040F07AD130F021F45F3F19F01EC15111A8
:1040800005C24AC1C9D198F39923C9F35523B1F3A5
:10409000951B550BBB27AA2762177307840738F0B7
:1040A0009F5F5F4F220F331F441FAA1FA9F333D016
:1040B0000E2E3AF0E0E830D091505040E695001CCA
:1040C000CAF729D0FE2F27D0660F771F881FBB1F86
:1040D000261737074807AB07B0E809F0BB0B802D60
:1040E000BF01FF2793585F4F2AF09E3F510568F0AC
:1040F000E4C0CCC15F3FECF3983EDCF38695779546
:104100006795B795F7959F5FC9F7880F911D9695AD
:10411000879597F90895E1E0660F771F881FBB1F09
:10412000621773078407BA0720F0621B730B840BB6
:10413000BA0BEE1F88F7E095089504D06894B1118A
:10414000A5C1089571D188F09F5790F0B92F992794
:10415000B751A0F0D1F0660F771F881F991F1AF092
:10416000BA95C9F712C0B13081F08FD1B1E008958E
:104170008CC1672F782F8827B85F39F0B93FCCF30F
:10418000869577956795B395D9F73EF49095809588
:10419000709561957F4F8F4F9F4F0895E89409C0A8
:1041A00097FB3EF490958095709561957F4F8F4F6A
:1041B0009F4F9923A9F0F92F96E9BB279395F69580
:1041C000879577956795B795F111F8CFFAF4BB0FFE
:1041D00011F460FF1BC06F5F7F4F8F4F9F4F16C062
:1041E000882311F096E911C0772321F09EE8872FEC
:1041F000762F05C0662371F096E8862F70E060E0A8
:104200002AF09A95660F771F881FDAF7880F969520
:10421000879597F9089522D180F09F3740F4911146
:104220000EF034C160E070E080E89FEB089526F462
:104230001B16611D711D811D46C060C0DF93CF93A9
:104240001F930F938B01EC01E9EBF0E068D0C2D033
:104250009801AE018B01EC0160E070E080E89FE323
:1042600070DEB2D19801AE010F911F91CF91DF9115
:104270002AC1990F0008550FAA0BE0E8FEEF1616A9
:104280001706E807F907C0F012161306E407F5074A
:1042900098F0621B730B840B950B39F40A2661F0BE
:1042A000232B242B252B21F408950A2609F4A14061
:1042B000A6958FEF811D811D089597F99F6780E86E
:1042C00070E060E00895882371F4772321F098501E
:1042D000872B762F07C0662311F499270DC09051C4
:1042E000862B70E060E02AF09A95660F771F881F92
:1042F000DAF7880F9695879597F908959F3F31F0E3
:10430000915020F4879577956795B795880F911D03
:104310009695879597F908959FEF80EC0895DF9320
:10432000CF931F930F93FF92EF92DF927B018C014B
:10433000689405C0DA2EEF01C6D0FE01E894A5917D
:104340002591359145915591AEF3EF010CDEFE01BB
:104350009701A801DA9479F7DF90EF90FF900F9121
:104360001F91CF91DF91089500240A941616170625
:1043700018060906089500240A9412161306140656
:1043800005060895C9CF50D0E8F3E894E0E0BB27D4
:104390009F57F0F02AED3FE049EC06C0EE0FBB0F4F
:1043A000661F771F881F28F0B23A620773078407D9
:1043B00028F0B25A620B730B840BE3959A9572F74F
:1043C000803830F49A95BB0F661F771F881FD2F78D
:1043D000904896CF092E0394000C11F4882352F0D4
:1043E000BB0F40F4BF2B11F460FF04C06F5F7F4F21
:1043F0008F4F9F4F0895EF93E0FF06C0A2EA2AED8A
:104400003FE049EC5FEBAFDDE5DF0F90039401FC8B
:104410009058E1EEF0E020C157FD9058440F551F31
:1044200059F05F3F71F04795880F97FB991F61F036
:104430009F3F79F087950895121613061406551FAD
:10444000F2CF4695F1DF08C0161617061806991F19
:10445000F1CF86957105610508940895E5DFA0F018
:10446000BEE7B91788F4BB279F3860F41616B11D54
:10447000672F782F8827985FF7CF86957795679570
:10448000B11D93959639C8F30895E894BB27662724
:104490007727CB0197F90895ECDE08F48FEF0895A4
:1044A0009B01AC0160E070E080E89FE3DECD0BD0C3
:1044B00091CF5ADF28F05FDF18F0952309F0FDCE89
:1044C0002BCF1124E3CFA8DFA0F3959FD1F3950F55
:1044D00050E0551F629FF001729FBB27F00DB11D88
:1044E000639FAA27F00DB11DAA1F649F6627B00D18
:1044F000A11D661F829F2227B00DA11D621F739F01
:10450000B00DA11D621F839FA00D611D221F749F0E
:104510003327A00D611D231F849F600D211D822F55
:10452000762F6A2F11249F5750408AF0E1F088239C
:104530004AF0EE0FFF1FBB1F661F771F881F9150A9
:104540005040A9F79E3F510570F0B7CE9FCF5F3F17
:10455000ECF3983EDCF3869577956795B795F795DC
:10456000E7959F5FC1F7FE2B880F911D9695879564
:1045700097F9089559DFE0F09E37D8F09639B8F4EE
:104580009E3848F4672F782F8827985FF9CF869553
:104590007795679593959539D0F3B62FB1706B0FDA
:1045A000711D811D20F487957795679593958BCE26
:1045B000A5CE6CCF9F93E7DE0F9007FCEE5F1BCF7D
:1045C00011F40EF4A9CE9ACE2FDFD0F39923D9F3AC
:1045D000CEF39F57550B87FF38D00024A0E640EA62
:1045E000900180585695979528F4805C660F771F48
:1045F000881F20F026173707480730F4621B730B1B
:10460000840B202931294A2BA6951794079420253D
:1046100031254A2758F7660F771F881F20F0261785
:104620003707480730F4620B730B840B200D311DE4
:10463000411DA09581F7B901842F9158880F969557
:10464000879508959B01AC0132CF91505040660F81
:10465000771F881FD2F708959F938F937F936F934F
:10466000FF93EF939B01AC0122DFEF91FF9157DEA7
:104670002F913F914F915F911ACFAA1BBB1B51E124
:1046800007C0AA1FBB1FA617B70710F0A61BB70BC2
:10469000881F991F5A95A9F780959095BC01CD0167
:1046A0000895A1E21A2EAA1BBB1BFD010DC0AA1F73
:1046B000BB1FEE1FFF1FA217B307E407F50720F08B
:1046C000A21BB30BE40BF50B661F771F881F991F06
:1046D0001A9469F760957095809590959B01AC014F
:1046E000BD01CF010895A29FB001B39FC001A39F58
:1046F000700D811D1124911DB29F700D811D11241B
:10470000911D0895BB274A3031F4992322F4BDE26C
:10471000909581959F4F01C0BB27FB015527AA2784
:10472000880F991FAA1FA41710F0A41B839550513E
:10473000B9F7A05DAA3308F0A95DA193009779F7B6
:10474000B111B1931192CB0100C0DC01FC01672FC4
:1047500071917723E1F7329704C07C916D93708358
:104760006291AE17BF07C8F30895F999FECF92BDC5
:1047700081BDF89A992780B50895262FF999FECF23
:104780001FBA92BD81BD20BD0FB6F894FA9AF99A6E
:0A4790000FBE01960895F894FFCFC4
:10479A00010302042200FF21002200FF2100DB4066
:1047AA00A4A62EAFDA02818F2000A1C8D300408DC3
:1047BA00AED580A802FF07980C3C187E7E183C30C4
:1047CA0019E0018007E00FF00FF007E00180018097
:1047DA000180018007E003C00180018003C007E077
:1047EA0001800180018038007000FFFFFFFF700028
:1047FA003800001C000EFFFFFFFF000E001CFFFE2A
:10480A0080028003800380038002FFFEFFFE800295
:10481A00B803B003A0038002FFFEFFFE8002BB8341
:10482A00B703AE038002FFFEFFFE8002BBBBB77375
:10483A00AEE38002FFFEFFFE8002BBBBB773AEEBA6
:10484A008002FFFE0C08090A0B101112161D160031
:10485A00000000000000004A155415000000000086
:10486A00000000571C461C00000000000000007CED
:10487A001593150000000000000000891FB71D00F5
:10488A0000000000000000741C791C0000000000F9
:10489A00000000C51BCF1B00000000000000005EE6
:1048AA001B641B0000000000000000EC18DE1A0068
:1048BA0000000000000000643200C80019007805FA
:1048CA001E0000000000ECFF000000000F002D0099
:1048DA00E2FF00040203010500000000000000BE20
:1048EA000000000700070048FC48FC484854FE54F2
:1048FA002488542850A86C9292AC40A0000700006B
:10490A00007C8201000001827C0028107C102810A3
:10491A00107C101000008000001010101010000011
:10492A0080000000C0300C037C8292827C0084FEEE
:10493A008000C4A292928C448292926C302824FE07
:10494A00205E9292926278949292600282621A0631
:10495A006C9292926C0C9292523C000048000000B9
:10496A00804800001010282844282828282844288D
:10497A002810100402A2120C7C82BABAA2FC3826B1
:10498A0038C0FE9292926C7C82828244FE82824479
:10499A0038FE92929282FE121212027C828292F463
:1049AA00FE101010FE0082FE8200808082827EFE4F
:1049BA0010284482FE80808080FE186018FEFE0661
:1049CA0038C0FE7C8282827CFE1212120C7C8282A9
:1049DA00C2FCFE121212EC4C929292640202FE0285
:1049EA00027E8080807E0E30C0300E1EE01CE01EEB
:1049FA00C6281028C60E10F0100EC2A2928A86008F
:104A0A00FF010100030C30C000000101FF0008048F
:104A1A000204080000000000000002040040A8A8E8
:104A2A00A8F0FF8888887070888888887088888845
:104A3A00FF70A8A8A8B008FE09090170888888F044
:104A4A00FF080808F00008FA0000000008FA000051
:104A5A00FF2050880001FF0000F808F008F0F8086D
:104A6A000808F07088888870F88888887070888844
:104A7A0088F8F81008081090A8A8A848007E888826
:104A8A008078808080F8186080601838C030C0381C
:104A9A00885020508878808080F888C8A898880034
:104AAA0010EE01000000FF00000001EE10002010CF
:104ABA001020200000000000220021002000002217
:104ACA0000210020000122002100200002220021F2
:104ADA0000200003220021002000042200210020DF
:104AEA0000052200210020000622002100200007E4
:104AFA0025002400230000250024002300012500AE
:104B0A00240023000225002400230003250024009A
:104B1A002300042500240023000525002400230087
:104B2A000625002400230007280027002600002865
:104B3A000027002600012800270026000228002757
:104B4A000026000328002700260004280027002644
:104B5A00000528002700260006280027002600074F
:104B6A002B002A002900002B002A002900012B0013
:104B7A002A002900022B002A002900032B002A0000
:104B8A002900042B002A002900052B002A002900ED
:104B9A00062B002A002900074F4B004B4F00496E95
:0A4BAA00697420646F6E652021001D
:00000001FF
