:100000007FC000009CC000009AC0000098C00000A3
:1000100096C0000094C0000092C0000090C0000094
:100020008EC000000C94CA0E8AC0000088C0000078
:1000300086C0000084C0000082C0000080C00000B4
:100040007EC000007CC000000C94330E0C94B30AF8
:100050000C94FE110C9423120C94561270C00000E4
:100060006EC000006CC000006AC0000068C00000E4
:100070000C9460120C9485120C94B81260C00000AD
:100080005EC000005CC000005AC00000084AD73BB8
:100090003BCE016E84BCBFFDC12F3D6C74319ABD57
:1000A00056833DDA3D00C77F11BED9E4BB4C3E917B
:1000B0006BAAAABE000000803F072C7AA5BA6CC5C7
:1000C00090DA3B9365FC8BBC53F810FD3C56928351
:1000D0004DBD879D3AB63DCBC9BF5BBE73DA0FC934
:1000E0003F05A84CCDB2D44EB93836A9020C50B950
:1000F000918688083CA6AAAA2ABE000000803F007C
:1001000011241FBECFEFD0E4DEBFCDBF14E0A0E0CE
:10011000B1E0ECE8F8E300E00BBF02C007900D92FD
:10012000A638B107D9F72DE0A6E8B4E001C01D92CA
:10013000A330B207E1F70E94C2120C94441C60CFB6
:10014000CF9340E860E00E943910C82F68EC70E05F
:1001500080E090E00E941D0E8C2FCF910895CF93E8
:10016000C82F60E87AE186E090E00E949B0F8C2F18
:10017000E7DF81E0CF910895CF92DF92EF92FF9277
:100180001F93CF93DF931F92CDB7DEB7182FCB010C
:10019000BA0126E636E646E65FE30E94D01A9B01E6
:1001A000AC0160E27CEB8EEB95E40E94AE1820E09F
:1001B00030E040E85FE30E941A1820E030E040E0C1
:1001C0005FE30E941B180E9484196B017C01198255
:1001D000AE014F5F5F4F60E0812F0E94CA0F4981DF
:1001E0004F76406160E0812F0E943910C701B6014F
:1001F0000E941B19462F6EEF812F0E9439104981F2
:1002000060E0812F0E94391064EF71E080E090E09F
:100210000E941D0E4981406A60E0812F0E943910C2
:100220000F90DF91CF911F91FF90EF90DF90CF90D3
:100230000895CF93DF9300D000D0CDB7DEB74983C8
:100240005A832B833C83660F660F6A5F24E0AE01FE
:100250004F5F5F4F0E9489100F900F900F900F908B
:10026000DF91CF910895ECE7F0E080818064808396
:1002700080818068808380818F7E80838081877F7A
:100280008083EBE7F0E080818E7F808380818D7FAB
:10029000808380818B7F8083EAE7F0E080818F7BA1
:1002A000808380818F7D808380818F7E8083808129
:1002B000877F80838081816080838081826080836A
:1002C00080818068808381E00895883070F4ECE755
:1002D000F0E09081907E892B8083EAE7F0E08081D6
:1002E00080648083808186FDFDCF8091780090912D
:1002F00079009093750A8093740A6091740A7091E2
:10030000750A80E090E00E94471928E030E240E85A
:100310005EE30E94D01A0E941B19CB010895FC01D4
:10032000611105C088E191E0918380831BC0613039
:1003300029F48CE091E09183808314C0623029F429
:1003400084E291E0918380830DC0633029F480E3DF
:1003500091E09183808306C0643021F480E091E0D5
:100360009183808380E190E09383828386E090E0B4
:10037000958384830895FC01643629F484E791E031
:100380009183808319C06B3428F086E691E09183D5
:10039000808312C0623328F088E591E091838083E6
:1003A0000BC0693128F08AE491E09183808304C016
:1003B0008CE391E09183808380E190E0938382835A
:1003C00087E090E09583848308958091770A813057
:1003D00051F58091790A813099F48091760ACDD0D7
:1003E00081110BC0E6E7FAE082818F5F8283828110
:1003F0008A30C8F01382128208951092780A089504
:100400008091760ABAD0813061F4E6E7FAE0828121
:100410008F5F828382818A3030F081E08383128211
:1004200008951092780A089525EE31E041E065E0E4
:1004300070E080E00E947C0E81E0089581110DC083
:1004400080918201E6E7FAE0808381E08183128275
:1004500014828383808170C0089580E0089590E0C5
:10046000FC01EE0FFF1FEE0FFF1FE80FF91FEA5808
:10047000F54F2381211119C0FC01EE0FFF1FEE0F74
:10048000FF1FE80FF91FEA58F54F248121111AC008
:10049000FC01EE0FFF1FEE0FFF1F8E0F9F1FFC01D1
:1004A000EA58F54F81E084830895FC01EE0FFF1FA9
:1004B000EE0FFF1F8E0F9F1FFC01EA58F54F1482AD
:1004C00080E0089580E0089580E090E00E942E1C76
:1004D00091E08F3F09F490E0892F0895F5DF813096
:1004E00051F060E181E090E00E94361C60E582E01E
:1004F00090E00E94361C81E0089561E080E090E089
:100500000C94361C08958032A8F497E0899FF0017E
:100510001124EC56FC4FA281B3812C9181E090E034
:10052000068002C0880F991F0A94E2F7822B8C93F1
:1005300081E0089580E008958032E8F497E0899F93
:10054000F0011124EC56FC4FA281B3812C9181E083
:1005500090E0068002C0880F991F0A94E2F7809508
:10056000922F98239C930190F081E02D9081892314
:10057000808381E0089580E0089527E0829FC00194
:100580001124FC01EC56FC4FA481B5818C9190E0C4
:10059000068002C0959587950A94E2F781700895C8
:1005A00027E0829FC0011124DC01AC56BC4FED91C5
:1005B000FC911197808116964C9191E09627292FF6
:1005C000217030E0042E02C0220F331F0A94E2F79C
:1005D000209528232083808170E002C0660F771F5A
:1005E0004A95E2F7682B60830895CF92DF92EF92ED
:1005F000FF921F93CF93DF93C0E0D0E01BE07E011A
:100600001C9FF0011D9FF00D1124E558F54F8281CC
:10061000813009F04BC01C9FF0011D9FF00D11248B
:10062000E558F54F818181111CC01C9FF0011D9F71
:10063000F00D1124E558F54F858196819C012F5FBF
:100640003F4F36832583238134812817390748F4A7
:100650006F0181E08183808160E0A2DFF601168274
:1006600015821E9DF0011F9DF00D1124E558F54FD8
:1006700081818130D9F41E9DF0011F9DF00D112460
:10068000E558F54F878190859C012F5F3F4F30875C
:100690002783218532852817390740F47F0111828D
:1006A000808161E07DDFF701108617822196C430DA
:1006B000D10509F0A4CFDF91CF911F91FF90EF906A
:1006C000DF90CF90089525EF32E041E061E070E0E7
:1006D00081E00E947C0E81E008958430E0F490E097
:1006E000FC01ED57FE4F20813BE0389FF001399F20
:1006F000F00D1124E558F54F208381E081831282AB
:100700001482138216821582108617821286118631
:100710008081F9CE089580E00895843088F5282FEF
:1007200030E09BE0899FF0011124E558F54F1282DB
:10073000818181110EC08BE0829FF001839FF00DBB
:100740001124E558F54F81E08183808161E028DF45
:1007500017C08BE0829FF001839FF00D1124E558B4
:10076000F54F8181813061F48BE0829FF001839F9E
:10077000F00D1124E558F54F1182808160E010DF03
:1007800080E00895843028F5282F30E09BE0899F91
:10079000F0011124E558F54F128261110CC08BE075
:1007A000829FF001839FF00D1124E558F54F1182CF
:1007B0008081F6DE0EC0613061F48BE0829FF00133
:1007C000839FF00D1124E558F54F81E081838081EE
:1007D000E7DE80E00895FF920F931F93CF93DF939E
:1007E00003EA14E0C0E0D0E0F801D0838C2FAFD64C
:1007F000F80192838183FC01C083FF24F394FC0EF3
:100800008F2DA5D6F80194838383FC01F082689430
:10081000FF24F1F8FC0E8F2D9AD6F801968385837C
:10082000FC01F082DF5F095F1F4FCD5FD630E1F63C
:10083000E3EAF4E0A181B2812EE130E012963C932C
:100840002E931197A181B28116963C932E93159702
:1008500052963C932E93519750961C921E921F973E
:100860008CE390E054969C938E935397A381B4812C
:1008700066E470E012967C936E931197C381D481E5
:100880007E836D831A8A198AAAEBBFEFB88BAF8774
:100890007C8B6B8BC581D6819A838983C581D681F8
:1008A0009E838D83C581D6811A8A198A44EC5FEFB5
:1008B000588B4F879C8B8B8BC085D1851A82198270
:1008C000C085D1851E821D82C085D1851A8A198A6C
:1008D00002EE1FEF188B0F873C8B2B8BC285D385C5
:1008E0007A836983C285D3857E836D83C285D385F0
:1008F0001A8A198AB88BAF877C8B6B8BC485D58598
:100900009A838983C485D5859E838D83C485D58547
:100910001A8A198A588B4F879C8B8B8BC785D089F5
:100920003A832983C785D0893E832D83C785D089A3
:100930003A8B298B188A1F86C785D0899C8B8B8B15
:10094000C189D2897A836983C189D2897E836D8383
:10095000C189D2891A8A198AC189D289B88BAF878D
:10096000C189D2897C8B6B8BC389D4899A83898313
:10097000C389D4899E838D83C389D4891A8A198AAD
:10098000C389D489588B4F87C389D4899C8B8B8B1F
:10099000C689D7893A832983C689D7893E832D831F
:1009A000C689D7893A8B298BC689D789188A1F8629
:1009B000C689D7899C8B8B8BC08DD18DBA83A98337
:1009C000C08DD18DBE83AD83C08DD18D1A8A198A19
:1009D000C08DD18DB88BAF87C08DD18D7C8B6B8B4B
:1009E000C28DD38D5A834983C28DD38D5E834D834F
:1009F000C28DD38D1A8A198AC28DD38D588B4F8799
:100A0000C28DD38D9C8B8B8BC58DD68D1A8219820E
:100A1000C58DD68D1E821D82C58DD68D1A8A198AE6
:100A2000C58DD68D188B0F87C58DD68D3C8B2B8BA6
:100A3000C78DD0A1BA83A983C78DD0A1BE83AD8352
:100A4000C78DD0A11A8A198AC78DD0A1B88BAF875C
:100A5000C78DD0A17C8B6B8BC1A1D2A15A83498356
:100A6000C1A1D2A15E834D83C1A1D2A11A8A198AE4
:100A7000C1A1D2A1588B4F87C1A1D2A19C8B8B8BD6
:100A8000C4A1D5A13A832983C4A1D5A13E832D83D6
:100A9000C4A1D5A13A8B298BC4A1D5A1188A1F86E0
:100AA000C4A1D5A19C8B8B8BC6A1D7A1BA83A983E6
:100AB000C6A1D7A1BE83AD83C6A1D7A11A8A198AC0
:100AC000C6A1D7A1B88BAF87A6A1B7A154967C9336
:100AD0006E935397A0A5B1A512965C934E93119770
:100AE000A0A5B1A516965C934E931597A0A5B1A5A8
:100AF00052961C921E925197A0A5B1A550965C9358
:100B00004E931F9700A4F1A5E02D948B838B109238
:100B1000A20481E0DF91CF911F910F91FF90089582
:100B200027E0829FC00111248D559B4F0895CF93DC
:100B3000C82FCC0FC80F8C2F7DD3982F882369F036
:100B400081E08C0F77D3982F882339F082E08C0FC7
:100B500071D391E0811101C090E0892FCF91089568
:100B60002F923F924F925F926F927F928F929F92BD
:100B7000AF92BF92CF92DF92EF92FF920F931F93AB
:100B8000CF93DF93CDB7DEB728970FB6F894DEBFCB
:100B90000FBECDBF863008F07CC26B01282E382EE8
:100BA000330C380E81E0830D898392E0930D9A8394
:100BB0007A01E9E6EE0EF11CC90183589F4F988730
:100BC0008F83669F4001679F900C900C1124EE9CD0
:100BD000C001EF9C900D900D1124880E991E092CD8
:100BE000000CAA08BB08C501B4010E9449190E9463
:100BF0005D1B60939A0470939B0480939C04909374
:100C00009D04B601DD0C880B990B0E9449194B011C
:100C10005C01B701FF0C880B990B0E9449199B01DD
:100C2000AC01C501B4010E94AE180E947F18609308
:100C3000860470938704809388049093890480903D
:100C40009A0490909B04A0909C04B0909D04C09046
:100C50009A04D0909B04E0909C04F0909D0420E0C6
:100C600030E040EF51E4C501B4010E941A182B0195
:100C70003C0120E030E040EF51E4C701B6010E94A2
:100C80001A189B01AC01C301B2010E94D01A6B83F8
:100C90007C838D839E83EF81F885EE9FC001EF9F5B
:100CA000900D900D11242C01990F6608770820E013
:100CB00030E040EF51E4C501B4010E941A184B0125
:100CC0005C0120E030E040EF51E4C701B6010E9432
:100CD0001A189B01AC01C501B4010E94D01A6B0126
:100CE0007C01C301B2010E9449199B01AC01C701FB
:100CF000B6010E941B180E945D1B60939E047093B6
:100D00009F048093A0049093A10460919E0470912D
:100D10009F048091A0049091A10420919E043091A1
:100D20009F044091A0045091A1040E94D01A9B01FD
:100D3000AC0160E074E086EA96E40E941A1820E0B4
:100D40003CE742E956E40E94AE180E940C186093FA
:100D50008A0470938B0480938C0490938D04C090CC
:100D60009E04D0909F04E090A004F090A1042F81F5
:100D70003885B901330F880B990B0E944919A701D7
:100D800096010E94AE180E940C1860939204709312
:100D90009304809394049093950460919E047091C1
:100DA0009F048091A0049091A10420919E04309111
:100DB0009F044091A0045091A10480909E049090C3
:100DC0009F04A090A004B090A1040E94D01A20E03B
:100DD00038EC4FEA55E40E941B1820E034E244E767
:100DE00056E40E941A186B017C0120E030E046E1D5
:100DF00053E4C501B4010E94D01A9B01AC01C701A4
:100E0000B6010E94AE180E940C1860938E04709375
:100E10008F04809390049093910460919204709158
:100E20009304809194049091950420918E043091C4
:100E30008F0440919004509191040E941B1860937C
:100E4000960470939704809398049093990432E0E9
:100E5000321508F464C06091860470918704809113
:100E600088049091890420E030E044E353E40E9438
:100E7000D01A2BED3FE049E450E40E94AE18609395
:100E800086047093870480938804909389048091EA
:100E9000960490919704A0919804B0919904BC0194
:100EA000CD01905820E030E044E353E40E94D01A92
:100EB0002BED3FE049E450E40E94AE1820E030E022
:100EC00044EB52E40E941B186093960470939704BD
:100ED000809398049093990460918A0470918B0494
:100EE00080918C0490918D0420E030E044E353E441
:100EF0000E94D01A2BED3FE049E450E40E94AE1866
:100F000020E030E044EB52E40E941A1860938A0417
:100F100070938B0480938C0490938D0466C08091B1
:100F2000860490918704A0918804B0918904BC0143
:100F3000CD01905820E030E044E353E40E94D01A01
:100F40002BED3FE049E450E40E94AE186093860424
:100F50007093870480938804909389046091960429
:100F600070919704809198049091990420E030E06A
:100F700044E353E40E94D01A2BED3FE049E450E4EF
:100F80000E94AE1820E030E044EB52E40E941A18B0
:100F900060939604709397048093980490939904B7
:100FA00080918A0490918B04A0918C04B0918D045F
:100FB000BC01CD01905820E030E044E353E40E94AE
:100FC000D01A2BED3FE049E450E40E94AE1820E037
:100FD00030E044EB52E40E941B1860938A04709343
:100FE0008B0480938C0490938D046091860470919F
:100FF000870480918804909189040E94331B27E024
:10100000229EF0011124ED55FB4FFC83EB83E18020
:10101000F2800E941619F70121893289620F731F2D
:10102000A801832D87D060919604709197048091D8
:101030009804909199040E94331BEB81FC81E3801A
:10104000F4800E941619F70121893289620F731FFB
:10105000A80189816FD060918A0470918B0480917E
:101060008C0490918D040E94331BEB81FC810580E0
:10107000F681E02DFC83EB830E941619EB81FC8145
:1010800021893289620F731FA8018A8153D081E0C0
:1010900001C080E028960FB6F894DEBF0FBECDBF2A
:1010A000DF91CF911F910F91FF90EF90DF90CF9044
:1010B000BF90AF909F908F907F906F905F904F9078
:1010C0003F902F900895C7D081E00895EDECF4E0B3
:1010D00080E04AE550E024EB30E093E08083128228
:1010E0001182148213821682158214861386178247
:1010F00010861186128616861586108A1786528BE0
:10110000418B348B238B958B8F5F7696823131F7B1
:1011100080E425D881E423D840E050E060E772E421
:1011200080E42AD840E050E060E772E481E424D80B
:1011300081E00895EF92FF920F931F93CF93DF9377
:10114000823108F069C0C82FD0E096E1899FF00194
:101150001124E353FB4F87859089681779070CF4B6
:101160005DC086E18C9FF0018D9FF00D1124E3534B
:10117000FB4F83899489861797070CF451C086E149
:101180008C9FF0018D9FF00D1124E353FB4F85815F
:1011900096816817790709F445C07A018F0181812A
:1011A000928194838383768365833DD5F801678339
:1011B0007087818792878581968121813281821B08
:1011C000930BAC0122F444275527481B590B88EE9A
:1011D00093E0489F9001499F300D589F300D112496
:1011E000A9E8B8E80E94EC1B26E12C9FF0012D9F96
:1011F000F00D1124E353FB4F9695879592958295B8
:101200008F7089279F7089278E159F0508F4C70165
:101210009487838781E007C080E005C080E003C039
:1012200080E001C080E0DF91CF911F910F91FF908E
:10123000EF90089526E1829FC0011124FC01E35341
:10124000FB4F81E04181528125813681421753074E
:1012500009F080E008953F924F925F926F927F92E3
:101260008F929F92AF92BF92CF92DF92EF92FF92B6
:101270000F931F93CF93DF93CDB7DEB72C970FB6A5
:10128000F894DEBF0FBECDBF2EEC34E010E03C87FB
:101290002B87312E832DCEDF81110AC1C4D4AB85BB
:1012A000BC85BE83AD8316960D911D912D913C9109
:1012B0001997601B710B820B930B0E9447196B01EE
:1012C0007C01EB85FC8562817381072E000C880B05
:1012D000990B0E94491969837A838B839C83AB8520
:1012E000BC8514960D911C911597B801012E000C28
:1012F000880B990B0E94491929813A814B815C81A5
:101300000E941A182B013C01EB85FC8562857385D0
:1013100080E090E00E9447194B015C01AB85BC85E1
:1013200054968C91811119C0A5019401C701B60191
:101330000E94AE18A30192010E94D01A29813A811D
:101340004B815C810E941B180E94331B0E9416195E
:10135000EB85FC85718360838CC0813041F5A501EC
:101360009401C701B6010E94AE182BED3FE049EC95
:101370005FE30E94D01A0E94AB189B01AC01C3012D
:10138000B20190580E94D01AA30192010E941B182A
:1013900029813A814B815C810E941B180E94331B7A
:1013A0000E941619AD81BE816D937C9362C082301C
:1013B00019F5A5019401C701B6010E94AE182BEDE5
:1013C0003FE049EC5FE30E94D01A0E94531B9B014F
:1013D000AC01C301B2010E94D01A29813A814B812C
:1013E0005C810E941B180E94331B0E941619ED811C
:1013F000FE81718360833DC08330D9F5A5019401DE
:10140000C701B6010E94AE182BED3FE049E450E45D
:101410000E94D01A0E94AB186F83788789879A87B9
:10142000C301B201905820E030E040E05FE30E9449
:10143000D01A2B013C0120E030E040E85FE36F81EF
:10144000788589859A850E941A189B01AC01C30191
:10145000B2010E94D01A29813A814B815C810E949D
:101460001B180E94331B0E941619AD81BE816D931B
:101470007C93A5019401C701B6010E94C51A1816F4
:101480002CF4ED81FE811183008312C0A50194012B
:10149000C701B6010E94A71881110AC0AD81BE81A3
:1014A0001C96ED91FC911D97309711F0832D0995B5
:1014B000EB85FC8520813181265A3F4FA8E9B1E0B8
:1014C0000E94EC1B24EB30E040E050E00E94CA1B7D
:1014D000CA01B9016E587F4F8F4F9F4F0E94471925
:1014E0000E941619F8E0F31548F49B0140E050E023
:1014F00067EF630D80E40E94190107C09B0140E083
:1015000050E0632D81E40E94190133942B853C85C2
:101510002A5E3F4F3C872B8732E13312BBCE2C969D
:101520000FB6F894DEBF0FBECDBFDF91CF911F91F4
:101530000F91FF90EF90DF90CF90BF90AF909F9072
:101540008F907F906F905F904F903F900895823181
:1015500038F426E1829FC001112483539B4F0895E4
:1015600080E090E008951F920F920FB60F92112421
:101570008F93809159068EBD8F910F900FBE0F9063
:101580001F90189580E092E0E7EAFAE0DF019C0105
:101590001D9221503040E1F781E008958038910597
:1015A00008F066C06032710508F062C04130510534
:1015B00029F010F142305105F1F10895FB01F69543
:1015C000E795F695E795F695E795F695FE2FEE27C4
:1015D000F795E7958E0F9F1FFC01E955F54F677052
:1015E000772781E090E002C0880F991F6A95E2F7A3
:1015F0009081892B80830895FB01F695E795F695F8
:10160000E795F695E795F695FE2FEE27F795E79582
:101610008E0F9F1FFC01E955F54F6770772781E01A
:1016200090E002C0880F991F6A95E2F7809590813B
:10163000892380830895FB01F695E795F695E79554
:10164000F695E795F695FE2FEE27F795E7958E0F21
:101650009F1FFC01E955F54F6770772781E090E007
:1016600002C0880F991F6A95E2F7908189278083CD
:1016700008956F927F928F929F92AF92BF92CF9276
:10168000DF92EF92FF920F931F93CF93DF93411559
:101690005105C9F425C0672D782D912CCA0DDB1D8D
:1016A0006E0D7F1D472D582DCE0178DF9394692D47
:1016B00070E060177107A0F36394C62DD0E0CC15DD
:1016C000DD0550F00DC089016A017B015C01C0E0BD
:1016D000D0E0612C712C812C01151105E1F6ECCFC5
:1016E00081E0DF91CF911F910F91FF90EF90DF90FC
:1016F000CF90BF90AF909F908F907F906F90089504
:101700006F927F928F929F92AF92BF92CF92DF9211
:10171000EF92FF920F931F93CF93DF937C01EB0126
:101720006A01590181E8E816F10408F03CC041382B
:101730005105C8F561327105B0F52132310598F5D2
:101740003A016E187F0821F46217730720F12BC04D
:10175000452B49F14901861A970ACB01821B930B4D
:101760008E9D50018F9DB00C9E9DB00C1124E12CDC
:10177000F12CC501B3010E94B61B6C0F7D1FA8019F
:10178000C7010CDF8FEFE81AF80AA80CB91CCE14B9
:10179000DF0479F708C0A801BE01C701FFDE21966A
:1017A000CA15DB05C0F3DF91CF911F910F91FF9018
:1017B000EF90DF90CF90BF90AF909F908F907F90F1
:1017C0006F9008958F929F92AF92BF92CF92DF92C7
:1017D000EF92FF920F931F93CF93DF938038910581
:1017E000F0F440385105D8F460327105C0F420326D
:1017F0003105A8F46901EA017B014C019B0180DFFE
:101800009601AE01B601C4017BDF9601A401B701C8
:10181000C40176DF9601AE01B701CE0171DFDF9121
:10182000CF911F910F91FF90EF90DF90CF90BF90DD
:10183000AF909F908F9008952F923F924F925F921A
:101840006F927F928F929F92AF92BF92CF92DF92D0
:10185000EF92FF920F931F93CF93DF9300D01F92CD
:10186000CDB7DEB74983252E722E8F77803210F0E8
:10187000805201C080E090E08C01000F111F000F2A
:10188000111F080F191F0C541E4F580185E0A80E98
:10189000B11CE62EF72E55245394612C312C412C8B
:1018A000C72CD12C2FC0F801808190E0082C02C0F9
:1018B000959587950A94E2F780FF06C0A6016A8194
:1018C0007B81C7016BDE0AC0452D562D772011F0B4
:1018D000432D542D6A817B81C70160DEFFEF8F1A93
:1018E0009F0A8A819B8101969B838A8398E089164F
:1018F0009104C9F6EFEFEE1AFE0A0F5F1F4FA01614
:10190000B10631F0F981FA832B82812C912CCBCF57
:101910000F900F900F90DF91CF911F910F91FF903B
:10192000EF90DF90CF90BF90AF909F908F907F907F
:101930006F905F904F903F902F9008952F923F921D
:101940004F925F926F927F928F929F92AF92BF92CF
:10195000CF92DF92EF92FF920F931F93CF93DF937B
:1019600000D000D01F92CDB7DEB7DC011496ED9108
:10197000FC911597EF2B09F063C080C0BB81BC833D
:101980002D82812C912C9695879596958795969585
:1019900087958E9D90018F9D300D9E9D300D112459
:1019A000D801ED91FC91E20FF31FC4019695879544
:1019B0009695879596958795E80FF91F8081282F32
:1019C00030E0C40187709927F50102C0F595E795CD
:1019D0008A95E2F7CF0182239323892B39F049813D
:1019E0005A81B6018C819D81D9DD0AC0452D562DC5
:1019F000772011F0432D542DB6018C819D81CEDDD1
:101A0000FFEF8F1A9F0AD80112968D919C91139720
:101A1000EC81FD813196FD83EC838816990608F4EC
:101A2000B2CFFFEFEF1AFF0A2FEFC21AD20AD80186
:101A300014968D919C911597E816F906B0F01EC08A
:101A4000722E272E6B838C01C42ED52EE12CF12C07
:101A50006894AA24A7F8B12C55245394612C312CF6
:101A6000412CE22FF0E0FA83E983D80112968D91A0
:101A70009C911397009709F081CFD3CF0F900F90CF
:101A80000F900F900F90DF91CF911F910F91FF90CA
:101A9000EF90DF90CF90BF90AF909F908F907F900E
:101AA0006F905F904F903F902F900895262FAC013C
:101AB00060E08091A8012DC30895482F60E08091D7
:101AC000A801D7C20895CF93DF9365E08CE891E039
:101AD000EDDF8FE7F2DFC0E1D0E020E240E060E43C
:101AE0008091A80194D32197C1F781E0DF91CF9134
:101AF00008950F931F93CF93DF9365E087E891E0FC
:101B0000D5DF8FE7DADFC7EADAE007EA1CE020E298
:101B1000AE0160E48091A801FCD2A096C017D10765
:101B2000B1F781E0DF91CF911F910F9108958093DC
:101B3000A80180E092E0E7EAFAE0DF019C011D9253
:101B400021503040E1F782E08093A70164E083EA0E
:101B500091E0ACDF8FE1B1DF64E08FE991E0A6DFD7
:101B60008091A701813011F084E101C080E1A5DFFF
:101B700064E08BE991E09ADF64E087E991E096DF29
:101B800089ED9BDF8091A701813011F081EF01C0C9
:101B900082E293DF66E081E991E088DF94DFA9DFEC
:101BA00081E0089510925A0610925B0610925C062E
:101BB00010925D0614BC16BC84B58E7F84BD84B5BE
:101BC0008D7F84BD85B5877F85BD85B5826085BDE8
:101BD00085B58E7F85BDEEE6F0E0808181608083F3
:101BE00008953FB7F89480915A0690915B06A091B2
:101BF0005C06B0915D0626B5A89B05C02F3F19F085
:101C00000196A11DB11D3FBFBA2FA92F982F88277C
:101C1000820F911DA11DB11DBC01CD019695879527
:101C2000779567950895DDDF28EE33E040E050E0DA
:101C30000E94CA1BCA01B9010895CF92DF92EF92A8
:101C4000FF926B017C01CDDFC60ED71EE81EF91E88
:101C5000C8DF6C157D058E059F05D0F3FF90EF90D2
:101C6000DF90CF9008951F920F920FB60F9211241C
:101C70008F939F93AF93BF9380915A0690915B0689
:101C8000A0915C06B0915D060196A11DB11D8093E7
:101C90005A0690935B06A0935C06B0935D06BF91D5
:101CA000AF919F918F910F900FBE0F901F9018953D
:101CB000E7EAFCE01082108617821186118A108AEA
:101CC000128A128E118E138E13A212A21092B000DD
:101CD0001092B200E1EBF0E080818160808380812E
:101CE000846080838DE78093B300B99AE0E7F0E0E9
:101CF000808182608083089590E0FC01EE0FFF1FD9
:101D0000EE0FFF1FEE0FFF1F8E0F9F1FFC01E95507
:101D1000F34F728361831482138245833087278354
:101D200081E08083089590E0FC01EE0FFF1FEE0F2D
:101D3000FF1FEE0FFF1F8E0F9F1FFC01E955F34F92
:101D40001082128211821482138282E085831086AF
:101D500017820895E0E7F0E080818D7F80838DE732
:101D60008093B300A7EABCE014961C921E921397CE
:101D70001D961C921E921C9756961C921E92559769
:101D80005F961C921E925E971092B20080818260D4
:101D9000808308951F920F920FB60F9211240BB6F5
:101DA0000F92EF92FF921F932F933F934F935F9366
:101DB0006F937F938F939F93AF93BF93CF93DF9353
:101DC000EF93FF931091B200C0E0D0E08C2F9E0102
:101DD000FE01EE0FFF1FEE0FFF1FEE0FFF1FEC0FB8
:101DE000FD1FE955F34F9081913009F06CC0FE0161
:101DF000EE0FFF1FEE0FFF1FEE0FFF1FEC0FFD1F7B
:101E0000E955F34F438154814F5F5F4F54834383C0
:101E100063817481418152816417750709F053C051
:101E2000F901EE0FFF1FEE0FFF1FEE0FFF1FE20F76
:101E3000F31FE955F34F9581923009F444C0F9013D
:101E4000EE0FFF1FEE0FFF1FEE0FFF1FE20FF31F3E
:101E5000E955F34F148213829581911115C0F90150
:101E6000EE0FFF1FEE0FFF1FEE0FFF1F2E0F3F1F86
:101E7000F901E955F34FE780F08455DFE114F104EF
:101E800011F1F70109951FC0F901EE0FFF1FEE0FC9
:101E9000FF1FEE0FFF1FE20FF31FE955F34F87817E
:101EA0009085892B81F0F901EE0FFF1FEE0FFF1FC8
:101EB000EE0FFF1F2E0F3F1FF901E955F34F07806B
:101EC000F085E02D09952196C430D10509F07ECF2B
:101ED0008091B20014581093B300FF91EF91DF91FD
:101EE000CF91BF91AF919F918F917F916F915F91B2
:101EF0004F913F912F911F91FF90EF900F900BBE4C
:101F00000F900FBE0F901F9018958FEFECEBF0E045
:101F10000EC0815061F480915E0690915F0601963B
:101F200090935F0680935E061092BC0008959081A6
:101F300099237CF70895CF92DF92EF92FF92CF938F
:101F4000DF936B017C01C9EAD1E088810E948302A2
:101F500089810E94830260E07DE281E391E0A70134
:101F600096010E94CA1B205131093695279520936E
:101F7000B8001092B90084E08093BC0010925F0614
:101F800010925E0681E0DF91CF91FF90EF90DF909D
:101F9000CF9008950F931F93CF93DF93C82FD62F21
:101FA0008A0184EA8093BC00B0DF8091B900883058
:101FB00029F08091B900803109F049C08C2F880F39
:101FC0008093BB0084E88093BC009FDF8091B900C0
:101FD000883109F03EC0D093BB0084E88093BC00F8
:101FE00094DF8091B9008832B1F584EA8093BC0017
:101FF0008CDF8091B900803181F5CC0FC160C09336
:10200000BB0084E88093BC0080DF8091B9008034FD
:1020100031F584E88093BC0078DF8091B900883581
:1020200001F58091BB00F801808384E98093BC00B6
:102030008091B900883FB9F080915E0690915F066B
:10204000019690935F0680935E0680E00DC080E06D
:102050000BC080E009C080E007C080E005C080E0E0
:1020600003C080E001C081E0DF91CF911F910F910B
:1020700008951F93CF93DF93C82FD62F142F84EA90
:102080008093BC0042DF8091B900883021F08091BC
:10209000B900803189F5CC0FC093BB0084E88093F0
:1020A000BC0033DF8091B900883141F5D093BB008B
:1020B00084E88093BC0029DF8091B900883201F563
:1020C0001093BB0084E88093BC001FDF8091B900AF
:1020D0008832C1F484E98093BC008091B900883FC4
:1020E00099F080915E0690915F06019690935F064D
:1020F00080935E0680E009C080E007C080E005C0F4
:1021000080E003C080E001C081E0DF91CF911F91AA
:1021100008959F92AF92BF92CF92DF92EF92FF927B
:102120000F931F93CF93DF93C82FF62E8A01D22FE0
:1021300084EA8093BC00E9DE8091B900883029F000
:102140008091B900803109F051C0CC0FC093BB0021
:1021500084E88093BC00D9DE8091B900883109F011
:1021600047C0F092BB0084E88093BC00CEDE809133
:10217000B900883209F03EC0DD2399F17801D150D1
:10218000CD2FD0E02196C00FD11F0F2EFBEBAF2E2D
:10219000B12CF02D0F2EFCEBCF2ED12CF02D0F2ECD
:1021A000F4E89F2EF02D09EB10E0F70181917F01FB
:1021B000F5018083F6019082A8DEF80180818832E3
:1021C00059F080915E0690915F06019690935F06AC
:1021D00080935E0680E006C0CE15DF0531F781E012
:1021E00001C081E094E99093BC0005C081E003C088
:1021F00081E001C081E0DF91CF911F910F91FF90AD
:10220000EF90DF90CF90BF90AF909F900895AF92E6
:10221000BF92CF92DF92EF92FF920F931F93CF93D3
:10222000DF93C82F062F142FD22F84EA8093BC008F
:102230006CDE8091B900883029F08091B90080313E
:1022400009F047C0CC0FC093BB0084E88093BC006A
:102250005CDE8091B900883109F03DC00093BB007D
:1022600084E88093BC0051DE8091B9008832A9F5E2
:10227000DD2351F1C0E00F2EFBEBAF2EB12CF02D82
:102280000F2EFCEBCF2ED12CF02D04E80F2EF9EB06
:10229000EF2EF12CF02DF5011083F601008335DED1
:1022A000F7018081883259F080915E0690915F0637
:1022B000019690935F0680935E0680E006C0CF5F34
:1022C000DC13E9CF81E001C081E094E99093BC0088
:1022D00005C081E003C081E001C081E0DF91CF91C2
:1022E0001F910F91FF90EF90DF90CF90BF90AF9034
:1022F0000895653000F5811120C08AE090E0909348
:10230000C5008093C400E1ECF0E0808180618083AF
:10231000808188608083A2ECB0E08C9182608C9395
:1023200080818F7B808380818F7D808380818068A6
:10233000808381E0089580E0089580E0089590E032
:10234000FC01FE2FEE27FF0FE05AF84F208130E00E
:102350002F5F3F4F2E3F310510F020E030E0982FE7
:102360008827990F805A994FFC01E20FF31FEE5F07
:10237000FE4F6083FC01F395208381E00895811175
:1023800007C0E1ECF0E080818062808381E0089505
:1023900080E00895482F50E0FA01FE2FEE27FF0F4E
:1023A000E05AF94F218130E0DF01A20FB31F1296EE
:1023B0008C91608170E02617370771F02F5F3F4FD7
:1023C0002E3F310510F020E030E0542F4427550F08
:1023D000FA01E05AF94F21830895E82FF0E0FE2F2B
:1023E000EE27FF0FE05AF94F90818181981B81E021
:1023F0009E3F08F480E0880F890F08951F920F9286
:102400000FB60F9211240BB60F928F939F93EF93F9
:10241000FF93E091600681E08E0FF0E09091C6009E
:10242000E05AF94F92838E3F08F080E08093600677
:10243000FF91EF919F918F910F900BBE0F900FBE68
:102440000F901F9018951F920F920FB60F921124A4
:102450000BB60F928F939F93EF93FF939091610729
:1024600080916007981771F081E0890F8E3F08F026
:1024700080E0E82FF0E0EE59F84F90819093C6008D
:102480008093610790916007891305C0E1ECF0E04B
:1024900080818F7D8083FF91EF919F918F910F902D
:1024A0000BBE0F900FBE0F901F9018951F920F92AA
:1024B0000FB60F9211240F900FBE0F901F9018951A
:1024C0001F920F920FB60F9211240BB60F928F939B
:1024D0009F93EF93FF93E091600681E08E0FF0E011
:1024E0009091CE00E05AF94F92838E3F08F080E041
:1024F00080936006FF91EF919F918F910F900BBE9B
:102500000F900FBE0F901F9018951F920F920FB64D
:102510000F9211240BB60F928F939F93EF93FF931B
:102520009091610780916007981771F081E0890FA1
:102530008E3F08F080E0E82FF0E0EE59F84F9081F0
:102540009093CE008093610790916007891305C036
:10255000E9ECF0E080818F7D8083FF91EF919F9186
:102560008F910F900BBE0F900FBE0F901F9018957C
:102570001F920F920FB60F9211240F900FBE0F9063
:102580001F90189514BE85B7816085BF85B78D7F74
:1025900085BFF8949EE088E10FB6F894A8958093E3
:1025A00060000FBE909360007894FCDA81DB0E949B
:1025B0006E0264E080E09DDE60E87AE186E090E013
:1025C000BADC39D048D4A1D2F3D076D0A2D4C2DBC1
:1025D00008DB6093600A7093610A8093620A9093AB
:1025E000630AA8D40E947D02D8E1CEE00FB6F89429
:1025F000A895D09360000FBEC0936000F2DA0091FE
:10260000600A1091610A2091620A3091630ADC012C
:10261000CB01801B910BA20BB30B8093600A9093AC
:10262000610AA093620AB093630A0FD06DD4C4D03C
:102630005DD0B7D3DBCF84E08093D90C1092D80C57
:102640001092D70C0C943301089580E00E9465012C
:1026500044E6489F9001499F300D1124A5E9B7ED4C
:102660000E94EC1B880F892F881F990B91959093DE
:10267000D80C8093D70C8F35910518F01092D90C97
:1026800008958B34910520F081E08093D90C089552
:102690008233910520F082E08093D90C0895499708
:1026A00020F083E08093D90C089584E08093D90CC6
:1026B00008958091D70C08950F931F93CF930E9494
:1026C00066080E94EB0347D40BEC1CE0C0E08C2FA3
:1026D0000E949005F801819391938F01CF5FC630DE
:1026E000B1F781E0CF911F910F91089592C40895A1
:1026F0001F93CF93DF93162FEA018A3040F04AE010
:10270000BE016E5F7F4F90E00E94FB1B09C090E30B
:102710009A834AE0BE016D5F7F4F90E00E94FB1BF1
:10272000143648F0BE016C5F7F4F4AE0812F90E085
:102730000E94FB1B18C01A3058F080E38C83BE0146
:102740006B5F7F4F4AE0812F90E00E94FB1B0BC024
:1027500080E38C838D83BE016A5F7F4F4AE0812FC7
:1027600090E00E94FB1BDF91CF911F9108950F9382
:102770001F93CF93DF938C01C62F6CE380E0DFDDE6
:102780006C2F70E06115710549F0E801060F171F05
:10279000699180E0D4DDC017D107D1F76EE380E006
:1027A000CEDD80E0ECDDDF91CF911F910F91089598
:1027B00064E080E09ECD0895BF92CF92DF92EF92C9
:1027C000FF920F931F93CF93DF93CDB7DEB7689738
:1027D0000FB6F894DEBF0FBECDBF80E0FEDD90E007
:1027E0009093660A8093650A892B09F47EC100E004
:1027F00010E00F2EFAEDEF2EFCE0FF2EF02D689486
:10280000CC24C1F8BB24B3940F2EF3E0DF2EF02DBF
:1028100080E0C0DD9091640A913079F028F0923028
:1028200089F09330A9F04DC18C3309F04AC1B092C0
:10283000640AD70112961C9244C1F7018083C092AA
:10284000640A3FC1D70111968C93D092640A39C1B2
:102850008E3309F021C11092640AFE01319684E1A1
:10286000DF011D928A95E9F78091DB0C803359F4E2
:102870008D8B8E8B81E38F8B85E3888F64E0CE0117
:10288000459675DF29C1813309F079C0EAEDFCE096
:102890008381880F182F110F110F180F8481180FC3
:1028A000123108F01EC1812F0E94A70A20E329835C
:1028B00021E32A83FC010385E02EF180DF2C1A300E
:1028C00040F04AE0BE016D5F7F4F812F90E093D7CB
:1028D00009C080E38B834AE0BE016C5F7F4F812F8C
:1028E00090E089D7F3E6FD1540F44AE0BE016B5F46
:1028F0007F4F8F2D90E07FD717C089E08D1550F462
:1029000080E38D834AE0BE016A5F7F4F8F2D90E0A8
:1029100072D70AC080E38D838E834AE0BE01695F6F
:102920007F4F8F2D90E067D7A3E6AE1550F480E37C
:1029300088874AE0BE01675F7F4F802F90E05BD7BA
:1029400019C0B9E0BE1558F480E3888789874AE04A
:10295000BE01665F7F4F802F90E04DD70BC080E3B4
:10296000888789878A874AE0BE01655F7F4F802F0D
:1029700090E041D76BE0CE010196F9DEADC0823325
:1029800009F045C0EAEDFCE08381880F982F990F8C
:10299000990F890F9481890F823108F0A2C0908528
:1029A00028EE33E0929FA001939F500D11242185C2
:1029B00094E6929F400D511D1124228530E0B9010B
:1029C000660F771F220F331F220F331F220F331F73
:1029D000260F371F420F531F2385420F511DA5811C
:1029E000268130E0B901660F771F220F331F220FB7
:1029F000331F220F331F620F731F9A9F600D711DCB
:102A000011249781690F711D0E949A0865C0833354
:102A100001F5EAEDFCE08381880F182F110F110FEB
:102A2000180F8481180F123108F05BC0812F0E94AB
:102A3000A70A20E3298323E32A83AE014F5F5F4F78
:102A4000FC016785812F54DE6BE0CE0101968FDE9D
:102A500043C0853309F045C0EAEDFCE08381880F6F
:102A6000182F110F110F180F8481180F1231C8F58C
:102A7000812F0E94A70A20E3298325E32A83AE0140
:102A80004F5F5F4FDC0153966C91812F31DE6BE01D
:102A9000CE0101966CDE20C0F7019281292F30E033
:102AA000F901E652F34F83838D3239F08B3229F0EE
:102AB000F901E652F34F805383839F5FD70112964B
:102AC0009C930F5F1F4F8091650A9091660A0817CB
:102AD000190708F49DCE09C062E084E794E047DE60
:102AE00004C062E087E794E042DE68960FB6F8948F
:102AF000DEBF0FBECDBFDF91CF911F910F91FF9031
:102B0000EF90DF90CF90BF90089510926A0A1092D4
:102B10006B0A10926C0A10926D0A1092690A84E690
:102B20008093AB011092680A1092670A84E0809348
:102B3000EF0C8CE30C94970D0895CF93DF9300D0A6
:102B400000D000D0CDB7DEB76091EF0CCE0101967A
:102B50000E948F018B819C8160E870E0681B790B7B
:102B600021E040E050E0CE0101960E949E0C0E94C0
:102B7000790D26960FB6F894DEBF0FBECDBFDF915C
:102B8000CF910895CF93DF9300D000D000D0CDB780
:102B9000DEB7682FCE0101960E94BB0121E040E024
:102BA00050E060E070E0CE0101960E949E0C0E9411
:102BB000790D26960FB6F894DEBF0FBECDBFDF911C
:102BC000CF9108950F931F932ED800916A0A109108
:102BD0006B0A20916C0A30916D0ADC01CB01801BDD
:102BE000910BA20BB30B8B3F9105A105B10518F119
:102BF0001AD860936A0A70936B0A80936C0A909358
:102C00006D0A57DD8093AB01811104C084E6809387
:102C1000AB0111C08A3170F49091680A913021F4AF
:102C20001092680AAFDF07C081E08093680A89E1EB
:102C3000A9DF01C0A7DF1F910F9108950F931F9384
:102C4000CF93DF93EC0128E030E042E350E06AE00C
:102C500070E085E090E00E94390B8881882389F03C
:102C60008E010F5F1F4FC5E06C2F70E021E04AE03E
:102C700050E00E941C0CCB5FF80181918F01811103
:102C8000F3CF0E94790D81E0DF91CF911F910F91D9
:102C900008950F931F93CF93DF9300E010E025E199
:102CA00030E04FE750E06FE070E080E090E00E949D
:102CB000E20B0FC040E050E0BE01C8010E94CE0A06
:102CC0002196C531D105B1F70F5F1F4F00381105AF
:102CD00019F0C0E1D0E0EECF0E94790D81E0DF91E4
:102CE000CF911F910F9108950F931F93CF93DF936F
:102CF000C82F0E94130E00916A0A10916B0A20914E
:102D00006C0A30916D0ADC01CB01801B910BA20B88
:102D1000B30B0B97A105B105E0F10E94130E609370
:102D20006A0A70936B0A80936C0A90936D0A4091C3
:102D3000690A50E080E2C89F90011124ABE7B4E13A
:102D40004BD5969587958417950728F101E010E0FB
:102D500025E130E04FE750E06FE070E080E090E088
:102D60000E94E20BC0E1D0E08091690A41E050E0AE
:102D7000BE0190E00E94CE0A2196C531D105A1F78F
:102D80008091690A8F5F8093690A0E94790D80E0C3
:102D900003C080E001C081E0DF91CF911F910F91CE
:102DA00008950F931F93CF93DF9300D000D01F920D
:102DB000CDB7DEB78091670A81110DC084E694DF3C
:102DC000882309F43EC081E08093670A62DF8AE7C6
:102DD00094E034DF36C0813029F50E94130E009153
:102DE0006A0A10916B0A20916C0A30916D0ADC011D
:102DF000CB01801B910BA20BB30B893E9340A10525
:102E0000B105F8F00E94130E60936A0A70936B0A82
:102E100080936C0A90936D0A0E94C20A82E08093AC
:102E2000670A0FC0823069F4CDDE87DE8091AB0186
:102E30004AE0BE016F5F7F4F90E0DDD4CE01019686
:102E4000FDDE0F900F900F900F900F90DF91CF91BC
:102E50001F910F9108950E9414020E94630380E065
:102E60000E941E0280E00E946D0381E00E946D03BB
:102E700082E00E946D0383E00E946D0381E008956B
:102E8000CF92DF92EF92FF920F931F930E94130E47
:102E9000A091720A00916E0A10916F0A2091700A37
:102EA0003091710A6B017C01C01AD10AE20AF30A5F
:102EB000EA2FF0E0EE0FFF1FE455FE4F40815181F5
:102EC00060E070E04C155D056E057F05B0F481E0B3
:102ED0008A0F843018F48093720A02C01092720A2A
:102EE00080E00E948D030E94130E60936E0A70931F
:102EF0006F0A8093700A9093710A1F910F91FF904F
:102F0000EF90DF90CF900895BBDF80E00C942F020C
:102F1000089560E080E00E94C20360E081E00E94CA
:102F2000C20360E082E00E94C20360E083E00C9490
:102F3000C203089560E080E00E94C20361E081E086
:102F40000E94C20361E082E00E94C20361E083E06C
:102F50000C94C20308950F931F931092730A10925A
:102F6000F00C04E610E020E030E040E050E060E0EB
:102F700070E080E00E94B00520E030E040E050E0EA
:102F800060E070E081E00E94B00520E030E040E0C9
:102F900050E060E070E082E00E94B00520E030E0A8
:102FA00040E050E060E070E083E00E94B00520E087
:102FB00030E040E050E060E070E084E00E94B00566
:102FC00020E030E040E050E060E070E085E00E940A
:102FD000B00580E00E9497058823B9F081E00E9447
:102FE0009705882391F082E00E949705882369F075
:102FF00083E00E949705882341F084E00E949705B2
:10300000882319F085E00E94970581E01F910F91B8
:1030100008950C94630808959F939F7788D10F902B
:1030200000203AF49058A2EA2AED3FE049E450E447
:1030300013D049C25058BB27AA270ED044C20DD284
:1030400030F012D220F031F49F3F11F41EF4DDC1B4
:103050000EF4E095E7FBAAC1E92F57D280F3BA1727
:10306000620773078407950718F071F49EF586C20E
:103070000EF4E0950B2EBA2FA02D0B01B901900193
:103080000C01CA01A0011124FF27591B99F0593FD7
:1030900050F4503E68F11A16F040A22F232F342F1F
:1030A0004427585FF3CF469537952795A795F0406D
:1030B0005395C9F77EF41F16BA0B620B730B840B82
:1030C000BAF09150A1F0FF0FBB1F661F771F881F3A
:1030D000C2F70EC0BA0F621F731F841F48F4879592
:1030E00077956795B795F7959E3F08F0B3CF939581
:1030F000880F08F09927EE0F979587950895DF932D
:10310000DD27B92FBF7740E85FE31616170648079B
:103110005B0710F4D92F3DD29F938F937F936F93CA
:103120000AD3ECE8F0E074D1CED12F913F914F91CA
:103130005F9142D2DD2349F09058A2EA2AED3FE0A8
:1031400049EC5FE3D0785D2787DFDF91BCC10AD10E
:1031500008F481E0089590D1E395C6C10CD0B3C1C5
:1031600083D140F07AD130F021F45F3F19F01EC1D5
:10317000511105C24AC1C9D198F39923C9F3552306
:10318000B1F3951B550BBB27AA276217730784075A
:1031900038F09F5F5F4F220F331F441FAA1FA9F310
:1031A00033D00E2E3AF0E0E830D091505040E69502
:1031B000001CCAF729D0FE2F27D0660F771F881F63
:1031C000BB1F261737074807AB07B0E809F0BB0B52
:1031D000802DBF01FF2793585F4F2AF09E3F510576
:1031E00068F0E4C0CCC15F3FECF3983EDCF3869519
:1031F00077956795B795F7959F5FC9F7880F911DEC
:103200009695879597F90895E1E0660F771F881FD7
:10321000BB1F621773078407BA0720F0621B730B8A
:10322000840BBA0BEE1F88F7E095089504D06894DC
:10323000B111A5C1089571D188F09F5790F0B92FB1
:103240009927B751A0F0D1F0660F771F881F991FFB
:103250001AF0BA95C9F712C0B13081F08FD1B1E040
:1032600008958CC1672F782F8827B85F39F0B93F50
:10327000CCF3869577956795B395D9F73EF49095FD
:103280008095709561957F4F8F4F9F4F0895E8947B
:1032900009C097FB3EF490958095709561957F4F9E
:1032A0008F4F9F4F9923A9F0F92F96E9BB2793954C
:1032B000F695879577956795B795F111F8CFFAF45C
:1032C000BB0F11F460FF1BC06F5F7F4F8F4F9F4F8D
:1032D00016C0882311F096E911C0772321F09EE8EB
:1032E000872F762F05C0662371F096E8862F70E051
:1032F00060E02AF09A95660F771F881FDAF7880F2B
:103300009695879597F9089522D180F09F3740F4DC
:1033100091110EF034C160E070E080E89FEB0895F9
:1033200026F41B16611D711D811D46C060C0DF9310
:10333000CF931F930F938B01EC01E9EBF0E068D082
:10334000C2D09801AE018B01EC0160E070E080E832
:103350009FE370DEB2D19801AE010F911F91CF9122
:10336000DF912AC1990F0008550FAA0BE0E8FEEF84
:1033700016161706E807F907C0F012161306E40739
:10338000F50798F0621B730B840B950B39F40A2632
:1033900061F0232B242B252B21F408950A2609F410
:1033A000A140A6958FEF811D811D089597F99F6714
:1033B00080E870E060E00895882371F4772321F0BD
:1033C0009850872B762F07C0662311F499270DC0DC
:1033D0009051862B70E060E02AF09A95660F771F77
:1033E000881FDAF7880F9695879597F908959F3F7C
:1033F00031F0915020F4879577956795B795880FB0
:10340000911D9695879597F908959FEF80EC089503
:10341000DF93CF931F930F93FF92EF92DF927B0185
:103420008C01689405C0DA2EEF01C6D0FE01E89445
:10343000A5912591359145915591AEF3EF010CDEA3
:10344000FE019701A801DA9479F7DF90EF90FF90E1
:103450000F911F91CF91DF91089500240A941616C1
:10346000170618060906089500240A941216130672
:10347000140605060895C9CF50D0E8F3E894E0E0BB
:10348000BB279F57F0F02AED3FE049EC06C0EE0F56
:10349000BB0F661F771F881F28F0B23A62077307B9
:1034A000840728F0B25A620B730B840BE3959A954C
:1034B00072F7803830F49A95BB0F661F771F881F0C
:1034C000D2F7904896CF092E0394000C11F488236C
:1034D00052F0BB0F40F4BF2B11F460FF04C06F5FCC
:1034E0007F4F8F4F9F4F0895EF93E0FF06C0A2EAF2
:1034F0002AED3FE049EC5FEBAFDDE5DF0F90039491
:1035000001FC9058E1EEF0E020C157FD9058440FC7
:10351000551F59F05F3F71F04795880F97FB991F32
:1035200061F09F3F79F087950895121613061406EF
:10353000551FF2CF4695F1DF08C01616170618067C
:10354000991FF1CF86957105610508940895E5DF0F
:10355000A0F0BEE7B91788F4BB279F3860F41616B1
:10356000B11D672F782F8827985FF7CF86957795BD
:103570006795B11D93959639C8F30895E894BB27D4
:1035800066277727CB0197F90895ECDE08F48FEFD3
:1035900008959B01AC0160E070E080E89FE3DECD20
:1035A0000BD091CF5ADF28F05FDF18F0952309F098
:1035B000FDCE2BCF1124E3CFA8DFA0F3959FD1F34D
:1035C000950F50E0551F629FF001729FBB27F00DD1
:1035D000B11D639FAA27F00DB11DAA1F649F662726
:1035E000B00DA11D661F829F2227B00DA11D621F75
:1035F000739FB00DA11D621F839FA00D611D221F2F
:10360000749F3327A00D611D231F849F600D211D12
:10361000822F762F6A2F11249F5750408AF0E1F0B5
:1036200088234AF0EE0FFF1FBB1F661F771F881FFE
:1036300091505040A9F79E3F510570F0B7CE9FCFF3
:103640005F3FECF3983EDCF3869577956795B795E9
:10365000F795E7959F5FC1F7FE2B880F911D969513
:10366000879597F9089559DFE0F09E37D8F096399D
:10367000B8F49E3848F4672F782F8827985FF9CFE1
:1036800086957795679593959539D0F3B62FB17058
:103690006B0F711D811D20F4879577956795939524
:1036A0008BCEA5CE6CCF9F93E7DE0F9007FCEE5F2D
:1036B0001BCF11F40EF4A9CE9ACE2FDFD0F39923AD
:1036C000D9F3CEF39F57550B87FF38D00024A0E6DF
:1036D00040EA900180585695979528F4805C660FD3
:1036E000771F881F20F026173707480730F4621B22
:1036F000730B840B202931294A2BA6951794079424
:10370000202531254A2758F7660F771F881F20F09C
:1037100026173707480730F4620B730B840B200D14
:10372000311D411DA09581F7B901842F9158880F53
:103730009695879508959B01AC0132CF91505040EA
:10374000660F771F881FD2F708959F938F937F93FB
:103750006F93FF93EF939B01AC0122DFEF91FF91F9
:1037600057DE2F913F914F915F911ACFAA1BBB1B40
:1037700051E107C0AA1FBB1FA617B70710F0A61B71
:10378000B70B881F991F5A95A9F780959095BC0192
:10379000CD010895A1E21A2EAA1BBB1BFD010DC08D
:1037A000AA1FBB1FEE1FFF1FA217B307E407F507F1
:1037B00020F0A21BB30BE40BF50B661F771F881FCD
:1037C000991F1A9469F760957095809590959B0163
:1037D000AC01BD01CF010895A29FB001B39FC0010C
:1037E000A39F700D811D1124911DB29F700D811D2D
:1037F0001124911D0895BB274A3031F4992322F4F6
:10380000BDE2909581959F4F01C0BB27FB015527D5
:10381000AA27880F991FAA1FA41710F0A41B83952D
:103820005051B9F7A05DAA3308F0A95DA1930097A4
:1038300079F7B111B1931192CB0100C0DC01FC0109
:10384000672F71917723E1F7329704C07C916D93D4
:1038500070836291AE17BF07C8F30895F999FECF40
:1038600092BD81BDF89A992780B50895262FF999C0
:10387000FECF1FBA92BD81BD20BD0FB6F894FA9A53
:0C388000F99A0FBE01960895F894FFCF4E
:10388C00018003C007E007E003C0018001800180D4
:10389C00018007E003C00180018003C007E00180C4
:1038AC000180018038007000FFFFFFFF70003800BE
:1038BC00001C000EFFFFFFFF000E001CFFFE80022D
:1038CC008003800380038002FFFEFFFE8002B803AA
:1038DC00B003A0038002FFFEFFFE8002BB83B70390
:1038EC00AE038002FFFEFFFE8002BBBBB773AEE3EC
:1038FC008002FFFEFFFE8002BBBBB773AEEB800203
:10390C00FFFE0C08090A0B2200FF21002200FF21F8
:10391C0000DB40A4A62EAFDA02818F2000A1C8D311
:10392C0000408DAED580A802FF10116432006400F7
:10393C000F00B00400000000000000BE00000007F3
:10394C0000070048FC48FC484854FE54248854287E
:10395C0050A86C9292AC40A000070000007C820141
:10396C00000001827C0028107C102810107C1010A4
:10397C0000008000001010101010000080000000EB
:10398C00C0300C037C8292827C0084FE8000C4A236
:10399C0092928C448292926C302824FE205E9292F9
:1039AC00926278949292600282621A066C9292925F
:1039BC006C0C9292523C00004800000080480000C1
:1039CC0010102828442828282828442828101004B7
:1039DC0002A2120C7C82BABAA2FC382638C0FE9223
:1039EC0092926C7C82828244FE82824438FE929255
:1039FC009282FE121212027C828292F4FE1010103D
:103A0C00FE0082FE8200808082827EFE102844822C
:103A1C00FE80808080FE186018FEFE0638C0FE7C9A
:103A2C008282827CFE1212120C7C8282C2FCFE12FA
:103A3C001212EC4C929292640202FE02027E808080
:103A4C00807E0E30C0300E1EE01CE01EC6281028F2
:103A5C00C60E10F0100EC2A2928A8600FF01010061
:103A6C00030C30C000000101FF0008040204080030
:103A7C0000000000000002040040A8A8A8F0FF8885
:103A8C00888870708888888870888888FF70A8A853
:103A9C00A8B008FE09090170888888F0FF0808089A
:103AAC00F00008FA0000000008FA0000FF2050881F
:103ABC000001FF0000F808F008F0F8080808F070A2
:103ACC0088888870F88888887070888888F8F810DA
:103ADC0008081090A8A8A848007E88888078808064
:103AEC0080F8186080601838C030C038885020507A
:103AFC008878808080F888C8A898880010EE01002B
:103B0C000000FF00000001EE10002010102020002B
:103B1C0000000000220021002000002200210020D3
:103B2C0000012200210020000222002100200003BD
:103B3C002200210020000422002100200005220088
:103B4C00210020000622002100200007250024006F
:103B5C00230000250024002300012500240023005D
:103B6C000225002400230003250024002300042543
:103B7C000024002300052500240023000625002432
:103B8C000023000728002700260000280027002615
:103B9C000001280027002600022800270026000329
:103BAC0028002700260004280027002600052800EE
:103BBC002700260006280027002600072B002A00D5
:103BCC002900002B002A002900012B002A002900C3
:103BDC00022B002A002900032B002A002900042BA9
:103BEC00002A002900052B002A002900062B002A98
:103BFC00002900074F4B004E4F00496E697420643A
:063C0C006F6E652021002F
:00000001FF
